{
  "contractName": "ItemManager",
  "abi": [
    {
      "anonymous": false,
      "inputs": [
        {
          "indexed": false,
          "internalType": "uint256",
          "name": "_productIndex",
          "type": "uint256"
        },
        {
          "indexed": false,
          "internalType": "address",
          "name": "_buyerAddress",
          "type": "address"
        },
        {
          "indexed": false,
          "internalType": "uint256",
          "name": "buyerIndex",
          "type": "uint256"
        },
        {
          "indexed": false,
          "internalType": "uint256",
          "name": "qtyBought",
          "type": "uint256"
        },
        {
          "indexed": false,
          "internalType": "uint256",
          "name": "_itemStep",
          "type": "uint256"
        }
      ],
      "name": "ItemStep",
      "type": "event"
    },
    {
      "anonymous": false,
      "inputs": [
        {
          "indexed": true,
          "internalType": "address",
          "name": "previousOwner",
          "type": "address"
        },
        {
          "indexed": true,
          "internalType": "address",
          "name": "newOwner",
          "type": "address"
        }
      ],
      "name": "OwnershipTransferred",
      "type": "event"
    },
    {
      "anonymous": false,
      "inputs": [
        {
          "indexed": false,
          "internalType": "uint256",
          "name": "_productIndex",
          "type": "uint256"
        },
        {
          "indexed": false,
          "internalType": "address",
          "name": "_address",
          "type": "address"
        },
        {
          "indexed": false,
          "internalType": "uint256",
          "name": "qty",
          "type": "uint256"
        }
      ],
      "name": "ProductStep",
      "type": "event"
    },
    {
      "stateMutability": "payable",
      "type": "fallback",
      "payable": true
    },
    {
      "inputs": [],
      "name": "owner",
      "outputs": [
        {
          "internalType": "address",
          "name": "",
          "type": "address"
        }
      ],
      "stateMutability": "view",
      "type": "function",
      "constant": true
    },
    {
      "inputs": [
        {
          "internalType": "address",
          "name": "",
          "type": "address"
        }
      ],
      "name": "paymentAuth",
      "outputs": [
        {
          "internalType": "uint256",
          "name": "_buyerId",
          "type": "uint256"
        },
        {
          "internalType": "uint256",
          "name": "_buyerIndex",
          "type": "uint256"
        }
      ],
      "stateMutability": "view",
      "type": "function",
      "constant": true
    },
    {
      "inputs": [
        {
          "internalType": "uint256",
          "name": "",
          "type": "uint256"
        }
      ],
      "name": "products",
      "outputs": [
        {
          "internalType": "contract ProductSale",
          "name": "_product",
          "type": "address"
        },
        {
          "internalType": "string",
          "name": "_identifier",
          "type": "string"
        },
        {
          "internalType": "uint256",
          "name": "_priceInWei",
          "type": "uint256"
        },
        {
          "internalType": "uint256",
          "name": "_quantity",
          "type": "uint256"
        }
      ],
      "stateMutability": "view",
      "type": "function",
      "constant": true
    },
    {
      "inputs": [],
      "name": "renounceOwnership",
      "outputs": [],
      "stateMutability": "nonpayable",
      "type": "function"
    },
    {
      "inputs": [
        {
          "internalType": "address",
          "name": "newOwner",
          "type": "address"
        }
      ],
      "name": "transferOwnership",
      "outputs": [],
      "stateMutability": "nonpayable",
      "type": "function"
    },
    {
      "inputs": [
        {
          "internalType": "string",
          "name": "_identifier",
          "type": "string"
        },
        {
          "internalType": "uint256",
          "name": "_priceInWei",
          "type": "uint256"
        },
        {
          "internalType": "uint256",
          "name": "_quantity",
          "type": "uint256"
        }
      ],
      "name": "createItem",
      "outputs": [],
      "stateMutability": "nonpayable",
      "type": "function"
    },
    {
      "inputs": [
        {
          "internalType": "uint256",
          "name": "_Ind",
          "type": "uint256"
        },
        {
          "internalType": "uint256",
          "name": "qty",
          "type": "uint256"
        },
        {
          "internalType": "address",
          "name": "buyer",
          "type": "address"
        }
      ],
      "name": "triggerPayment",
      "outputs": [],
      "stateMutability": "payable",
      "type": "function",
      "payable": true
    },
    {
      "inputs": [
        {
          "internalType": "uint256",
          "name": "_productIndex",
          "type": "uint256"
        },
        {
          "internalType": "address",
          "name": "buyer",
          "type": "address"
        },
        {
          "internalType": "uint256",
          "name": "address_index",
          "type": "uint256"
        },
        {
          "internalType": "uint256",
          "name": "buyerIndex",
          "type": "uint256"
        }
      ],
      "name": "triggerDelivery",
      "outputs": [],
      "stateMutability": "nonpayable",
      "type": "function"
    },
    {
      "inputs": [
        {
          "internalType": "uint256",
          "name": "newQuantity",
          "type": "uint256"
        },
        {
          "internalType": "uint256",
          "name": "itemIndex",
          "type": "uint256"
        }
      ],
      "name": "updateQuantity",
      "outputs": [
        {
          "internalType": "bool",
          "name": "",
          "type": "bool"
        }
      ],
      "stateMutability": "nonpayable",
      "type": "function"
    },
    {
      "inputs": [],
      "name": "getIndexCount",
      "outputs": [
        {
          "internalType": "uint256",
          "name": "",
          "type": "uint256"
        }
      ],
      "stateMutability": "view",
      "type": "function",
      "constant": true
    },
    {
      "inputs": [
        {
          "internalType": "uint256",
          "name": "_index",
          "type": "uint256"
        }
      ],
      "name": "productData",
      "outputs": [
        {
          "internalType": "string",
          "name": "",
          "type": "string"
        },
        {
          "internalType": "uint256",
          "name": "",
          "type": "uint256"
        },
        {
          "internalType": "uint256",
          "name": "",
          "type": "uint256"
        },
        {
          "internalType": "address",
          "name": "",
          "type": "address"
        }
      ],
      "stateMutability": "view",
      "type": "function",
      "constant": true
    }
  ],
  "bytecode": "0x608060405234801561001057600080fd5b5061002d61002261003260201b60201c565b61003a60201b60201c565b6100fe565b600033905090565b60008060009054906101000a900473ffffffffffffffffffffffffffffffffffffffff169050816000806101000a81548173ffffffffffffffffffffffffffffffffffffffff021916908373ffffffffffffffffffffffffffffffffffffffff1602179055508173ffffffffffffffffffffffffffffffffffffffff168173ffffffffffffffffffffffffffffffffffffffff167f8be0079c531659141344cd1fd0a4f28419497f9722a3daafe3b4186f6b6457e060405160405180910390a35050565b612bb6806200010e6000396000f3fe608060405260043610620000af5760003560e01c80637ace8038116200006d5780637ace803814620001a55780638da5cb5b14620001ea5780639f5ce910146200021a578063b23f9dde1462000261578063ec244370146200028f578063f2fde38b14620002bf57620000b0565b8063108155bc14620000b2578063715018a614620000e057806374ff68b614620000fa57806379cd4921146200011a5780637acc0b20146200015e57620000b0565b5b005b348015620000bf57600080fd5b50620000de6004803603810190620000d89190620015c4565b620002ed565b005b348015620000ed57600080fd5b50620000f8620004d4565b005b620001186004803603810190620001129190620016a4565b62000565565b005b3480156200012757600080fd5b5062000146600480360381019062000140919062001700565b62000991565b60405162000155919062001764565b60405180910390f35b3480156200016b57600080fd5b506200018a600480360381019062000184919062001781565b62000bb4565b6040516200019c9493929190620018c2565b60405180910390f35b348015620001b257600080fd5b50620001d16004803603810190620001cb919062001916565b62000c94565b604051620001e192919062001948565b60405180910390f35b348015620001f757600080fd5b506200020262000cb8565b60405162000211919062001986565b60405180910390f35b3480156200022757600080fd5b5062000246600480360381019062000240919062001781565b62000ce1565b604051620002589493929190620019a3565b60405180910390f35b3480156200026e57600080fd5b506200028d6004803603810190620002879190620019f7565b62000e06565b005b3480156200029c57600080fd5b50620002a76200117b565b604051620002b6919062001a69565b60405180910390f35b348015620002cc57600080fd5b50620002eb6004803603810190620002e5919062001916565b62001185565b005b620002f762001289565b73ffffffffffffffffffffffffffffffffffffffff166200031762000cb8565b73ffffffffffffffffffffffffffffffffffffffff161462000370576040517f08c379a0000000000000000000000000000000000000000000000000000000008152600401620003679062001ad6565b60405180910390fd5b6000308360035484604051620003869062001355565b62000395949392919062001b1d565b604051809103906000f080158015620003b2573d6000803e3d6000fd5b5090508060016000600354815260200190815260200160002060000160006101000a81548173ffffffffffffffffffffffffffffffffffffffff021916908373ffffffffffffffffffffffffffffffffffffffff1602179055508360016000600354815260200190815260200160002060010190805190602001906200043a92919062001363565b50826001600060035481526020019081526020016000206002018190555081600160006003548152602001908152602001600020600301819055507f42bf350929f0b549e4d17490f0093004ee503c65f9b3764ca4a431425d3729a36003548284604051620004ac9392919062001b6a565b60405180910390a160036000815480929190620004c99062001bd6565b919050555050505050565b620004de62001289565b73ffffffffffffffffffffffffffffffffffffffff16620004fe62000cb8565b73ffffffffffffffffffffffffffffffffffffffff161462000557576040517f08c379a00000000000000000000000000000000000000000000000000000000081526004016200054e9062001ad6565b60405180910390fd5b62000563600062001291565b565b60006001600085815260200190815260200160002060000160009054906101000a900473ffffffffffffffffffffffffffffffffffffffff1690503373ffffffffffffffffffffffffffffffffffffffff168173ffffffffffffffffffffffffffffffffffffffff161462000611576040517f08c379a0000000000000000000000000000000000000000000000000000000008152600401620006089062001c9a565b60405180910390fd5b6001600260008473ffffffffffffffffffffffffffffffffffffffff1673ffffffffffffffffffffffffffffffffffffffff1681526020019081526020016000206000016000600260008673ffffffffffffffffffffffffffffffffffffffff1673ffffffffffffffffffffffffffffffffffffffff16815260200190815260200160002060020154815260200190815260200160002060010160006101000a81548160ff02191690836002811115620006d057620006cf62001cbc565b5b021790555082600160008681526020019081526020016000206003016000828254620006fd919062001ceb565b9250508190555082600260008473ffffffffffffffffffffffffffffffffffffffff1673ffffffffffffffffffffffffffffffffffffffff1681526020019081526020016000206000016000600260008673ffffffffffffffffffffffffffffffffffffffff1673ffffffffffffffffffffffffffffffffffffffff168152602001908152602001600020600201548152602001908152602001600020600001819055507f235280cce55153589b2310decf136eaaed1d4c47c6bf922abc8fd73dc10830388483600260008673ffffffffffffffffffffffffffffffffffffffff1673ffffffffffffffffffffffffffffffffffffffff1681526020019081526020016000206002015486600260008873ffffffffffffffffffffffffffffffffffffffff1673ffffffffffffffffffffffffffffffffffffffff1681526020019081526020016000206000016000600260008a73ffffffffffffffffffffffffffffffffffffffff1673ffffffffffffffffffffffffffffffffffffffff16815260200190815260200160002060020154815260200190815260200160002060010160009054906101000a900460ff166002811115620008c357620008c262001cbc565b5b604051620008d695949392919062001d26565b60405180910390a17f42bf350929f0b549e4d17490f0093004ee503c65f9b3764ca4a431425d3729a384826001600088815260200190815260200160002060030154604051620009299392919062001b6a565b60405180910390a1600260008373ffffffffffffffffffffffffffffffffffffffff1673ffffffffffffffffffffffffffffffffffffffff1681526020019081526020016000206002016000815480929190620009869062001bd6565b919050555050505050565b60006200099d62001289565b73ffffffffffffffffffffffffffffffffffffffff16620009bd62000cb8565b73ffffffffffffffffffffffffffffffffffffffff161462000a16576040517f08c379a000000000000000000000000000000000000000000000000000000000815260040162000a0d9062001ad6565b60405180910390fd5b82600160008481526020019081526020016000206003018190555060006001600084815260200190815260200160002060000160009054906101000a900473ffffffffffffffffffffffffffffffffffffffff1673ffffffffffffffffffffffffffffffffffffffff168460405160240162000a93919062001a69565b6040516020818303038152906040527f9cf78ba9000000000000000000000000000000000000000000000000000000007bffffffffffffffffffffffffffffffffffffffffffffffffffffffff19166020820180517bffffffffffffffffffffffffffffffffffffffffffffffffffffffff838183161783525050505060405162000b1f919062001dd0565b6000604051808303816000865af19150503d806000811462000b5e576040519150601f19603f3d011682016040523d82523d6000602084013e62000b63565b606091505b505090508062000baa576040517f08c379a000000000000000000000000000000000000000000000000000000000815260040162000ba19062001e5f565b60405180910390fd5b8091505092915050565b60016020528060005260406000206000915090508060000160009054906101000a900473ffffffffffffffffffffffffffffffffffffffff169080600101805462000bff9062001eb0565b80601f016020809104026020016040519081016040528092919081815260200182805462000c2d9062001eb0565b801562000c7e5780601f1062000c525761010080835404028352916020019162000c7e565b820191906000526020600020905b81548152906001019060200180831162000c6057829003601f168201915b5050505050908060020154908060030154905084565b60026020528060005260406000206000915090508060010154908060020154905082565b60008060009054906101000a900473ffffffffffffffffffffffffffffffffffffffff16905090565b6060600080600060016000868152602001908152602001600020600101600160008781526020019081526020016000206002015460016000888152602001908152602001600020600301546001600089815260200190815260200160002060000160009054906101000a900473ffffffffffffffffffffffffffffffffffffffff1683805462000d719062001eb0565b80601f016020809104026020016040519081016040528092919081815260200182805462000d9f9062001eb0565b801562000df05780601f1062000dc45761010080835404028352916020019162000df0565b820191906000526020600020905b81548152906001019060200180831162000dd257829003601f168201915b5050505050935093509350935093509193509193565b62000e1062001289565b73ffffffffffffffffffffffffffffffffffffffff1662000e3062000cb8565b73ffffffffffffffffffffffffffffffffffffffff161462000e89576040517f08c379a000000000000000000000000000000000000000000000000000000000815260040162000e809062001ad6565b60405180910390fd5b6001600281111562000ea05762000e9f62001cbc565b5b600260008573ffffffffffffffffffffffffffffffffffffffff1673ffffffffffffffffffffffffffffffffffffffff168152602001908152602001600020600001600083815260200190815260200160002060010160009054906101000a900460ff16600281111562000f195762000f1862001cbc565b5b1462000f5c576040517f08c379a000000000000000000000000000000000000000000000000000000000815260040162000f539062001f5c565b60405180910390fd5b60028060008573ffffffffffffffffffffffffffffffffffffffff1673ffffffffffffffffffffffffffffffffffffffff168152602001908152602001600020600001600083815260200190815260200160002060010160006101000a81548160ff0219169083600281111562000fd85762000fd762001cbc565b5b02179055507f42bf350929f0b549e4d17490f0093004ee503c65f9b3764ca4a431425d3729a3846001600087815260200190815260200160002060000160009054906101000a900473ffffffffffffffffffffffffffffffffffffffff1660016000888152602001908152602001600020600301546040516200105e9392919062001b6a565b60405180910390a17f235280cce55153589b2310decf136eaaed1d4c47c6bf922abc8fd73dc1083038848484600260008873ffffffffffffffffffffffffffffffffffffffff1673ffffffffffffffffffffffffffffffffffffffff168152602001908152602001600020600001600086815260200190815260200160002060000154600260008973ffffffffffffffffffffffffffffffffffffffff1673ffffffffffffffffffffffffffffffffffffffff168152602001908152602001600020600001600087815260200190815260200160002060010160009054906101000a900460ff1660028111156200115a576200115962001cbc565b5b6040516200116d95949392919062001d26565b60405180910390a150505050565b6000600354905090565b6200118f62001289565b73ffffffffffffffffffffffffffffffffffffffff16620011af62000cb8565b73ffffffffffffffffffffffffffffffffffffffff161462001208576040517f08c379a0000000000000000000000000000000000000000000000000000000008152600401620011ff9062001ad6565b60405180910390fd5b600073ffffffffffffffffffffffffffffffffffffffff168173ffffffffffffffffffffffffffffffffffffffff1614156200127b576040517f08c379a0000000000000000000000000000000000000000000000000000000008152600401620012729062001ff4565b60405180910390fd5b620012868162001291565b50565b600033905090565b60008060009054906101000a900473ffffffffffffffffffffffffffffffffffffffff169050816000806101000a81548173ffffffffffffffffffffffffffffffffffffffff021916908373ffffffffffffffffffffffffffffffffffffffff1602179055508173ffffffffffffffffffffffffffffffffffffffff168173ffffffffffffffffffffffffffffffffffffffff167f8be0079c531659141344cd1fd0a4f28419497f9722a3daafe3b4186f6b6457e060405160405180910390a35050565b610b6a806200201783390190565b828054620013719062001eb0565b90600052602060002090601f016020900481019282620013955760008555620013e1565b82601f10620013b057805160ff1916838001178555620013e1565b82800160010185558215620013e1579182015b82811115620013e0578251825591602001919060010190620013c3565b5b509050620013f09190620013f4565b5090565b5b808211156200140f576000816000905550600101620013f5565b5090565b6000604051905090565b600080fd5b600080fd5b600080fd5b600080fd5b6000601f19601f8301169050919050565b7f4e487b7100000000000000000000000000000000000000000000000000000000600052604160045260246000fd5b6200147c8262001431565b810181811067ffffffffffffffff821117156200149e576200149d62001442565b5b80604052505050565b6000620014b362001413565b9050620014c1828262001471565b919050565b600067ffffffffffffffff821115620014e457620014e362001442565b5b620014ef8262001431565b9050602081019050919050565b82818337600083830152505050565b6000620015226200151c84620014c6565b620014a7565b9050828152602081018484840111156200154157620015406200142c565b5b6200154e848285620014fc565b509392505050565b600082601f8301126200156e576200156d62001427565b5b8135620015808482602086016200150b565b91505092915050565b6000819050919050565b6200159e8162001589565b8114620015aa57600080fd5b50565b600081359050620015be8162001593565b92915050565b600080600060608486031215620015e057620015df6200141d565b5b600084013567ffffffffffffffff81111562001601576200160062001422565b5b6200160f8682870162001556565b93505060206200162286828701620015ad565b92505060406200163586828701620015ad565b9150509250925092565b600073ffffffffffffffffffffffffffffffffffffffff82169050919050565b60006200166c826200163f565b9050919050565b6200167e816200165f565b81146200168a57600080fd5b50565b6000813590506200169e8162001673565b92915050565b600080600060608486031215620016c057620016bf6200141d565b5b6000620016d086828701620015ad565b9350506020620016e386828701620015ad565b9250506040620016f6868287016200168d565b9150509250925092565b600080604083850312156200171a57620017196200141d565b5b60006200172a85828601620015ad565b92505060206200173d85828601620015ad565b9150509250929050565b60008115159050919050565b6200175e8162001747565b82525050565b60006020820190506200177b600083018462001753565b92915050565b6000602082840312156200179a57620017996200141d565b5b6000620017aa84828501620015ad565b91505092915050565b6000819050919050565b6000620017de620017d8620017d2846200163f565b620017b3565b6200163f565b9050919050565b6000620017f282620017bd565b9050919050565b60006200180682620017e5565b9050919050565b6200181881620017f9565b82525050565b600081519050919050565b600082825260208201905092915050565b60005b838110156200185a5780820151818401526020810190506200183d565b838111156200186a576000848401525b50505050565b60006200187d826200181e565b62001889818562001829565b93506200189b8185602086016200183a565b620018a68162001431565b840191505092915050565b620018bc8162001589565b82525050565b6000608082019050620018d960008301876200180d565b8181036020830152620018ed818662001870565b9050620018fe6040830185620018b1565b6200190d6060830184620018b1565b95945050505050565b6000602082840312156200192f576200192e6200141d565b5b60006200193f848285016200168d565b91505092915050565b60006040820190506200195f6000830185620018b1565b6200196e6020830184620018b1565b9392505050565b62001980816200165f565b82525050565b60006020820190506200199d600083018462001975565b92915050565b60006080820190508181036000830152620019bf818762001870565b9050620019d06020830186620018b1565b620019df6040830185620018b1565b620019ee606083018462001975565b95945050505050565b6000806000806080858703121562001a145762001a136200141d565b5b600062001a2487828801620015ad565b945050602062001a37878288016200168d565b935050604062001a4a87828801620015ad565b925050606062001a5d87828801620015ad565b91505092959194509250565b600060208201905062001a806000830184620018b1565b92915050565b7f4f776e61626c653a2063616c6c6572206973206e6f7420746865206f776e6572600082015250565b600062001abe60208362001829565b915062001acb8262001a86565b602082019050919050565b6000602082019050818103600083015262001af18162001aaf565b9050919050565b600062001b0582620017e5565b9050919050565b62001b178162001af8565b82525050565b600060808201905062001b34600083018762001b0c565b62001b436020830186620018b1565b62001b526040830185620018b1565b62001b616060830184620018b1565b95945050505050565b600060608201905062001b816000830186620018b1565b62001b90602083018562001975565b62001b9f6040830184620018b1565b949350505050565b7f4e487b7100000000000000000000000000000000000000000000000000000000600052601160045260246000fd5b600062001be38262001589565b91507fffffffffffffffffffffffffffffffffffffffffffffffffffffffffffffffff82141562001c195762001c1862001ba7565b5b600182019050919050565b7f4f6e6c79206974656d732061726520616c6c6f77656420746f2075706461746560008201527f207468656d73656c766573000000000000000000000000000000000000000000602082015250565b600062001c82602b8362001829565b915062001c8f8262001c24565b604082019050919050565b6000602082019050818103600083015262001cb58162001c73565b9050919050565b7f4e487b7100000000000000000000000000000000000000000000000000000000600052602160045260246000fd5b600062001cf88262001589565b915062001d058362001589565b92508282101562001d1b5762001d1a62001ba7565b5b828203905092915050565b600060a08201905062001d3d6000830188620018b1565b62001d4c602083018762001975565b62001d5b6040830186620018b1565b62001d6a6060830185620018b1565b62001d796080830184620018b1565b9695505050505050565b600081519050919050565b600081905092915050565b600062001da68262001d83565b62001db2818562001d8e565b935062001dc48185602086016200183a565b80840191505092915050565b600062001dde828462001d99565b915081905092915050565b7f50726f64756374207175616e7469747920757064617465206661696c65642c2060008201527f706c656173652074727920616761696e00000000000000000000000000000000602082015250565b600062001e4760308362001829565b915062001e548262001de9565b604082019050919050565b6000602082019050818103600083015262001e7a8162001e38565b9050919050565b7f4e487b7100000000000000000000000000000000000000000000000000000000600052602260045260246000fd5b6000600282049050600182168062001ec957607f821691505b6020821081141562001ee05762001edf62001e81565b5b50919050565b7f4974656d206973206675727468657220696e2074686520737570706c7920636860008201527f61696e0000000000000000000000000000000000000000000000000000000000602082015250565b600062001f4460238362001829565b915062001f518262001ee6565b604082019050919050565b6000602082019050818103600083015262001f778162001f35565b9050919050565b7f4f776e61626c653a206e6577206f776e657220697320746865207a65726f206160008201527f6464726573730000000000000000000000000000000000000000000000000000602082015250565b600062001fdc60268362001829565b915062001fe98262001f7e565b604082019050919050565b600060208201905081810360008301526200200f8162001fcd565b905091905056fe60806040523480156200001157600080fd5b5060405162000b6a38038062000b6a833981810160405281019062000037919062000150565b826000819055508160028190555083600460006101000a81548173ffffffffffffffffffffffffffffffffffffffff021916908373ffffffffffffffffffffffffffffffffffffffff1602179055508060038190555050505050620001c2565b600080fd5b600073ffffffffffffffffffffffffffffffffffffffff82169050919050565b6000620000c9826200009c565b9050919050565b6000620000dd82620000bc565b9050919050565b620000ef81620000d0565b8114620000fb57600080fd5b50565b6000815190506200010f81620000e4565b92915050565b6000819050919050565b6200012a8162000115565b81146200013657600080fd5b50565b6000815190506200014a816200011f565b92915050565b600080600080608085870312156200016d576200016c62000097565b5b60006200017d87828801620000fe565b9450506020620001908782880162000139565b9350506040620001a38782880162000139565b9250506060620001b68782880162000139565b91505092959194509250565b61099880620001d26000396000f3fe60806040526004361061004e5760003560e01c806317fc45e21461029d5780632986c0e5146102c85780633c8da588146102f357806383d12eef1461031e5780639cf78ba9146103495761029b565b3661029b5760008054600154610064919061045d565b146100a4576040517f08c379a000000000000000000000000000000000000000000000000000000000815260040161009b90610511565b60405180910390fd5b34600160008282546100b69190610560565b92505081905550600054346100cb91906105b6565b6005819055506005546003541015610118576040517f08c379a000000000000000000000000000000000000000000000000000000000815260040161010f90610659565b60405180910390fd5b6005546003600082825461012c9190610679565b925050819055506000600460009054906101000a900473ffffffffffffffffffffffffffffffffffffffff1673ffffffffffffffffffffffffffffffffffffffff163460025460055433604051602401610188939291906106fd565b6040516020818303038152906040527f74ff68b6000000000000000000000000000000000000000000000000000000007bffffffffffffffffffffffffffffffffffffffffffffffffffffffff19166020820180517bffffffffffffffffffffffffffffffffffffffffffffffffffffffff838183161783525050505060405161021291906107ae565b60006040518083038185875af1925050503d806000811461024f576040519150601f19603f3d011682016040523d82523d6000602084013e610254565b606091505b5050905080610298576040517f08c379a000000000000000000000000000000000000000000000000000000000815260040161028f90610837565b60405180910390fd5b50005b005b3480156102a957600080fd5b506102b2610372565b6040516102bf9190610857565b60405180910390f35b3480156102d457600080fd5b506102dd610378565b6040516102ea9190610857565b60405180910390f35b3480156102ff57600080fd5b5061030861037e565b6040516103159190610857565b60405180910390f35b34801561032a57600080fd5b50610333610384565b6040516103409190610857565b60405180910390f35b34801561035557600080fd5b50610370600480360381019061036b91906108a3565b61038a565b005b60035481565b60025481565b60005481565b60015481565b3373ffffffffffffffffffffffffffffffffffffffff16600460009054906101000a900473ffffffffffffffffffffffffffffffffffffffff1673ffffffffffffffffffffffffffffffffffffffff161461041a576040517f08c379a000000000000000000000000000000000000000000000000000000000815260040161041190610942565b60405180910390fd5b8060038190555050565b6000819050919050565b7f4e487b7100000000000000000000000000000000000000000000000000000000600052601260045260246000fd5b600061046882610424565b915061047383610424565b9250826104835761048261042e565b5b828206905092915050565b600082825260208201905092915050565b7f536f7272792c207061727469616c207061796d656e747320617265206e6f742060008201527f6163636570746564210000000000000000000000000000000000000000000000602082015250565b60006104fb60298361048e565b91506105068261049f565b604082019050919050565b6000602082019050818103600083015261052a816104ee565b9050919050565b7f4e487b7100000000000000000000000000000000000000000000000000000000600052601160045260246000fd5b600061056b82610424565b915061057683610424565b9250827fffffffffffffffffffffffffffffffffffffffffffffffffffffffffffffffff038211156105ab576105aa610531565b5b828201905092915050565b60006105c182610424565b91506105cc83610424565b9250826105dc576105db61042e565b5b828204905092915050565b7f536f7272792c207468657265206973206e6f7420656e6f7567682073746f636b60008201527f20746f2066756c66696c6c2074686973206f7264657200000000000000000000602082015250565b600061064360368361048e565b915061064e826105e7565b604082019050919050565b6000602082019050818103600083015261067281610636565b9050919050565b600061068482610424565b915061068f83610424565b9250828210156106a2576106a1610531565b5b828203905092915050565b6106b681610424565b82525050565b600073ffffffffffffffffffffffffffffffffffffffff82169050919050565b60006106e7826106bc565b9050919050565b6106f7816106dc565b82525050565b600060608201905061071260008301866106ad565b61071f60208301856106ad565b61072c60408301846106ee565b949350505050565b600081519050919050565b600081905092915050565b60005b8381101561076857808201518184015260208101905061074d565b83811115610777576000848401525b50505050565b600061078882610734565b610792818561073f565b93506107a281856020860161074a565b80840191505092915050565b60006107ba828461077d565b915081905092915050565b7f5061796d656e742070726f63657373696e67206661696c65642c20706c65617360008201527f6520636f6e7461637420746865206f776e657200000000000000000000000000602082015250565b600061082160338361048e565b915061082c826107c5565b604082019050919050565b6000602082019050818103600083015261085081610814565b9050919050565b600060208201905061086c60008301846106ad565b92915050565b600080fd5b61088081610424565b811461088b57600080fd5b50565b60008135905061089d81610877565b92915050565b6000602082840312156108b9576108b8610872565b5b60006108c78482850161088e565b91505092915050565b7f4f6e6c7920746865204974656d4d616e6167657220636f6e747261637420636160008201527f6e20757064617465206974656d207175616e7469747900000000000000000000602082015250565b600061092c60368361048e565b9150610937826108d0565b604082019050919050565b6000602082019050818103600083015261095b8161091f565b905091905056fea26469706673582212204c903e409c5266424201630128a20b20f76ae4e5aee67288900844a9f022c74664736f6c63430008090033a2646970667358221220e6365e055551802f9f928e8d8089d754276ef84374fd35d499c2f78d67604bf464736f6c63430008090033",
  "immutableReferences": {},
  "source": "pragma solidity 0.8.9;\r\n\r\nimport \"./ProductSale.sol\";\r\nimport \"@openzeppelin/contracts/access/Ownable.sol\";\r\n\r\n//For this contract Item refers to a single good sold,\r\n//whilst product refers to the catagory of good- in which there may be multiple individual items.\r\ncontract ItemManager is Ownable {\r\n\r\n    struct S_Product {\r\n        ProductSale _product;\r\n        //ItemManager.SupplyChainSteps _step;\r\n        string _identifier;\r\n        uint _priceInWei;\r\n        uint _quantity;\r\n        //ItemManager.ProductSteps _productStep;\r\n    }\r\n\r\n    struct Buyer_Log {\r\n        mapping(uint => Item_Payments) _transaction;\r\n        uint _buyerId; //\r\n        uint _buyerIndex; //since one customer can have multiple transactions (for the same or different products), buyerIndex catalogs these transactions.\r\n                          //This increases with each transaction and acts as the input for _transaction mapping.\r\n    }\r\n\r\n    struct Item_Payments {\r\n        uint _quantity;\r\n        ItemManager.ItemSteps _itemStep;\r\n    }\r\n\r\n    mapping(uint => S_Product) public products;\r\n    mapping(address => Buyer_Log) public paymentAuth;\r\n    uint index;\r\n    \r\n\r\n//ItemSteps tracks items, of which there may be many in a product category.\r\n//i.e. Apples (the product) of which there are 100 individual items being tracked\r\n    enum ItemSteps {Unpaid, Paid, Delivered} //removed created- allowing a quantity >1 for each item.\r\n\r\n//ProductSteps tracks the products- Products are created with a number of items for sale, once those items are bought the product is SoldOut\r\n    //enum ProductSteps {Created, SoldOut}\r\n\r\n    event ProductStep(uint _productIndex, address _address, uint qty); //uint _step removed\r\n    event ItemStep(uint _productIndex, address _buyerAddress, uint buyerIndex, uint qtyBought, uint _itemStep);\r\n\r\n    function createItem(string memory _identifier, uint _priceInWei, uint _quantity) public onlyOwner {\r\n        ProductSale product = new ProductSale(this, _priceInWei, index, _quantity);\r\n        products[index]._product = product;\r\n        products[index]._identifier = _identifier;\r\n        products[index]._priceInWei = _priceInWei;\r\n        products[index]._quantity = _quantity;\r\n        emit ProductStep(index, address(product), _quantity);\r\n        index++;\r\n    }\r\n\r\n    function triggerPayment(uint _Ind, uint qty, address buyer) public payable {\r\n        ProductSale product = products[_Ind]._product;\r\n        require(address(product) == msg.sender, \"Only items are allowed to update themselves\");\r\n        ////require(products[_Ind]._quantity >= qty, \"The quantity you have ordered exceeds the available quantity\");\r\n        paymentAuth[buyer]._transaction[paymentAuth[buyer]._buyerIndex]._itemStep = ItemSteps.Paid;\r\n        products[_Ind]._quantity -= qty;\r\n        paymentAuth[buyer]._transaction[paymentAuth[buyer]._buyerIndex]._quantity = qty;\r\n        emit ItemStep(_Ind, buyer, paymentAuth[buyer]._buyerIndex, qty, uint( paymentAuth[buyer]._transaction[paymentAuth[buyer]._buyerIndex]._itemStep)); //removed: uint(items[_index]._step)\r\n        emit ProductStep(_Ind, address(product),uint(products[_Ind]._quantity));\r\n        paymentAuth[buyer]._buyerIndex++;\r\n    }\r\n\r\n    function triggerDelivery(uint _productIndex, address buyer, uint address_index, uint buyerIndex) public onlyOwner {\r\n        require(paymentAuth[buyer]._transaction[buyerIndex]._itemStep == ItemSteps.Paid, \"Item is further in the supply chain\");\r\n        paymentAuth[buyer]._transaction[buyerIndex]._itemStep = ItemSteps.Delivered;\r\n        emit ProductStep(_productIndex, address(products[_productIndex]._product), products[_productIndex]._quantity);\r\n        emit ItemStep(_productIndex, buyer, address_index, paymentAuth[buyer]._transaction[buyerIndex]._quantity, uint(paymentAuth[buyer]._transaction[buyerIndex]._itemStep)); //removed: uint(items[_index]._step)\r\n    }\r\n\r\n    function updateQuantity(uint newQuantity, uint itemIndex) public onlyOwner returns(bool) {\r\n        products[itemIndex]._quantity = newQuantity;\r\n        (bool success, ) = address(products[itemIndex]._product).call(abi.encodeWithSignature(\"updateQty(uint256)\", newQuantity));\r\n        require(success, \"Product quantity update failed, please try again\");\r\n        return(success);\r\n    }\r\n\r\n    function getIndexCount() public view returns(uint) {\r\n        return(index);\r\n    }\r\n\r\n    function productData(uint _index) public view returns(string memory, uint, uint, address) {\r\n        return(products[_index]._identifier, products[_index]._priceInWei, products[_index]._quantity, address(products[_index]._product));\r\n    }\r\n\r\n     fallback () external payable {\r\n\r\n     }\r\n\r\n}",
  "sourcePath": "C:\\Users\\nicba\\SupplyChain\\contracts\\ItemManager.sol",
  "compiler": {
    "name": "solc",
    "version": "0.8.9+commit.e5eed63a.Emscripten.clang"
  },
  "schemaVersion": "3.4.6",
  "updatedAt": "2022-04-15T17:08:02.158Z",
  "networkType": "ethereum",
  "devdoc": {
    "kind": "dev",
    "methods": {
      "owner()": {
        "details": "Returns the address of the current owner."
      },
      "renounceOwnership()": {
        "details": "Leaves the contract without owner. It will not be possible to call `onlyOwner` functions anymore. Can only be called by the current owner. NOTE: Renouncing ownership will leave the contract without an owner, thereby removing any functionality that is only available to the owner."
      },
      "transferOwnership(address)": {
        "details": "Transfers ownership of the contract to a new account (`newOwner`). Can only be called by the current owner."
      }
    },
    "version": 1
  },
  "userdoc": {
    "kind": "user",
    "methods": {},
    "version": 1
  }
}