{
  "contractName": "ItemManager",
  "abi": [
    {
      "anonymous": false,
      "inputs": [
        {
          "indexed": false,
          "internalType": "uint256",
          "name": "_productIndex",
          "type": "uint256"
        },
        {
          "indexed": false,
          "internalType": "address",
          "name": "_buyerAddress",
          "type": "address"
        },
        {
          "indexed": false,
          "internalType": "uint256",
          "name": "buyerIndex",
          "type": "uint256"
        },
        {
          "indexed": false,
          "internalType": "uint256",
          "name": "qtyBought",
          "type": "uint256"
        },
        {
          "indexed": false,
          "internalType": "uint256",
          "name": "_itemStep",
          "type": "uint256"
        }
      ],
      "name": "ItemStep",
      "type": "event"
    },
    {
      "anonymous": false,
      "inputs": [
        {
          "indexed": true,
          "internalType": "address",
          "name": "previousOwner",
          "type": "address"
        },
        {
          "indexed": true,
          "internalType": "address",
          "name": "newOwner",
          "type": "address"
        }
      ],
      "name": "OwnershipTransferred",
      "type": "event"
    },
    {
      "anonymous": false,
      "inputs": [
        {
          "indexed": false,
          "internalType": "uint256",
          "name": "_productIndex",
          "type": "uint256"
        },
        {
          "indexed": false,
          "internalType": "address",
          "name": "_address",
          "type": "address"
        },
        {
          "indexed": false,
          "internalType": "uint256",
          "name": "qty",
          "type": "uint256"
        }
      ],
      "name": "ProductStep",
      "type": "event"
    },
    {
      "stateMutability": "payable",
      "type": "fallback",
      "payable": true
    },
    {
      "inputs": [],
      "name": "owner",
      "outputs": [
        {
          "internalType": "address",
          "name": "",
          "type": "address"
        }
      ],
      "stateMutability": "view",
      "type": "function",
      "constant": true
    },
    {
      "inputs": [
        {
          "internalType": "address",
          "name": "",
          "type": "address"
        }
      ],
      "name": "paymentAuth",
      "outputs": [
        {
          "internalType": "uint256",
          "name": "_buyerId",
          "type": "uint256"
        },
        {
          "internalType": "uint256",
          "name": "_buyerIndex",
          "type": "uint256"
        }
      ],
      "stateMutability": "view",
      "type": "function",
      "constant": true
    },
    {
      "inputs": [
        {
          "internalType": "uint256",
          "name": "",
          "type": "uint256"
        }
      ],
      "name": "products",
      "outputs": [
        {
          "internalType": "contract ProductSale",
          "name": "_product",
          "type": "address"
        },
        {
          "internalType": "string",
          "name": "_identifier",
          "type": "string"
        },
        {
          "internalType": "uint256",
          "name": "_priceInWei",
          "type": "uint256"
        },
        {
          "internalType": "uint256",
          "name": "_quantity",
          "type": "uint256"
        }
      ],
      "stateMutability": "view",
      "type": "function",
      "constant": true
    },
    {
      "inputs": [],
      "name": "renounceOwnership",
      "outputs": [],
      "stateMutability": "nonpayable",
      "type": "function"
    },
    {
      "inputs": [
        {
          "internalType": "address",
          "name": "newOwner",
          "type": "address"
        }
      ],
      "name": "transferOwnership",
      "outputs": [],
      "stateMutability": "nonpayable",
      "type": "function"
    },
    {
      "inputs": [
        {
          "internalType": "string",
          "name": "_identifier",
          "type": "string"
        },
        {
          "internalType": "uint256",
          "name": "_priceInWei",
          "type": "uint256"
        },
        {
          "internalType": "uint256",
          "name": "_quantity",
          "type": "uint256"
        }
      ],
      "name": "createItem",
      "outputs": [
        {
          "internalType": "bool",
          "name": "",
          "type": "bool"
        }
      ],
      "stateMutability": "nonpayable",
      "type": "function"
    },
    {
      "inputs": [
        {
          "internalType": "uint256",
          "name": "_Ind",
          "type": "uint256"
        },
        {
          "internalType": "uint256",
          "name": "_qty",
          "type": "uint256"
        },
        {
          "internalType": "address",
          "name": "buyer",
          "type": "address"
        }
      ],
      "name": "triggerPayment",
      "outputs": [],
      "stateMutability": "payable",
      "type": "function",
      "payable": true
    },
    {
      "inputs": [
        {
          "internalType": "uint256",
          "name": "_productIndex",
          "type": "uint256"
        },
        {
          "internalType": "address",
          "name": "buyer",
          "type": "address"
        },
        {
          "internalType": "uint256",
          "name": "address_index",
          "type": "uint256"
        },
        {
          "internalType": "uint256",
          "name": "buyerIndex",
          "type": "uint256"
        }
      ],
      "name": "triggerDelivery",
      "outputs": [],
      "stateMutability": "nonpayable",
      "type": "function"
    },
    {
      "inputs": [
        {
          "internalType": "uint256",
          "name": "newQuantity",
          "type": "uint256"
        },
        {
          "internalType": "uint256",
          "name": "itemIndex",
          "type": "uint256"
        }
      ],
      "name": "updateQuantity",
      "outputs": [
        {
          "internalType": "bool",
          "name": "",
          "type": "bool"
        }
      ],
      "stateMutability": "nonpayable",
      "type": "function"
    },
    {
      "inputs": [
        {
          "internalType": "string",
          "name": "newName",
          "type": "string"
        },
        {
          "internalType": "uint256",
          "name": "itemIndex",
          "type": "uint256"
        }
      ],
      "name": "updateName",
      "outputs": [
        {
          "internalType": "bool",
          "name": "",
          "type": "bool"
        }
      ],
      "stateMutability": "nonpayable",
      "type": "function"
    },
    {
      "inputs": [
        {
          "internalType": "uint256",
          "name": "newCost",
          "type": "uint256"
        },
        {
          "internalType": "uint256",
          "name": "itemIndex",
          "type": "uint256"
        }
      ],
      "name": "updateCost",
      "outputs": [
        {
          "internalType": "bool",
          "name": "",
          "type": "bool"
        }
      ],
      "stateMutability": "nonpayable",
      "type": "function"
    },
    {
      "inputs": [],
      "name": "getIndexCount",
      "outputs": [
        {
          "internalType": "uint256",
          "name": "",
          "type": "uint256"
        }
      ],
      "stateMutability": "view",
      "type": "function",
      "constant": true
    },
    {
      "inputs": [
        {
          "internalType": "uint256",
          "name": "_index",
          "type": "uint256"
        }
      ],
      "name": "productData",
      "outputs": [
        {
          "internalType": "string",
          "name": "",
          "type": "string"
        },
        {
          "internalType": "uint256",
          "name": "",
          "type": "uint256"
        },
        {
          "internalType": "uint256",
          "name": "",
          "type": "uint256"
        },
        {
          "internalType": "address",
          "name": "",
          "type": "address"
        }
      ],
      "stateMutability": "view",
      "type": "function",
      "constant": true
    }
  ],
  "bytecode": "0x60806040523480156200001157600080fd5b5062000032620000266200003860201b60201c565b6200004060201b60201c565b62000104565b600033905090565b60008060009054906101000a900473ffffffffffffffffffffffffffffffffffffffff169050816000806101000a81548173ffffffffffffffffffffffffffffffffffffffff021916908373ffffffffffffffffffffffffffffffffffffffff1602179055508173ffffffffffffffffffffffffffffffffffffffff168173ffffffffffffffffffffffffffffffffffffffff167f8be0079c531659141344cd1fd0a4f28419497f9722a3daafe3b4186f6b6457e060405160405180910390a35050565b61318d80620001146000396000f3fe608060405260043610620000d95760003560e01c80637ace8038116200008b578063b23f9dde1162000061578063b23f9dde14620002e5578063ca1fb7771462000313578063ec2443701462000357578063f2fde38b146200038757620000da565b80637ace803814620002295780638da5cb5b146200026e5780639f5ce910146200029e57620000da565b8063108155bc14620000dc578063353144611462000120578063715018a6146200016457806374ff68b6146200017e57806379cd4921146200019e5780637acc0b2014620001e257620000da565b5b005b348015620000e957600080fd5b50620001086004803603810190620001029190620019cf565b620003b5565b60405162000117919062001a67565b60405180910390f35b3480156200012d57600080fd5b506200014c600480360381019062000146919062001a84565b620005a4565b6040516200015b919062001a67565b60405180910390f35b3480156200017157600080fd5b506200017c620007c7565b005b6200019c600480360381019062000196919062001b30565b62000858565b005b348015620001ab57600080fd5b50620001ca6004803603810190620001c4919062001a84565b62000ce0565b604051620001d9919062001a67565b60405180910390f35b348015620001ef57600080fd5b506200020e600480360381019062000208919062001b8c565b62000f03565b60405162000220949392919062001ccd565b60405180910390f35b3480156200023657600080fd5b506200025560048036038101906200024f919062001d21565b62000fe3565b6040516200026592919062001d53565b60405180910390f35b3480156200027b57600080fd5b506200028662001007565b60405162000295919062001d91565b60405180910390f35b348015620002ab57600080fd5b50620002ca6004803603810190620002c4919062001b8c565b62001030565b604051620002dc949392919062001dae565b60405180910390f35b348015620002f257600080fd5b506200031160048036038101906200030b919062001e02565b62001155565b005b3480156200032057600080fd5b506200033f600480360381019062000339919062001e74565b620014ca565b6040516200034e919062001a67565b60405180910390f35b3480156200036457600080fd5b506200036f62001586565b6040516200037e919062001eda565b60405180910390f35b3480156200039457600080fd5b50620003b36004803603810190620003ad919062001d21565b62001590565b005b6000620003c162001694565b73ffffffffffffffffffffffffffffffffffffffff16620003e162001007565b73ffffffffffffffffffffffffffffffffffffffff16146200043a576040517f08c379a0000000000000000000000000000000000000000000000000000000008152600401620004319062001f47565b60405180910390fd5b6000308460035485604051620004509062001760565b6200045f949392919062001f8e565b604051809103906000f0801580156200047c573d6000803e3d6000fd5b5090508060016000600354815260200190815260200160002060000160006101000a81548173ffffffffffffffffffffffffffffffffffffffff021916908373ffffffffffffffffffffffffffffffffffffffff160217905550846001600060035481526020019081526020016000206001019080519060200190620005049291906200176e565b50836001600060035481526020019081526020016000206002018190555082600160006003548152602001908152602001600020600301819055507f42bf350929f0b549e4d17490f0093004ee503c65f9b3764ca4a431425d3729a36003548285604051620005769392919062001fdb565b60405180910390a160036000815480929190620005939062002047565b919050555060019150509392505050565b6000620005b062001694565b73ffffffffffffffffffffffffffffffffffffffff16620005d062001007565b73ffffffffffffffffffffffffffffffffffffffff161462000629576040517f08c379a0000000000000000000000000000000000000000000000000000000008152600401620006209062001f47565b60405180910390fd5b82600160008481526020019081526020016000206002018190555060006001600084815260200190815260200160002060000160009054906101000a900473ffffffffffffffffffffffffffffffffffffffff1673ffffffffffffffffffffffffffffffffffffffff1684604051602401620006a6919062001eda565b6040516020818303038152906040527f7da71756000000000000000000000000000000000000000000000000000000007bffffffffffffffffffffffffffffffffffffffffffffffffffffffff19166020820180517bffffffffffffffffffffffffffffffffffffffffffffffffffffffff8381831617835250505050604051620007329190620020e2565b6000604051808303816000865af19150503d806000811462000771576040519150601f19603f3d011682016040523d82523d6000602084013e62000776565b606091505b5050905080620007bd576040517f08c379a0000000000000000000000000000000000000000000000000000000008152600401620007b49062002171565b60405180910390fd5b8091505092915050565b620007d162001694565b73ffffffffffffffffffffffffffffffffffffffff16620007f162001007565b73ffffffffffffffffffffffffffffffffffffffff16146200084a576040517f08c379a0000000000000000000000000000000000000000000000000000000008152600401620008419062001f47565b60405180910390fd5b6200085660006200169c565b565b60006001600085815260200190815260200160002060000160009054906101000a900473ffffffffffffffffffffffffffffffffffffffff1690503373ffffffffffffffffffffffffffffffffffffffff168173ffffffffffffffffffffffffffffffffffffffff161462000904576040517f08c379a0000000000000000000000000000000000000000000000000000000008152600401620008fb9062002209565b60405180910390fd5b826001600086815260200190815260200160002060030154101562000960576040517f08c379a00000000000000000000000000000000000000000000000000000000081526004016200095790620022a1565b60405180910390fd5b6001600260008473ffffffffffffffffffffffffffffffffffffffff1673ffffffffffffffffffffffffffffffffffffffff1681526020019081526020016000206000016000600260008673ffffffffffffffffffffffffffffffffffffffff1673ffffffffffffffffffffffffffffffffffffffff16815260200190815260200160002060020154815260200190815260200160002060010160006101000a81548160ff0219169083600281111562000a1f5762000a1e620022c3565b5b02179055508260016000868152602001908152602001600020600301600082825462000a4c9190620022f2565b9250508190555082600260008473ffffffffffffffffffffffffffffffffffffffff1673ffffffffffffffffffffffffffffffffffffffff1681526020019081526020016000206000016000600260008673ffffffffffffffffffffffffffffffffffffffff1673ffffffffffffffffffffffffffffffffffffffff168152602001908152602001600020600201548152602001908152602001600020600001819055507f235280cce55153589b2310decf136eaaed1d4c47c6bf922abc8fd73dc10830388483600260008673ffffffffffffffffffffffffffffffffffffffff1673ffffffffffffffffffffffffffffffffffffffff1681526020019081526020016000206002015486600260008873ffffffffffffffffffffffffffffffffffffffff1673ffffffffffffffffffffffffffffffffffffffff1681526020019081526020016000206000016000600260008a73ffffffffffffffffffffffffffffffffffffffff1673ffffffffffffffffffffffffffffffffffffffff16815260200190815260200160002060020154815260200190815260200160002060010160009054906101000a900460ff16600281111562000c125762000c11620022c3565b5b60405162000c259594939291906200232d565b60405180910390a17f42bf350929f0b549e4d17490f0093004ee503c65f9b3764ca4a431425d3729a38482600160008881526020019081526020016000206003015460405162000c789392919062001fdb565b60405180910390a1600260008373ffffffffffffffffffffffffffffffffffffffff1673ffffffffffffffffffffffffffffffffffffffff168152602001908152602001600020600201600081548092919062000cd59062002047565b919050555050505050565b600062000cec62001694565b73ffffffffffffffffffffffffffffffffffffffff1662000d0c62001007565b73ffffffffffffffffffffffffffffffffffffffff161462000d65576040517f08c379a000000000000000000000000000000000000000000000000000000000815260040162000d5c9062001f47565b60405180910390fd5b82600160008481526020019081526020016000206003018190555060006001600084815260200190815260200160002060000160009054906101000a900473ffffffffffffffffffffffffffffffffffffffff1673ffffffffffffffffffffffffffffffffffffffff168460405160240162000de2919062001eda565b6040516020818303038152906040527f685c4e68000000000000000000000000000000000000000000000000000000007bffffffffffffffffffffffffffffffffffffffffffffffffffffffff19166020820180517bffffffffffffffffffffffffffffffffffffffffffffffffffffffff838183161783525050505060405162000e6e9190620020e2565b6000604051808303816000865af19150503d806000811462000ead576040519150601f19603f3d011682016040523d82523d6000602084013e62000eb2565b606091505b505090508062000ef9576040517f08c379a000000000000000000000000000000000000000000000000000000000815260040162000ef09062002171565b60405180910390fd5b8091505092915050565b60016020528060005260406000206000915090508060000160009054906101000a900473ffffffffffffffffffffffffffffffffffffffff169080600101805462000f4e90620023b9565b80601f016020809104026020016040519081016040528092919081815260200182805462000f7c90620023b9565b801562000fcd5780601f1062000fa15761010080835404028352916020019162000fcd565b820191906000526020600020905b81548152906001019060200180831162000faf57829003601f168201915b5050505050908060020154908060030154905084565b60026020528060005260406000206000915090508060010154908060020154905082565b60008060009054906101000a900473ffffffffffffffffffffffffffffffffffffffff16905090565b6060600080600060016000868152602001908152602001600020600101600160008781526020019081526020016000206002015460016000888152602001908152602001600020600301546001600089815260200190815260200160002060000160009054906101000a900473ffffffffffffffffffffffffffffffffffffffff16838054620010c090620023b9565b80601f0160208091040260200160405190810160405280929190818152602001828054620010ee90620023b9565b80156200113f5780601f1062001113576101008083540402835291602001916200113f565b820191906000526020600020905b8154815290600101906020018083116200112157829003601f168201915b5050505050935093509350935093509193509193565b6200115f62001694565b73ffffffffffffffffffffffffffffffffffffffff166200117f62001007565b73ffffffffffffffffffffffffffffffffffffffff1614620011d8576040517f08c379a0000000000000000000000000000000000000000000000000000000008152600401620011cf9062001f47565b60405180910390fd5b60016002811115620011ef57620011ee620022c3565b5b600260008573ffffffffffffffffffffffffffffffffffffffff1673ffffffffffffffffffffffffffffffffffffffff168152602001908152602001600020600001600083815260200190815260200160002060010160009054906101000a900460ff166002811115620012685762001267620022c3565b5b14620012ab576040517f08c379a0000000000000000000000000000000000000000000000000000000008152600401620012a29062002465565b60405180910390fd5b60028060008573ffffffffffffffffffffffffffffffffffffffff1673ffffffffffffffffffffffffffffffffffffffff168152602001908152602001600020600001600083815260200190815260200160002060010160006101000a81548160ff02191690836002811115620013275762001326620022c3565b5b02179055507f42bf350929f0b549e4d17490f0093004ee503c65f9b3764ca4a431425d3729a3846001600087815260200190815260200160002060000160009054906101000a900473ffffffffffffffffffffffffffffffffffffffff166001600088815260200190815260200160002060030154604051620013ad9392919062001fdb565b60405180910390a17f235280cce55153589b2310decf136eaaed1d4c47c6bf922abc8fd73dc1083038848484600260008873ffffffffffffffffffffffffffffffffffffffff1673ffffffffffffffffffffffffffffffffffffffff168152602001908152602001600020600001600086815260200190815260200160002060000154600260008973ffffffffffffffffffffffffffffffffffffffff1673ffffffffffffffffffffffffffffffffffffffff168152602001908152602001600020600001600087815260200190815260200160002060010160009054906101000a900460ff166002811115620014a957620014a8620022c3565b5b604051620014bc9594939291906200232d565b60405180910390a150505050565b6000620014d662001694565b73ffffffffffffffffffffffffffffffffffffffff16620014f662001007565b73ffffffffffffffffffffffffffffffffffffffff16146200154f576040517f08c379a0000000000000000000000000000000000000000000000000000000008152600401620015469062001f47565b60405180910390fd5b826001600084815260200190815260200160002060010190805190602001906200157b9291906200176e565b506001905092915050565b6000600354905090565b6200159a62001694565b73ffffffffffffffffffffffffffffffffffffffff16620015ba62001007565b73ffffffffffffffffffffffffffffffffffffffff161462001613576040517f08c379a00000000000000000000000000000000000000000000000000000000081526004016200160a9062001f47565b60405180910390fd5b600073ffffffffffffffffffffffffffffffffffffffff168173ffffffffffffffffffffffffffffffffffffffff16141562001686576040517f08c379a00000000000000000000000000000000000000000000000000000000081526004016200167d90620024fd565b60405180910390fd5b62001691816200169c565b50565b600033905090565b60008060009054906101000a900473ffffffffffffffffffffffffffffffffffffffff169050816000806101000a81548173ffffffffffffffffffffffffffffffffffffffff021916908373ffffffffffffffffffffffffffffffffffffffff1602179055508173ffffffffffffffffffffffffffffffffffffffff168173ffffffffffffffffffffffffffffffffffffffff167f8be0079c531659141344cd1fd0a4f28419497f9722a3daafe3b4186f6b6457e060405160405180910390a35050565b610c38806200252083390190565b8280546200177c90620023b9565b90600052602060002090601f016020900481019282620017a05760008555620017ec565b82601f10620017bb57805160ff1916838001178555620017ec565b82800160010185558215620017ec579182015b82811115620017eb578251825591602001919060010190620017ce565b5b509050620017fb9190620017ff565b5090565b5b808211156200181a57600081600090555060010162001800565b5090565b6000604051905090565b600080fd5b600080fd5b600080fd5b600080fd5b6000601f19601f8301169050919050565b7f4e487b7100000000000000000000000000000000000000000000000000000000600052604160045260246000fd5b62001887826200183c565b810181811067ffffffffffffffff82111715620018a957620018a86200184d565b5b80604052505050565b6000620018be6200181e565b9050620018cc82826200187c565b919050565b600067ffffffffffffffff821115620018ef57620018ee6200184d565b5b620018fa826200183c565b9050602081019050919050565b82818337600083830152505050565b60006200192d6200192784620018d1565b620018b2565b9050828152602081018484840111156200194c576200194b62001837565b5b6200195984828562001907565b509392505050565b600082601f83011262001979576200197862001832565b5b81356200198b84826020860162001916565b91505092915050565b6000819050919050565b620019a98162001994565b8114620019b557600080fd5b50565b600081359050620019c9816200199e565b92915050565b600080600060608486031215620019eb57620019ea62001828565b5b600084013567ffffffffffffffff81111562001a0c5762001a0b6200182d565b5b62001a1a8682870162001961565b935050602062001a2d86828701620019b8565b925050604062001a4086828701620019b8565b9150509250925092565b60008115159050919050565b62001a618162001a4a565b82525050565b600060208201905062001a7e600083018462001a56565b92915050565b6000806040838503121562001a9e5762001a9d62001828565b5b600062001aae85828601620019b8565b925050602062001ac185828601620019b8565b9150509250929050565b600073ffffffffffffffffffffffffffffffffffffffff82169050919050565b600062001af88262001acb565b9050919050565b62001b0a8162001aeb565b811462001b1657600080fd5b50565b60008135905062001b2a8162001aff565b92915050565b60008060006060848603121562001b4c5762001b4b62001828565b5b600062001b5c86828701620019b8565b935050602062001b6f86828701620019b8565b925050604062001b828682870162001b19565b9150509250925092565b60006020828403121562001ba55762001ba462001828565b5b600062001bb584828501620019b8565b91505092915050565b6000819050919050565b600062001be962001be362001bdd8462001acb565b62001bbe565b62001acb565b9050919050565b600062001bfd8262001bc8565b9050919050565b600062001c118262001bf0565b9050919050565b62001c238162001c04565b82525050565b600081519050919050565b600082825260208201905092915050565b60005b8381101562001c6557808201518184015260208101905062001c48565b8381111562001c75576000848401525b50505050565b600062001c888262001c29565b62001c94818562001c34565b935062001ca681856020860162001c45565b62001cb1816200183c565b840191505092915050565b62001cc78162001994565b82525050565b600060808201905062001ce4600083018762001c18565b818103602083015262001cf8818662001c7b565b905062001d09604083018562001cbc565b62001d18606083018462001cbc565b95945050505050565b60006020828403121562001d3a5762001d3962001828565b5b600062001d4a8482850162001b19565b91505092915050565b600060408201905062001d6a600083018562001cbc565b62001d79602083018462001cbc565b9392505050565b62001d8b8162001aeb565b82525050565b600060208201905062001da8600083018462001d80565b92915050565b6000608082019050818103600083015262001dca818762001c7b565b905062001ddb602083018662001cbc565b62001dea604083018562001cbc565b62001df9606083018462001d80565b95945050505050565b6000806000806080858703121562001e1f5762001e1e62001828565b5b600062001e2f87828801620019b8565b945050602062001e428782880162001b19565b935050604062001e5587828801620019b8565b925050606062001e6887828801620019b8565b91505092959194509250565b6000806040838503121562001e8e5762001e8d62001828565b5b600083013567ffffffffffffffff81111562001eaf5762001eae6200182d565b5b62001ebd8582860162001961565b925050602062001ed085828601620019b8565b9150509250929050565b600060208201905062001ef1600083018462001cbc565b92915050565b7f4f776e61626c653a2063616c6c6572206973206e6f7420746865206f776e6572600082015250565b600062001f2f60208362001c34565b915062001f3c8262001ef7565b602082019050919050565b6000602082019050818103600083015262001f628162001f20565b9050919050565b600062001f768262001bf0565b9050919050565b62001f888162001f69565b82525050565b600060808201905062001fa5600083018762001f7d565b62001fb4602083018662001cbc565b62001fc3604083018562001cbc565b62001fd2606083018462001cbc565b95945050505050565b600060608201905062001ff2600083018662001cbc565b62002001602083018562001d80565b62002010604083018462001cbc565b949350505050565b7f4e487b7100000000000000000000000000000000000000000000000000000000600052601160045260246000fd5b6000620020548262001994565b91507fffffffffffffffffffffffffffffffffffffffffffffffffffffffffffffffff8214156200208a576200208962002018565b5b600182019050919050565b600081519050919050565b600081905092915050565b6000620020b88262002095565b620020c48185620020a0565b9350620020d681856020860162001c45565b80840191505092915050565b6000620020f08284620020ab565b915081905092915050565b7f50726f64756374207175616e7469747920757064617465206661696c65642c2060008201527f706c656173652074727920616761696e00000000000000000000000000000000602082015250565b60006200215960308362001c34565b91506200216682620020fb565b604082019050919050565b600060208201905081810360008301526200218c816200214a565b9050919050565b7f4f6e6c79206974656d732061726520616c6c6f77656420746f2075706461746560008201527f207468656d73656c766573000000000000000000000000000000000000000000602082015250565b6000620021f1602b8362001c34565b9150620021fe8262002193565b604082019050919050565b600060208201905081810360008301526200222481620021e2565b9050919050565b7f546865207175616e7469747920796f752068617665206f72646572656420657860008201527f63656564732074686520617661696c61626c65207175616e7469747900000000602082015250565b600062002289603c8362001c34565b915062002296826200222b565b604082019050919050565b60006020820190508181036000830152620022bc816200227a565b9050919050565b7f4e487b7100000000000000000000000000000000000000000000000000000000600052602160045260246000fd5b6000620022ff8262001994565b91506200230c8362001994565b92508282101562002322576200232162002018565b5b828203905092915050565b600060a08201905062002344600083018862001cbc565b62002353602083018762001d80565b62002362604083018662001cbc565b62002371606083018562001cbc565b62002380608083018462001cbc565b9695505050505050565b7f4e487b7100000000000000000000000000000000000000000000000000000000600052602260045260246000fd5b60006002820490506001821680620023d257607f821691505b60208210811415620023e957620023e86200238a565b5b50919050565b7f4974656d206973206675727468657220696e2074686520737570706c7920636860008201527f61696e0000000000000000000000000000000000000000000000000000000000602082015250565b60006200244d60238362001c34565b91506200245a82620023ef565b604082019050919050565b6000602082019050818103600083015262002480816200243e565b9050919050565b7f4f776e61626c653a206e6577206f776e657220697320746865207a65726f206160008201527f6464726573730000000000000000000000000000000000000000000000000000602082015250565b6000620024e560268362001c34565b9150620024f28262002487565b604082019050919050565b600060208201905081810360008301526200251881620024d6565b905091905056fe60806040523480156200001157600080fd5b5060405162000c3838038062000c38833981810160405281019062000037919062000150565b826000819055508160028190555083600460006101000a81548173ffffffffffffffffffffffffffffffffffffffff021916908373ffffffffffffffffffffffffffffffffffffffff1602179055508060038190555050505050620001c2565b600080fd5b600073ffffffffffffffffffffffffffffffffffffffff82169050919050565b6000620000c9826200009c565b9050919050565b6000620000dd82620000bc565b9050919050565b620000ef81620000d0565b8114620000fb57600080fd5b50565b6000815190506200010f81620000e4565b92915050565b6000819050919050565b6200012a8162000115565b81146200013657600080fd5b50565b6000815190506200014a816200011f565b92915050565b600080600080608085870312156200016d576200016c62000097565b5b60006200017d87828801620000fe565b9450506020620001908782880162000139565b9350506040620001a38782880162000139565b9250506060620001b68782880162000139565b91505092959194509250565b610a6680620001d26000396000f3fe6080604052600436106100595760003560e01c806317fc45e2146102a85780632986c0e5146102d35780633c8da588146102fe578063685c4e68146103295780637da717561461035257806383d12eef1461037b576102a6565b366102a6576000805460015461006f919061052b565b146100af576040517f08c379a00000000000000000000000000000000000000000000000000000000081526004016100a6906105df565b60405180910390fd5b34600160008282546100c1919061062e565b92505081905550600054346100d69190610684565b6005819055506005546003541015610123576040517f08c379a000000000000000000000000000000000000000000000000000000000815260040161011a90610727565b60405180910390fd5b600554600360008282546101379190610747565b925050819055506000600460009054906101000a900473ffffffffffffffffffffffffffffffffffffffff1673ffffffffffffffffffffffffffffffffffffffff163460025460055433604051602401610193939291906107cb565b6040516020818303038152906040527f74ff68b6000000000000000000000000000000000000000000000000000000007bffffffffffffffffffffffffffffffffffffffffffffffffffffffff19166020820180517bffffffffffffffffffffffffffffffffffffffffffffffffffffffff838183161783525050505060405161021d919061087c565b60006040518083038185875af1925050503d806000811461025a576040519150601f19603f3d011682016040523d82523d6000602084013e61025f565b606091505b50509050806102a3576040517f08c379a000000000000000000000000000000000000000000000000000000000815260040161029a90610905565b60405180910390fd5b50005b005b3480156102b457600080fd5b506102bd6103a6565b6040516102ca9190610925565b60405180910390f35b3480156102df57600080fd5b506102e86103ac565b6040516102f59190610925565b60405180910390f35b34801561030a57600080fd5b506103136103b2565b6040516103209190610925565b60405180910390f35b34801561033557600080fd5b50610350600480360381019061034b9190610971565b6103b8565b005b34801561035e57600080fd5b5061037960048036038101906103749190610971565b610452565b005b34801561038757600080fd5b506103906104ec565b60405161039d9190610925565b60405180910390f35b60035481565b60025481565b60005481565b3373ffffffffffffffffffffffffffffffffffffffff16600460009054906101000a900473ffffffffffffffffffffffffffffffffffffffff1673ffffffffffffffffffffffffffffffffffffffff1614610448576040517f08c379a000000000000000000000000000000000000000000000000000000000815260040161043f90610a10565b60405180910390fd5b8060038190555050565b3373ffffffffffffffffffffffffffffffffffffffff16600460009054906101000a900473ffffffffffffffffffffffffffffffffffffffff1673ffffffffffffffffffffffffffffffffffffffff16146104e2576040517f08c379a00000000000000000000000000000000000000000000000000000000081526004016104d990610a10565b60405180910390fd5b8060008190555050565b60015481565b6000819050919050565b7f4e487b7100000000000000000000000000000000000000000000000000000000600052601260045260246000fd5b6000610536826104f2565b9150610541836104f2565b925082610551576105506104fc565b5b828206905092915050565b600082825260208201905092915050565b7f536f7272792c207061727469616c207061796d656e747320617265206e6f742060008201527f6163636570746564210000000000000000000000000000000000000000000000602082015250565b60006105c960298361055c565b91506105d48261056d565b604082019050919050565b600060208201905081810360008301526105f8816105bc565b9050919050565b7f4e487b7100000000000000000000000000000000000000000000000000000000600052601160045260246000fd5b6000610639826104f2565b9150610644836104f2565b9250827fffffffffffffffffffffffffffffffffffffffffffffffffffffffffffffffff03821115610679576106786105ff565b5b828201905092915050565b600061068f826104f2565b915061069a836104f2565b9250826106aa576106a96104fc565b5b828204905092915050565b7f536f7272792c207468657265206973206e6f7420656e6f7567682073746f636b60008201527f20746f2066756c66696c6c2074686973206f7264657200000000000000000000602082015250565b600061071160368361055c565b915061071c826106b5565b604082019050919050565b6000602082019050818103600083015261074081610704565b9050919050565b6000610752826104f2565b915061075d836104f2565b9250828210156107705761076f6105ff565b5b828203905092915050565b610784816104f2565b82525050565b600073ffffffffffffffffffffffffffffffffffffffff82169050919050565b60006107b58261078a565b9050919050565b6107c5816107aa565b82525050565b60006060820190506107e0600083018661077b565b6107ed602083018561077b565b6107fa60408301846107bc565b949350505050565b600081519050919050565b600081905092915050565b60005b8381101561083657808201518184015260208101905061081b565b83811115610845576000848401525b50505050565b600061085682610802565b610860818561080d565b9350610870818560208601610818565b80840191505092915050565b6000610888828461084b565b915081905092915050565b7f5061796d656e742070726f63657373696e67206661696c65642c20706c65617360008201527f6520636f6e7461637420746865206f776e657200000000000000000000000000602082015250565b60006108ef60338361055c565b91506108fa82610893565b604082019050919050565b6000602082019050818103600083015261091e816108e2565b9050919050565b600060208201905061093a600083018461077b565b92915050565b600080fd5b61094e816104f2565b811461095957600080fd5b50565b60008135905061096b81610945565b92915050565b60006020828403121561098757610986610940565b5b60006109958482850161095c565b91505092915050565b7f4f6e6c7920746865204974656d4d616e6167657220636f6e747261637420636160008201527f6e20757064617465206974656d207175616e7469747900000000000000000000602082015250565b60006109fa60368361055c565b9150610a058261099e565b604082019050919050565b60006020820190508181036000830152610a29816109ed565b905091905056fea2646970667358221220d72ccbd20e5e8c2f86041d6e4a34224846d79628e15bc5bd6772b915422721a264736f6c63430008090033a26469706673582212200bd60df150c6c9dda6a2d124281737863406eb99f8920846ce4d77880f15068e64736f6c63430008090033",
  "immutableReferences": {},
  "source": "pragma solidity 0.8.9;\r\n\r\nimport \"./ProductSale.sol\";\r\nimport \"@openzeppelin/contracts/access/Ownable.sol\";\r\n\r\n//For this contract Item refers to a single good sold,\r\n//whilst product refers to the catagory of good- in which there may be multiple individual items.\r\ncontract ItemManager is Ownable {\r\n\r\n    struct S_Product {\r\n        ProductSale _product;\r\n        //ItemManager.SupplyChainSteps _step;\r\n        string _identifier;\r\n        uint _priceInWei;\r\n        uint _quantity;\r\n        //ItemManager.ProductSteps _productStep;\r\n    }\r\n\r\n    struct Buyer_Log {\r\n        mapping(uint => Item_Payments) _transaction;\r\n        uint _buyerId; //\r\n        uint _buyerIndex; //since one customer can have multiple transactions (for the same or different products), buyerIndex catalogs these transactions.\r\n                          //This increases with each transaction and acts as the input for _transaction mapping.\r\n    }\r\n\r\n    struct Item_Payments {\r\n        uint _quantity;\r\n        ItemManager.ItemSteps _itemStep;\r\n    }\r\n\r\n    mapping(uint => S_Product) public products;\r\n    mapping(address => Buyer_Log) public paymentAuth;\r\n    uint index;\r\n    \r\n\r\n//ItemSteps tracks items, of which there may be many in a product category.\r\n//i.e. Apples (the product) of which there are 100 individual items being tracked\r\n    enum ItemSteps {Unpaid, Paid, Delivered} //removed created- allowing a quantity >1 for each item.\r\n\r\n//ProductSteps tracks the products- Products are created with a number of items for sale, once those items are bought the product is SoldOut\r\n    //enum ProductSteps {Created, SoldOut}\r\n\r\n    event ProductStep(uint _productIndex, address _address, uint qty); //uint _step removed\r\n    event ItemStep(uint _productIndex, address _buyerAddress, uint buyerIndex, uint qtyBought, uint _itemStep);\r\n\r\n    function createItem(string memory _identifier, uint _priceInWei, uint _quantity) public onlyOwner returns(bool){\r\n        ProductSale product = new ProductSale(this, _priceInWei, index, _quantity);\r\n        products[index]._product = product;\r\n        products[index]._identifier = _identifier;\r\n        products[index]._priceInWei = _priceInWei;\r\n        products[index]._quantity = _quantity;\r\n        emit ProductStep(index, address(product), _quantity);\r\n        index++;\r\n        return(true);\r\n    }\r\n\r\n    function triggerPayment(uint _Ind, uint _qty, address buyer) public payable {\r\n        ProductSale product = products[_Ind]._product;\r\n        require(address(product) == msg.sender, \"Only items are allowed to update themselves\");\r\n        require(products[_Ind]._quantity >= _qty, \"The quantity you have ordered exceeds the available quantity\");\r\n        paymentAuth[buyer]._transaction[paymentAuth[buyer]._buyerIndex]._itemStep = ItemSteps.Paid;\r\n        products[_Ind]._quantity -= _qty;\r\n        paymentAuth[buyer]._transaction[paymentAuth[buyer]._buyerIndex]._quantity = _qty;\r\n        emit ItemStep(_Ind, buyer, paymentAuth[buyer]._buyerIndex, _qty, uint( paymentAuth[buyer]._transaction[paymentAuth[buyer]._buyerIndex]._itemStep)); //removed: uint(items[_index]._step)\r\n        emit ProductStep(_Ind, address(product),uint(products[_Ind]._quantity));\r\n        paymentAuth[buyer]._buyerIndex++;\r\n    }\r\n\r\n    function triggerDelivery(uint _productIndex, address buyer, uint address_index, uint buyerIndex) public onlyOwner {\r\n        require(paymentAuth[buyer]._transaction[buyerIndex]._itemStep == ItemSteps.Paid, \"Item is further in the supply chain\");\r\n        paymentAuth[buyer]._transaction[buyerIndex]._itemStep = ItemSteps.Delivered;\r\n        emit ProductStep(_productIndex, address(products[_productIndex]._product), products[_productIndex]._quantity);\r\n        emit ItemStep(_productIndex, buyer, address_index, paymentAuth[buyer]._transaction[buyerIndex]._quantity, uint(paymentAuth[buyer]._transaction[buyerIndex]._itemStep)); //removed: uint(items[_index]._step)\r\n    }\r\n\r\n    function updateQuantity(uint newQuantity, uint itemIndex) public onlyOwner returns(bool) {\r\n        products[itemIndex]._quantity = newQuantity;\r\n        (bool success, ) = address(products[itemIndex]._product).call(abi.encodeWithSignature(\"update_Qty(uint256)\",newQuantity));\r\n        require(success, \"Product quantity update failed, please try again\");\r\n        return(success);\r\n    }\r\n\r\n    function updateName(string memory newName, uint itemIndex) public onlyOwner returns(bool) {\r\n        products[itemIndex]._identifier = newName;\r\n        return(true);\r\n    }\r\n\r\n    function updateCost(uint newCost, uint itemIndex) public onlyOwner returns(bool) {\r\n        products[itemIndex]._priceInWei = newCost;\r\n        (bool success, ) = address(products[itemIndex]._product).call(abi.encodeWithSignature(\"update_Cost(uint256)\",newCost));\r\n        require(success, \"Product quantity update failed, please try again\");\r\n        return(success);\r\n    }\r\n\r\n    function getIndexCount() public view returns(uint) {\r\n        return(index);\r\n    }\r\n\r\n    function productData(uint _index) public view returns(string memory, uint, uint, address) {\r\n        return(products[_index]._identifier, products[_index]._priceInWei, products[_index]._quantity, address(products[_index]._product));\r\n    }\r\n\r\n     fallback () external payable {\r\n\r\n     }\r\n\r\n}",
  "sourcePath": "C:\\Users\\nicba\\SupplyChain\\contracts\\ItemManager.sol",
  "compiler": {
    "name": "solc",
    "version": "0.8.9+commit.e5eed63a.Emscripten.clang"
  },
  "schemaVersion": "3.4.6",
  "updatedAt": "2022-04-17T19:45:33.058Z",
  "networkType": "ethereum",
  "devdoc": {
    "kind": "dev",
    "methods": {
      "owner()": {
        "details": "Returns the address of the current owner."
      },
      "renounceOwnership()": {
        "details": "Leaves the contract without owner. It will not be possible to call `onlyOwner` functions anymore. Can only be called by the current owner. NOTE: Renouncing ownership will leave the contract without an owner, thereby removing any functionality that is only available to the owner."
      },
      "transferOwnership(address)": {
        "details": "Transfers ownership of the contract to a new account (`newOwner`). Can only be called by the current owner."
      }
    },
    "version": 1
  },
  "userdoc": {
    "kind": "user",
    "methods": {},
    "version": 1
  }
}