{
  "contractName": "ItemManager",
  "abi": [
    {
      "anonymous": false,
      "inputs": [
        {
          "indexed": false,
          "internalType": "uint256",
          "name": "_productIndex",
          "type": "uint256"
        },
        {
          "indexed": false,
          "internalType": "address",
          "name": "_buyerAddress",
          "type": "address"
        },
        {
          "indexed": false,
          "internalType": "uint256",
          "name": "_addressIndex",
          "type": "uint256"
        },
        {
          "indexed": false,
          "internalType": "uint256",
          "name": "qtyBought",
          "type": "uint256"
        },
        {
          "indexed": false,
          "internalType": "uint256",
          "name": "_itemStep",
          "type": "uint256"
        }
      ],
      "name": "ItemStep",
      "type": "event"
    },
    {
      "anonymous": false,
      "inputs": [
        {
          "indexed": true,
          "internalType": "address",
          "name": "previousOwner",
          "type": "address"
        },
        {
          "indexed": true,
          "internalType": "address",
          "name": "newOwner",
          "type": "address"
        }
      ],
      "name": "OwnershipTransferred",
      "type": "event"
    },
    {
      "anonymous": false,
      "inputs": [
        {
          "indexed": false,
          "internalType": "uint256",
          "name": "_productIndex",
          "type": "uint256"
        },
        {
          "indexed": false,
          "internalType": "address",
          "name": "_address",
          "type": "address"
        },
        {
          "indexed": false,
          "internalType": "uint256",
          "name": "qty",
          "type": "uint256"
        },
        {
          "indexed": false,
          "internalType": "uint256",
          "name": "_step",
          "type": "uint256"
        }
      ],
      "name": "ProductStep",
      "type": "event"
    },
    {
      "inputs": [],
      "name": "owner",
      "outputs": [
        {
          "internalType": "address",
          "name": "",
          "type": "address"
        }
      ],
      "stateMutability": "view",
      "type": "function",
      "constant": true
    },
    {
      "inputs": [
        {
          "internalType": "address",
          "name": "",
          "type": "address"
        }
      ],
      "name": "paymentAuth",
      "outputs": [
        {
          "internalType": "uint256",
          "name": "_addressIndex",
          "type": "uint256"
        }
      ],
      "stateMutability": "view",
      "type": "function",
      "constant": true
    },
    {
      "inputs": [
        {
          "internalType": "uint256",
          "name": "",
          "type": "uint256"
        }
      ],
      "name": "products",
      "outputs": [
        {
          "internalType": "contract ProductSale",
          "name": "_product",
          "type": "address"
        },
        {
          "internalType": "string",
          "name": "_identifier",
          "type": "string"
        },
        {
          "internalType": "uint256",
          "name": "_priceInWei",
          "type": "uint256"
        },
        {
          "internalType": "uint256",
          "name": "_quantity",
          "type": "uint256"
        },
        {
          "internalType": "enum ItemManager.ProductSteps",
          "name": "_productStep",
          "type": "uint8"
        }
      ],
      "stateMutability": "view",
      "type": "function",
      "constant": true
    },
    {
      "inputs": [],
      "name": "renounceOwnership",
      "outputs": [],
      "stateMutability": "nonpayable",
      "type": "function"
    },
    {
      "inputs": [
        {
          "internalType": "address",
          "name": "newOwner",
          "type": "address"
        }
      ],
      "name": "transferOwnership",
      "outputs": [],
      "stateMutability": "nonpayable",
      "type": "function"
    },
    {
      "inputs": [
        {
          "internalType": "string",
          "name": "_identifier",
          "type": "string"
        },
        {
          "internalType": "uint256",
          "name": "_priceInWei",
          "type": "uint256"
        },
        {
          "internalType": "uint256",
          "name": "_quantity",
          "type": "uint256"
        }
      ],
      "name": "createItem",
      "outputs": [],
      "stateMutability": "nonpayable",
      "type": "function"
    },
    {
      "inputs": [
        {
          "internalType": "uint256",
          "name": "_productIndex",
          "type": "uint256"
        },
        {
          "internalType": "uint256",
          "name": "qty",
          "type": "uint256"
        },
        {
          "internalType": "address",
          "name": "buyer",
          "type": "address"
        }
      ],
      "name": "triggerPayment",
      "outputs": [],
      "stateMutability": "payable",
      "type": "function",
      "payable": true
    },
    {
      "inputs": [
        {
          "internalType": "uint256",
          "name": "_productIndex",
          "type": "uint256"
        },
        {
          "internalType": "address",
          "name": "buyer",
          "type": "address"
        },
        {
          "internalType": "uint256",
          "name": "address_index",
          "type": "uint256"
        }
      ],
      "name": "triggerDelivery",
      "outputs": [],
      "stateMutability": "nonpayable",
      "type": "function"
    },
    {
      "inputs": [
        {
          "internalType": "uint256",
          "name": "newQuantity",
          "type": "uint256"
        },
        {
          "internalType": "uint256",
          "name": "itemIndex",
          "type": "uint256"
        }
      ],
      "name": "updateQuantity",
      "outputs": [
        {
          "internalType": "bool",
          "name": "",
          "type": "bool"
        }
      ],
      "stateMutability": "nonpayable",
      "type": "function"
    },
    {
      "inputs": [],
      "name": "getIndexCount",
      "outputs": [
        {
          "internalType": "uint256",
          "name": "",
          "type": "uint256"
        }
      ],
      "stateMutability": "view",
      "type": "function",
      "constant": true
    },
    {
      "inputs": [
        {
          "internalType": "uint256",
          "name": "_index",
          "type": "uint256"
        }
      ],
      "name": "productData",
      "outputs": [
        {
          "internalType": "string",
          "name": "",
          "type": "string"
        },
        {
          "internalType": "uint256",
          "name": "",
          "type": "uint256"
        },
        {
          "internalType": "uint256",
          "name": "",
          "type": "uint256"
        }
      ],
      "stateMutability": "view",
      "type": "function",
      "constant": true
    }
  ],
  "bytecode": "0x60806040523480156200001157600080fd5b5062000032620000266200003860201b60201c565b6200004060201b60201c565b62000104565b600033905090565b60008060009054906101000a900473ffffffffffffffffffffffffffffffffffffffff169050816000806101000a81548173ffffffffffffffffffffffffffffffffffffffff021916908373ffffffffffffffffffffffffffffffffffffffff1602179055508173ffffffffffffffffffffffffffffffffffffffff168173ffffffffffffffffffffffffffffffffffffffff167f8be0079c531659141344cd1fd0a4f28419497f9722a3daafe3b4186f6b6457e060405160405180910390a35050565b61327e80620001146000396000f3fe608060405260043610620000aa5760003560e01c80637acc0b20116200006d5780637acc0b2014620001895780637ace803814620001d15780638da5cb5b14620002155780639f5ce9101462000245578063ec244370146200028b578063f2fde38b14620002bb57620000aa565b8063108155bc14620000af5780633c3e36d614620000dd578063715018a6146200010b57806374ff68b6146200012557806379cd49211462000145575b600080fd5b348015620000bc57600080fd5b50620000db6004803603810190620000d5919062001967565b620002e9565b005b348015620000ea57600080fd5b5062000109600480360381019062000103919062001a47565b62000550565b005b3480156200011857600080fd5b506200012362000976565b005b6200014360048036038101906200013d919062001aa3565b62000a07565b005b3480156200015257600080fd5b506200017160048036038101906200016b919062001aff565b620010d7565b60405162000180919062001b63565b60405180910390f35b3480156200019657600080fd5b50620001b56004803603810190620001af919062001b80565b620012fa565b604051620001c895949392919062001d41565b60405180910390f35b348015620001de57600080fd5b50620001fd6004803603810190620001f7919062001da5565b620013ed565b6040516200020c919062001dd7565b60405180910390f35b3480156200022257600080fd5b506200022d6200140b565b6040516200023c919062001e05565b60405180910390f35b3480156200025257600080fd5b506200027160048036038101906200026b919062001b80565b62001434565b604051620002829392919062001e22565b60405180910390f35b3480156200029857600080fd5b50620002a36200151e565b604051620002b2919062001dd7565b60405180910390f35b348015620002c857600080fd5b50620002e76004803603810190620002e1919062001da5565b62001528565b005b620002f36200162c565b73ffffffffffffffffffffffffffffffffffffffff16620003136200140b565b73ffffffffffffffffffffffffffffffffffffffff16146200036c576040517f08c379a0000000000000000000000000000000000000000000000000000000008152600401620003639062001eb6565b60405180910390fd5b60003083600354846040516200038290620016f8565b62000391949392919062001f11565b604051809103906000f080158015620003ae573d6000803e3d6000fd5b5090508060016000600354815260200190815260200160002060000160006101000a81548173ffffffffffffffffffffffffffffffffffffffff021916908373ffffffffffffffffffffffffffffffffffffffff160217905550600060016000600354815260200190815260200160002060040160006101000a81548160ff0219169083600181111562000447576200044662001cc1565b5b02179055508360016000600354815260200190815260200160002060010190805190602001906200047a92919062001706565b50826001600060035481526020019081526020016000206002018190555081600160006003548152602001908152602001600020600301819055507fcb9061982f2a0ca7ce09c1c19c8f10cb3fd8b2c34c924179a1f38842fd55b968600354828460016000600354815260200190815260200160002060040160009054906101000a900460ff16600181111562000516576200051562001cc1565b5b60405162000528949392919062001f5e565b60405180910390a160036000815480929190620005459062001fda565b919050555050505050565b6200055a6200162c565b73ffffffffffffffffffffffffffffffffffffffff166200057a6200140b565b73ffffffffffffffffffffffffffffffffffffffff1614620005d3576040517f08c379a0000000000000000000000000000000000000000000000000000000008152600401620005ca9062001eb6565b60405180910390fd5b60016002811115620005ea57620005e962001cc1565b5b600260008473ffffffffffffffffffffffffffffffffffffffff1673ffffffffffffffffffffffffffffffffffffffff168152602001908152602001600020600201600083815260200190815260200160002060009054906101000a900460ff16600281111562000660576200065f62001cc1565b5b14620006a3576040517f08c379a00000000000000000000000000000000000000000000000000000000081526004016200069a906200209e565b60405180910390fd5b60028060008473ffffffffffffffffffffffffffffffffffffffff1673ffffffffffffffffffffffffffffffffffffffff168152602001908152602001600020600201600083815260200190815260200160002060006101000a81548160ff021916908360028111156200071c576200071b62001cc1565b5b02179055507fcb9061982f2a0ca7ce09c1c19c8f10cb3fd8b2c34c924179a1f38842fd55b968836001600086815260200190815260200160002060000160009054906101000a900473ffffffffffffffffffffffffffffffffffffffff1660016000878152602001908152602001600020600301546001600088815260200190815260200160002060040160009054906101000a900460ff166001811115620007ca57620007c962001cc1565b5b604051620007dc949392919062001f5e565b60405180910390a17f235280cce55153589b2310decf136eaaed1d4c47c6bf922abc8fd73dc1083038838383600260008773ffffffffffffffffffffffffffffffffffffffff1673ffffffffffffffffffffffffffffffffffffffff1681526020019081526020016000206002016000600260008973ffffffffffffffffffffffffffffffffffffffff1673ffffffffffffffffffffffffffffffffffffffff16815260200190815260200160002060010154815260200190815260200160002060009054906101000a900460ff166002811115620008c057620008bf62001cc1565b5b600260008873ffffffffffffffffffffffffffffffffffffffff1673ffffffffffffffffffffffffffffffffffffffff1681526020019081526020016000206000016000600260008a73ffffffffffffffffffffffffffffffffffffffff1673ffffffffffffffffffffffffffffffffffffffff1681526020019081526020016000206001015481526020019081526020016000205460405162000969959493929190620020c0565b60405180910390a1505050565b620009806200162c565b73ffffffffffffffffffffffffffffffffffffffff16620009a06200140b565b73ffffffffffffffffffffffffffffffffffffffff1614620009f9576040517f08c379a0000000000000000000000000000000000000000000000000000000008152600401620009f09062001eb6565b60405180910390fd5b62000a05600062001634565b565b60006001600085815260200190815260200160002060000160009054906101000a900473ffffffffffffffffffffffffffffffffffffffff1690503373ffffffffffffffffffffffffffffffffffffffff168173ffffffffffffffffffffffffffffffffffffffff161462000ab3576040517f08c379a000000000000000000000000000000000000000000000000000000000815260040162000aaa9062002193565b60405180910390fd5b348173ffffffffffffffffffffffffffffffffffffffff16633c8da5886040518163ffffffff1660e01b815260040160206040518083038186803b15801562000afb57600080fd5b505afa15801562000b10573d6000803e3d6000fd5b505050506040513d601f19601f8201168201806040525081019062000b369190620021cc565b1462000b79576040517f08c379a000000000000000000000000000000000000000000000000000000000815260040162000b70906200224e565b60405180910390fd5b8260016000868152602001908152602001600020600301541015801562000bb6575060006001600086815260200190815260200160002060030154115b62000bf8576040517f08c379a000000000000000000000000000000000000000000000000000000000815260040162000bef90620022e6565b60405180910390fd5b60018081111562000c0e5762000c0d62001cc1565b5b6001600086815260200190815260200160002060040160009054906101000a900460ff16600181111562000c475762000c4662001cc1565b5b141562000c8b576040517f08c379a000000000000000000000000000000000000000000000000000000000815260040162000c8290620023a4565b60405180910390fd5b6001600260008473ffffffffffffffffffffffffffffffffffffffff1673ffffffffffffffffffffffffffffffffffffffff1681526020019081526020016000206002016000600260008673ffffffffffffffffffffffffffffffffffffffff1673ffffffffffffffffffffffffffffffffffffffff16815260200190815260200160002060010154815260200190815260200160002060006101000a81548160ff0219169083600281111562000d475762000d4662001cc1565b5b02179055508260016000868152602001908152602001600020600301600082825462000d749190620023c6565b9250508190555082600260008473ffffffffffffffffffffffffffffffffffffffff1673ffffffffffffffffffffffffffffffffffffffff1681526020019081526020016000206000016000600260008673ffffffffffffffffffffffffffffffffffffffff1673ffffffffffffffffffffffffffffffffffffffff168152602001908152602001600020600101548152602001908152602001600020819055507f235280cce55153589b2310decf136eaaed1d4c47c6bf922abc8fd73dc10830388483600260008673ffffffffffffffffffffffffffffffffffffffff1673ffffffffffffffffffffffffffffffffffffffff16815260200190815260200160002060010154600260008773ffffffffffffffffffffffffffffffffffffffff1673ffffffffffffffffffffffffffffffffffffffff1681526020019081526020016000206002016000600260008973ffffffffffffffffffffffffffffffffffffffff1673ffffffffffffffffffffffffffffffffffffffff16815260200190815260200160002060010154815260200190815260200160002060009054906101000a900460ff16600281111562000f335762000f3262001cc1565b5b8760405162000f47959493929190620020c0565b60405180910390a17fcb9061982f2a0ca7ce09c1c19c8f10cb3fd8b2c34c924179a1f38842fd55b968846001600087815260200190815260200160002060000160009054906101000a900473ffffffffffffffffffffffffffffffffffffffff1660016000888152602001908152602001600020600301546001600089815260200190815260200160002060040160009054906101000a900460ff16600181111562000ff85762000ff762001cc1565b5b6040516200100a949392919062001f5e565b60405180910390a1600260008373ffffffffffffffffffffffffffffffffffffffff1673ffffffffffffffffffffffffffffffffffffffff1681526020019081526020016000206001016000815480929190620010679062001fda565b9190505550600060016000868152602001908152602001600020600301541415620010d157600060016000600354815260200190815260200160002060040160006101000a81548160ff02191690836001811115620010cb57620010ca62001cc1565b5b02179055505b50505050565b6000620010e36200162c565b73ffffffffffffffffffffffffffffffffffffffff16620011036200140b565b73ffffffffffffffffffffffffffffffffffffffff16146200115c576040517f08c379a0000000000000000000000000000000000000000000000000000000008152600401620011539062001eb6565b60405180910390fd5b82600160008481526020019081526020016000206003018190555060006001600084815260200190815260200160002060000160009054906101000a900473ffffffffffffffffffffffffffffffffffffffff1673ffffffffffffffffffffffffffffffffffffffff1684604051602401620011d9919062001dd7565b6040516020818303038152906040527f9cf78ba9000000000000000000000000000000000000000000000000000000007bffffffffffffffffffffffffffffffffffffffffffffffffffffffff19166020820180517bffffffffffffffffffffffffffffffffffffffffffffffffffffffff83818316178352505050506040516200126591906200244e565b6000604051808303816000865af19150503d8060008114620012a4576040519150601f19603f3d011682016040523d82523d6000602084013e620012a9565b606091505b5050905080620012f0576040517f08c379a0000000000000000000000000000000000000000000000000000000008152600401620012e790620024dd565b60405180910390fd5b8091505092915050565b60016020528060005260406000206000915090508060000160009054906101000a900473ffffffffffffffffffffffffffffffffffffffff169080600101805462001345906200252e565b80601f016020809104026020016040519081016040528092919081815260200182805462001373906200252e565b8015620013c45780601f106200139857610100808354040283529160200191620013c4565b820191906000526020600020905b815481529060010190602001808311620013a657829003601f168201915b5050505050908060020154908060030154908060040160009054906101000a900460ff16905085565b60026020528060005260406000206000915090508060010154905081565b60008060009054906101000a900473ffffffffffffffffffffffffffffffffffffffff16905090565b606060008060016000858152602001908152602001600020600101600160008681526020019081526020016000206002015460016000878152602001908152602001600020600301548280546200148b906200252e565b80601f0160208091040260200160405190810160405280929190818152602001828054620014b9906200252e565b80156200150a5780601f10620014de576101008083540402835291602001916200150a565b820191906000526020600020905b815481529060010190602001808311620014ec57829003601f168201915b505050505092509250925092509193909250565b6000600354905090565b620015326200162c565b73ffffffffffffffffffffffffffffffffffffffff16620015526200140b565b73ffffffffffffffffffffffffffffffffffffffff1614620015ab576040517f08c379a0000000000000000000000000000000000000000000000000000000008152600401620015a29062001eb6565b60405180910390fd5b600073ffffffffffffffffffffffffffffffffffffffff168173ffffffffffffffffffffffffffffffffffffffff1614156200161e576040517f08c379a00000000000000000000000000000000000000000000000000000000081526004016200161590620025da565b60405180910390fd5b620016298162001634565b50565b600033905090565b60008060009054906101000a900473ffffffffffffffffffffffffffffffffffffffff169050816000806101000a81548173ffffffffffffffffffffffffffffffffffffffff021916908373ffffffffffffffffffffffffffffffffffffffff1602179055508173ffffffffffffffffffffffffffffffffffffffff168173ffffffffffffffffffffffffffffffffffffffff167f8be0079c531659141344cd1fd0a4f28419497f9722a3daafe3b4186f6b6457e060405160405180910390a35050565b610c4c80620025fd83390190565b82805462001714906200252e565b90600052602060002090601f01602090048101928262001738576000855562001784565b82601f106200175357805160ff191683800117855562001784565b8280016001018555821562001784579182015b828111156200178357825182559160200191906001019062001766565b5b50905062001793919062001797565b5090565b5b80821115620017b257600081600090555060010162001798565b5090565b6000604051905090565b600080fd5b600080fd5b600080fd5b600080fd5b6000601f19601f8301169050919050565b7f4e487b7100000000000000000000000000000000000000000000000000000000600052604160045260246000fd5b6200181f82620017d4565b810181811067ffffffffffffffff82111715620018415762001840620017e5565b5b80604052505050565b600062001856620017b6565b905062001864828262001814565b919050565b600067ffffffffffffffff821115620018875762001886620017e5565b5b6200189282620017d4565b9050602081019050919050565b82818337600083830152505050565b6000620018c5620018bf8462001869565b6200184a565b905082815260208101848484011115620018e457620018e3620017cf565b5b620018f18482856200189f565b509392505050565b600082601f830112620019115762001910620017ca565b5b813562001923848260208601620018ae565b91505092915050565b6000819050919050565b62001941816200192c565b81146200194d57600080fd5b50565b600081359050620019618162001936565b92915050565b600080600060608486031215620019835762001982620017c0565b5b600084013567ffffffffffffffff811115620019a457620019a3620017c5565b5b620019b286828701620018f9565b9350506020620019c58682870162001950565b9250506040620019d88682870162001950565b9150509250925092565b600073ffffffffffffffffffffffffffffffffffffffff82169050919050565b600062001a0f82620019e2565b9050919050565b62001a218162001a02565b811462001a2d57600080fd5b50565b60008135905062001a418162001a16565b92915050565b60008060006060848603121562001a635762001a62620017c0565b5b600062001a738682870162001950565b935050602062001a868682870162001a30565b925050604062001a998682870162001950565b9150509250925092565b60008060006060848603121562001abf5762001abe620017c0565b5b600062001acf8682870162001950565b935050602062001ae28682870162001950565b925050604062001af58682870162001a30565b9150509250925092565b6000806040838503121562001b195762001b18620017c0565b5b600062001b298582860162001950565b925050602062001b3c8582860162001950565b9150509250929050565b60008115159050919050565b62001b5d8162001b46565b82525050565b600060208201905062001b7a600083018462001b52565b92915050565b60006020828403121562001b995762001b98620017c0565b5b600062001ba98482850162001950565b91505092915050565b6000819050919050565b600062001bdd62001bd762001bd184620019e2565b62001bb2565b620019e2565b9050919050565b600062001bf18262001bbc565b9050919050565b600062001c058262001be4565b9050919050565b62001c178162001bf8565b82525050565b600081519050919050565b600082825260208201905092915050565b60005b8381101562001c5957808201518184015260208101905062001c3c565b8381111562001c69576000848401525b50505050565b600062001c7c8262001c1d565b62001c88818562001c28565b935062001c9a81856020860162001c39565b62001ca581620017d4565b840191505092915050565b62001cbb816200192c565b82525050565b7f4e487b7100000000000000000000000000000000000000000000000000000000600052602160045260246000fd5b6002811062001d045762001d0362001cc1565b5b50565b600081905062001d178262001cf0565b919050565b600062001d298262001d07565b9050919050565b62001d3b8162001d1c565b82525050565b600060a08201905062001d58600083018862001c0c565b818103602083015262001d6c818762001c6f565b905062001d7d604083018662001cb0565b62001d8c606083018562001cb0565b62001d9b608083018462001d30565b9695505050505050565b60006020828403121562001dbe5762001dbd620017c0565b5b600062001dce8482850162001a30565b91505092915050565b600060208201905062001dee600083018462001cb0565b92915050565b62001dff8162001a02565b82525050565b600060208201905062001e1c600083018462001df4565b92915050565b6000606082019050818103600083015262001e3e818662001c6f565b905062001e4f602083018562001cb0565b62001e5e604083018462001cb0565b949350505050565b7f4f776e61626c653a2063616c6c6572206973206e6f7420746865206f776e6572600082015250565b600062001e9e60208362001c28565b915062001eab8262001e66565b602082019050919050565b6000602082019050818103600083015262001ed18162001e8f565b9050919050565b600062001ee58262001bbc565b9050919050565b600062001ef98262001ed8565b9050919050565b62001f0b8162001eec565b82525050565b600060808201905062001f28600083018762001f00565b62001f37602083018662001cb0565b62001f46604083018562001cb0565b62001f55606083018462001cb0565b95945050505050565b600060808201905062001f75600083018762001cb0565b62001f84602083018662001df4565b62001f93604083018562001cb0565b62001fa2606083018462001cb0565b95945050505050565b7f4e487b7100000000000000000000000000000000000000000000000000000000600052601160045260246000fd5b600062001fe7826200192c565b91507fffffffffffffffffffffffffffffffffffffffffffffffffffffffffffffffff8214156200201d576200201c62001fab565b5b600182019050919050565b7f4974656d206973206675727468657220696e2074686520737570706c7920636860008201527f61696e0000000000000000000000000000000000000000000000000000000000602082015250565b60006200208660238362001c28565b9150620020938262002028565b604082019050919050565b60006020820190508181036000830152620020b98162002077565b9050919050565b600060a082019050620020d7600083018862001cb0565b620020e6602083018762001df4565b620020f5604083018662001cb0565b62002104606083018562001cb0565b62002113608083018462001cb0565b9695505050505050565b7f4f6e6c79206974656d732061726520616c6c6f77656420746f2075706461746560008201527f207468656d73656c766573000000000000000000000000000000000000000000602082015250565b60006200217b602b8362001c28565b915062002188826200211d565b604082019050919050565b60006020820190508181036000830152620021ae816200216c565b9050919050565b600081519050620021c68162001936565b92915050565b600060208284031215620021e557620021e4620017c0565b5b6000620021f584828501620021b5565b91505092915050565b7f4e6f742066756c6c792070616964207965740000000000000000000000000000600082015250565b60006200223660128362001c28565b91506200224382620021fe565b602082019050919050565b60006020820190508181036000830152620022698162002227565b9050919050565b7f546865207175616e7469747920796f752068617665206f72646572656420657860008201527f63656564732074686520617661696c61626c65207175616e7469747900000000602082015250565b6000620022ce603c8362001c28565b9150620022db8262002270565b604082019050919050565b600060208201905081810360008301526200230181620022bf565b9050919050565b7f54686973206974656d20697320736f6c64206f75742c20706c6561736520636f60008201527f6e7461637420757320746f2066696e64206f7574207768656e206e657720737460208201527f6f636b2077696c6c206172726976650000000000000000000000000000000000604082015250565b60006200238c604f8362001c28565b9150620023998262002308565b606082019050919050565b60006020820190508181036000830152620023bf816200237d565b9050919050565b6000620023d3826200192c565b9150620023e0836200192c565b925082821015620023f657620023f562001fab565b5b828203905092915050565b600081519050919050565b600081905092915050565b6000620024248262002401565b6200243081856200240c565b93506200244281856020860162001c39565b80840191505092915050565b60006200245c828462002417565b915081905092915050565b7f50726f64756374207175616e7469747920757064617465206661696c65642c2060008201527f706c656173652074727920616761696e00000000000000000000000000000000602082015250565b6000620024c560308362001c28565b9150620024d28262002467565b604082019050919050565b60006020820190508181036000830152620024f881620024b6565b9050919050565b7f4e487b7100000000000000000000000000000000000000000000000000000000600052602260045260246000fd5b600060028204905060018216806200254757607f821691505b602082108114156200255e576200255d620024ff565b5b50919050565b7f4f776e61626c653a206e6577206f776e657220697320746865207a65726f206160008201527f6464726573730000000000000000000000000000000000000000000000000000602082015250565b6000620025c260268362001c28565b9150620025cf8262002564565b604082019050919050565b60006020820190508181036000830152620025f581620025b3565b905091905056fe60806040523480156200001157600080fd5b5060405162000c4c38038062000c4c833981810160405281019062000037919062000150565b826000819055508160028190555083600460006101000a81548173ffffffffffffffffffffffffffffffffffffffff021916908373ffffffffffffffffffffffffffffffffffffffff1602179055508060038190555050505050620001c2565b600080fd5b600073ffffffffffffffffffffffffffffffffffffffff82169050919050565b6000620000c9826200009c565b9050919050565b6000620000dd82620000bc565b9050919050565b620000ef81620000d0565b8114620000fb57600080fd5b50565b6000815190506200010f81620000e4565b92915050565b6000819050919050565b6200012a8162000115565b81146200013657600080fd5b50565b6000815190506200014a816200011f565b92915050565b600080600080608085870312156200016d576200016c62000097565b5b60006200017d87828801620000fe565b9450506020620001908782880162000139565b9350506040620001a38782880162000139565b9250506060620001b68782880162000139565b91505092959194509250565b610a7a80620001d26000396000f3fe60806040526004361061004e5760003560e01c806317fc45e2146102ed5780632986c0e5146103185780633c8da5881461034357806383d12eef1461036e5780639cf78ba914610399576102de565b366102de576000543414610097576040517f08c379a000000000000000000000000000000000000000000000000000000000815260040161008e906104f7565b60405180910390fd5b600080546001546100a89190610550565b146100e8576040517f08c379a00000000000000000000000000000000000000000000000000000000081526004016100df906105f3565b60405180910390fd5b6000600354141561012e576040517f08c379a000000000000000000000000000000000000000000000000000000000815260040161012590610685565b60405180910390fd5b346001600082825461014091906106d4565b9250508190555060005434610155919061072a565b6005819055506005546003600082825461016f919061075b565b925050819055506000600460009054906101000a900473ffffffffffffffffffffffffffffffffffffffff1673ffffffffffffffffffffffffffffffffffffffff1634600254600554336040516024016101cb939291906107df565b6040516020818303038152906040527fee6bbb6c000000000000000000000000000000000000000000000000000000007bffffffffffffffffffffffffffffffffffffffffffffffffffffffff19166020820180517bffffffffffffffffffffffffffffffffffffffffffffffffffffffff83818316178352505050506040516102559190610890565b60006040518083038185875af1925050503d8060008114610292576040519150601f19603f3d011682016040523d82523d6000602084013e610297565b606091505b50509050806102db576040517f08c379a00000000000000000000000000000000000000000000000000000000081526004016102d290610919565b60405180910390fd5b50005b3480156102ea57600080fd5b50005b3480156102f957600080fd5b506103026103c2565b60405161030f9190610939565b60405180910390f35b34801561032457600080fd5b5061032d6103c8565b60405161033a9190610939565b60405180910390f35b34801561034f57600080fd5b506103586103ce565b6040516103659190610939565b60405180910390f35b34801561037a57600080fd5b506103836103d4565b6040516103909190610939565b60405180910390f35b3480156103a557600080fd5b506103c060048036038101906103bb9190610985565b6103da565b005b60035481565b60025481565b60005481565b60015481565b3373ffffffffffffffffffffffffffffffffffffffff16600460009054906101000a900473ffffffffffffffffffffffffffffffffffffffff1673ffffffffffffffffffffffffffffffffffffffff161461046a576040517f08c379a000000000000000000000000000000000000000000000000000000000815260040161046190610a24565b60405180910390fd5b8060038190555050565b600082825260208201905092915050565b7f536f7272792c207061727469616c207061796d656e747320617265206e6f742060008201527f737570706f727465640000000000000000000000000000000000000000000000602082015250565b60006104e1602983610474565b91506104ec82610485565b604082019050919050565b60006020820190508181036000830152610510816104d4565b9050919050565b6000819050919050565b7f4e487b7100000000000000000000000000000000000000000000000000000000600052601260045260246000fd5b600061055b82610517565b915061056683610517565b92508261057657610575610521565b5b828206905092915050565b7f54686973206974656d2068617320616c7265616479206265656e20706169642060008201527f666f722100000000000000000000000000000000000000000000000000000000602082015250565b60006105dd602483610474565b91506105e882610581565b604082019050919050565b6000602082019050818103600083015261060c816105d0565b9050919050565b7f536f7272792c2074686973206974656d2069732074656d706f726172696c792060008201527f736f6c64206f7574000000000000000000000000000000000000000000000000602082015250565b600061066f602883610474565b915061067a82610613565b604082019050919050565b6000602082019050818103600083015261069e81610662565b9050919050565b7f4e487b7100000000000000000000000000000000000000000000000000000000600052601160045260246000fd5b60006106df82610517565b91506106ea83610517565b9250827fffffffffffffffffffffffffffffffffffffffffffffffffffffffffffffffff0382111561071f5761071e6106a5565b5b828201905092915050565b600061073582610517565b915061074083610517565b9250826107505761074f610521565b5b828204905092915050565b600061076682610517565b915061077183610517565b925082821015610784576107836106a5565b5b828203905092915050565b61079881610517565b82525050565b600073ffffffffffffffffffffffffffffffffffffffff82169050919050565b60006107c98261079e565b9050919050565b6107d9816107be565b82525050565b60006060820190506107f4600083018661078f565b610801602083018561078f565b61080e60408301846107d0565b949350505050565b600081519050919050565b600081905092915050565b60005b8381101561084a57808201518184015260208101905061082f565b83811115610859576000848401525b50505050565b600061086a82610816565b6108748185610821565b935061088481856020860161082c565b80840191505092915050565b600061089c828461085f565b915081905092915050565b7f5061796d656e742070726f63657373696e67206661696c65642c20706c65617360008201527f6520636f6e7461637420746865206f776e657200000000000000000000000000602082015250565b6000610903603383610474565b915061090e826108a7565b604082019050919050565b60006020820190508181036000830152610932816108f6565b9050919050565b600060208201905061094e600083018461078f565b92915050565b600080fd5b61096281610517565b811461096d57600080fd5b50565b60008135905061097f81610959565b92915050565b60006020828403121561099b5761099a610954565b5b60006109a984828501610970565b91505092915050565b7f4f6e6c7920746865206d617374657220636f6e74726163742063616e2075706460008201527f617465206974656d207175616e74697479000000000000000000000000000000602082015250565b6000610a0e603183610474565b9150610a19826109b2565b604082019050919050565b60006020820190508181036000830152610a3d81610a01565b905091905056fea264697066735822122002552cb7cb7e24733dafe44ab110889991d7d948d2d52e3094cae0d0a25aacff64736f6c63430008090033a264697066735822122022e1b91eb5f15a3e473ffb2911dd767224ad81fec72b200be5ab51a92ac4253764736f6c63430008090033",
  "immutableReferences": {},
  "source": "pragma solidity 0.8.9;\r\n\r\nimport \"./ProductSale.sol\";\r\nimport \"@openzeppelin/contracts/access/Ownable.sol\";\r\n\r\n//For this contract Item refers to a single good sold,\r\n//whilst product refers to the catagory of good- in which there may be multiple individual items.\r\ncontract ItemManager is Ownable {\r\n\r\n    struct S_Product {\r\n        ProductSale _product;\r\n        //ItemManager.SupplyChainSteps _step;\r\n        string _identifier;\r\n        uint _priceInWei;\r\n        uint _quantity;\r\n        ItemManager.ProductSteps _productStep;\r\n    }\r\n\r\n    struct Item_Payments {\r\n        mapping(uint => uint) _quantity;\r\n        uint _addressIndex;\r\n        mapping(uint => ItemManager.ItemSteps) _itemStep;\r\n    }\r\n\r\n    mapping(uint => S_Product) public products;\r\n    mapping(address => Item_Payments) public paymentAuth;\r\n    uint index;\r\n\r\n//ItemSteps tracks items, of which there may be many in a product category.\r\n//i.e. Apples (the product) of which there are 100 individual items being tracked\r\n    enum ItemSteps {Unpaid, Paid, Delivered} //removed created- allowing a quantity >1 for each item.\r\n//ProductSteps tracks the products- Products are created with a number of items for sale, once those items are bought the product is SoldOut\r\n    enum ProductSteps {Created, SoldOut}\r\n\r\n    event ProductStep(uint _productIndex, address _address, uint qty, uint _step); //uint _step removed\r\n    event ItemStep(uint _productIndex, address _buyerAddress, uint _addressIndex, uint qtyBought, uint _itemStep);\r\n\r\n    function createItem(string memory _identifier, uint _priceInWei, uint _quantity) public onlyOwner {\r\n        ProductSale product = new ProductSale(this, _priceInWei, index, _quantity);\r\n        products[index]._product = product;\r\n        products[index]._productStep = ProductSteps.Created;\r\n        products[index]._identifier = _identifier;\r\n        products[index]._priceInWei = _priceInWei;\r\n        products[index]._quantity = _quantity;\r\n        emit ProductStep(index, address(product), _quantity, uint(products[index]._productStep));\r\n        index++;\r\n    }\r\n\r\n    function triggerPayment(uint _productIndex, uint qty, address buyer) public payable {\r\n        ProductSale product = products[_productIndex]._product;\r\n        require(address(product) == msg.sender, \"Only items are allowed to update themselves\");\r\n        require(product.priceInWei() == msg.value, \"Not fully paid yet\");\r\n        require(products[_productIndex]._quantity >= qty && products[_productIndex]._quantity > 0, \"The quantity you have ordered exceeds the available quantity\");\r\n        require(products[_productIndex]._productStep != ProductSteps.SoldOut, \"This item is sold out, please contact us to find out when new stock will arrive\");\r\n        paymentAuth[buyer]._itemStep[paymentAuth[buyer]._addressIndex] = ItemSteps.Paid;\r\n        products[_productIndex]._quantity -= qty;\r\n        paymentAuth[buyer]._quantity[paymentAuth[buyer]._addressIndex] = qty;\r\n        emit ItemStep(_productIndex, buyer, paymentAuth[buyer]._addressIndex, uint(paymentAuth[buyer]._itemStep[paymentAuth[buyer]._addressIndex]), qty); //removed: uint(items[_index]._step)\r\n        emit ProductStep(_productIndex, address(products[_productIndex]._product), products[_productIndex]._quantity, uint(products[_productIndex]._productStep));\r\n        paymentAuth[buyer]._addressIndex++;\r\n        if (products[_productIndex]._quantity == 0){\r\n            products[index]._productStep = ProductSteps.Created;\r\n        }\r\n    }\r\n\r\n    function triggerDelivery(uint _productIndex, address buyer, uint address_index) public onlyOwner {\r\n        require(paymentAuth[buyer]._itemStep[address_index] == ItemSteps.Paid, \"Item is further in the supply chain\");\r\n        paymentAuth[buyer]._itemStep[address_index] = ItemSteps.Delivered;\r\n        emit ProductStep(_productIndex, address(products[_productIndex]._product), products[_productIndex]._quantity, uint(products[_productIndex]._productStep));\r\n        emit ItemStep(_productIndex, buyer, address_index, uint(paymentAuth[buyer]._itemStep[paymentAuth[buyer]._addressIndex]), paymentAuth[buyer]._quantity[paymentAuth[buyer]._addressIndex]); //removed: uint(items[_index]._step)\r\n    }\r\n\r\n    function updateQuantity(uint newQuantity, uint itemIndex) public onlyOwner returns(bool) {\r\n        products[itemIndex]._quantity = newQuantity;\r\n        (bool success, ) = address(products[itemIndex]._product).call(abi.encodeWithSignature(\"updateQty(uint256)\", newQuantity));\r\n        require(success, \"Product quantity update failed, please try again\");\r\n        return(success);\r\n    }\r\n\r\n    function getIndexCount() public view returns(uint) {\r\n        return(index);\r\n    }\r\n\r\n    function productData(uint _index) public view returns(string memory, uint, uint) {\r\n        return(products[_index]._identifier, products[_index]._priceInWei, products[_index]._quantity);\r\n    }\r\n\r\n}",
  "sourcePath": "C:\\Users\\nicba\\SupplyChain\\contracts\\ItemManager.sol",
  "compiler": {
    "name": "solc",
    "version": "0.8.9+commit.e5eed63a.Emscripten.clang"
  },
  "schemaVersion": "3.4.6",
  "updatedAt": "2022-04-11T20:44:36.198Z",
  "networkType": "ethereum",
  "devdoc": {
    "kind": "dev",
    "methods": {
      "owner()": {
        "details": "Returns the address of the current owner."
      },
      "renounceOwnership()": {
        "details": "Leaves the contract without owner. It will not be possible to call `onlyOwner` functions anymore. Can only be called by the current owner. NOTE: Renouncing ownership will leave the contract without an owner, thereby removing any functionality that is only available to the owner."
      },
      "transferOwnership(address)": {
        "details": "Transfers ownership of the contract to a new account (`newOwner`). Can only be called by the current owner."
      }
    },
    "version": 1
  },
  "userdoc": {
    "kind": "user",
    "methods": {},
    "version": 1
  }
}