{
  "contractName": "ItemManager",
  "abi": [
    {
      "anonymous": false,
      "inputs": [
        {
          "indexed": false,
          "internalType": "uint256",
          "name": "_productIndex",
          "type": "uint256"
        },
        {
          "indexed": false,
          "internalType": "address",
          "name": "_buyerAddress",
          "type": "address"
        },
        {
          "indexed": false,
          "internalType": "uint256",
          "name": "_addressIndex",
          "type": "uint256"
        },
        {
          "indexed": false,
          "internalType": "uint256",
          "name": "qtyBought",
          "type": "uint256"
        },
        {
          "indexed": false,
          "internalType": "uint256",
          "name": "_itemStep",
          "type": "uint256"
        }
      ],
      "name": "ItemStep",
      "type": "event"
    },
    {
      "anonymous": false,
      "inputs": [
        {
          "indexed": true,
          "internalType": "address",
          "name": "previousOwner",
          "type": "address"
        },
        {
          "indexed": true,
          "internalType": "address",
          "name": "newOwner",
          "type": "address"
        }
      ],
      "name": "OwnershipTransferred",
      "type": "event"
    },
    {
      "anonymous": false,
      "inputs": [
        {
          "indexed": false,
          "internalType": "uint256",
          "name": "_productIndex",
          "type": "uint256"
        },
        {
          "indexed": false,
          "internalType": "address",
          "name": "_address",
          "type": "address"
        },
        {
          "indexed": false,
          "internalType": "uint256",
          "name": "qty",
          "type": "uint256"
        },
        {
          "indexed": false,
          "internalType": "uint256",
          "name": "_step",
          "type": "uint256"
        }
      ],
      "name": "ProductStep",
      "type": "event"
    },
    {
      "inputs": [],
      "name": "owner",
      "outputs": [
        {
          "internalType": "address",
          "name": "",
          "type": "address"
        }
      ],
      "stateMutability": "view",
      "type": "function",
      "constant": true
    },
    {
      "inputs": [
        {
          "internalType": "address",
          "name": "",
          "type": "address"
        }
      ],
      "name": "paymentAuth",
      "outputs": [
        {
          "internalType": "uint256",
          "name": "_addressIndex",
          "type": "uint256"
        }
      ],
      "stateMutability": "view",
      "type": "function",
      "constant": true
    },
    {
      "inputs": [
        {
          "internalType": "uint256",
          "name": "",
          "type": "uint256"
        }
      ],
      "name": "products",
      "outputs": [
        {
          "internalType": "contract ProductSale",
          "name": "_product",
          "type": "address"
        },
        {
          "internalType": "string",
          "name": "_identifier",
          "type": "string"
        },
        {
          "internalType": "uint256",
          "name": "_priceInWei",
          "type": "uint256"
        },
        {
          "internalType": "uint256",
          "name": "_quantity",
          "type": "uint256"
        },
        {
          "internalType": "enum ItemManager.ProductSteps",
          "name": "_productStep",
          "type": "uint8"
        }
      ],
      "stateMutability": "view",
      "type": "function",
      "constant": true
    },
    {
      "inputs": [],
      "name": "renounceOwnership",
      "outputs": [],
      "stateMutability": "nonpayable",
      "type": "function"
    },
    {
      "inputs": [
        {
          "internalType": "address",
          "name": "newOwner",
          "type": "address"
        }
      ],
      "name": "transferOwnership",
      "outputs": [],
      "stateMutability": "nonpayable",
      "type": "function"
    },
    {
      "inputs": [
        {
          "internalType": "string",
          "name": "_identifier",
          "type": "string"
        },
        {
          "internalType": "uint256",
          "name": "_priceInWei",
          "type": "uint256"
        },
        {
          "internalType": "uint256",
          "name": "_quantity",
          "type": "uint256"
        }
      ],
      "name": "createItem",
      "outputs": [],
      "stateMutability": "nonpayable",
      "type": "function"
    },
    {
      "inputs": [
        {
          "internalType": "uint256",
          "name": "_productIndex",
          "type": "uint256"
        },
        {
          "internalType": "uint256",
          "name": "qty",
          "type": "uint256"
        },
        {
          "internalType": "address",
          "name": "buyer",
          "type": "address"
        }
      ],
      "name": "triggerPayment",
      "outputs": [],
      "stateMutability": "payable",
      "type": "function",
      "payable": true
    },
    {
      "inputs": [
        {
          "internalType": "uint256",
          "name": "_productIndex",
          "type": "uint256"
        },
        {
          "internalType": "address",
          "name": "buyer",
          "type": "address"
        },
        {
          "internalType": "uint256",
          "name": "address_index",
          "type": "uint256"
        }
      ],
      "name": "triggerDelivery",
      "outputs": [],
      "stateMutability": "nonpayable",
      "type": "function"
    },
    {
      "inputs": [
        {
          "internalType": "uint256",
          "name": "newQuantity",
          "type": "uint256"
        },
        {
          "internalType": "uint256",
          "name": "itemIndex",
          "type": "uint256"
        }
      ],
      "name": "updateQuantity",
      "outputs": [],
      "stateMutability": "nonpayable",
      "type": "function"
    },
    {
      "inputs": [],
      "name": "getIndexCount",
      "outputs": [
        {
          "internalType": "uint256",
          "name": "",
          "type": "uint256"
        }
      ],
      "stateMutability": "view",
      "type": "function",
      "constant": true
    },
    {
      "inputs": [
        {
          "internalType": "uint256",
          "name": "_index",
          "type": "uint256"
        }
      ],
      "name": "productData",
      "outputs": [
        {
          "internalType": "string",
          "name": "",
          "type": "string"
        },
        {
          "internalType": "uint256",
          "name": "",
          "type": "uint256"
        },
        {
          "internalType": "uint256",
          "name": "",
          "type": "uint256"
        }
      ],
      "stateMutability": "view",
      "type": "function",
      "constant": true
    }
  ],
  "bytecode": "0x60806040523480156200001157600080fd5b5062000032620000266200003860201b60201c565b6200004060201b60201c565b62000104565b600033905090565b60008060009054906101000a900473ffffffffffffffffffffffffffffffffffffffff169050816000806101000a81548173ffffffffffffffffffffffffffffffffffffffff021916908373ffffffffffffffffffffffffffffffffffffffff1602179055508173ffffffffffffffffffffffffffffffffffffffff168173ffffffffffffffffffffffffffffffffffffffff167f8be0079c531659141344cd1fd0a4f28419497f9722a3daafe3b4186f6b6457e060405160405180910390a35050565b61322780620001146000396000f3fe608060405260043610620000aa5760003560e01c80637acc0b20116200006d5780637acc0b2014620001735780637ace803814620001bb5780638da5cb5b14620001ff5780639f5ce910146200022f578063ec2443701462000275578063f2fde38b14620002a557620000aa565b8063108155bc14620000af5780633c3e36d614620000dd578063715018a6146200010b57806374ff68b6146200012557806379cd49211462000145575b600080fd5b348015620000bc57600080fd5b50620000db6004803603810190620000d591906200194a565b620002d3565b005b348015620000ea57600080fd5b5062000109600480360381019062000103919062001a2a565b6200053a565b005b3480156200011857600080fd5b506200012362000960565b005b6200014360048036038101906200013d919062001a86565b620009f1565b005b3480156200015257600080fd5b506200017160048036038101906200016b919062001ae2565b620010c1565b005b3480156200018057600080fd5b506200019f600480360381019062000199919062001b29565b620012dd565b604051620001b295949392919062001cea565b60405180910390f35b348015620001c857600080fd5b50620001e76004803603810190620001e1919062001d4e565b620013d0565b604051620001f6919062001d80565b60405180910390f35b3480156200020c57600080fd5b5062000217620013ee565b60405162000226919062001dae565b60405180910390f35b3480156200023c57600080fd5b506200025b600480360381019062000255919062001b29565b62001417565b6040516200026c9392919062001dcb565b60405180910390f35b3480156200028257600080fd5b506200028d62001501565b6040516200029c919062001d80565b60405180910390f35b348015620002b257600080fd5b50620002d16004803603810190620002cb919062001d4e565b6200150b565b005b620002dd6200160f565b73ffffffffffffffffffffffffffffffffffffffff16620002fd620013ee565b73ffffffffffffffffffffffffffffffffffffffff161462000356576040517f08c379a00000000000000000000000000000000000000000000000000000000081526004016200034d9062001e5f565b60405180910390fd5b60003083600354846040516200036c90620016db565b6200037b949392919062001eba565b604051809103906000f08015801562000398573d6000803e3d6000fd5b5090508060016000600354815260200190815260200160002060000160006101000a81548173ffffffffffffffffffffffffffffffffffffffff021916908373ffffffffffffffffffffffffffffffffffffffff160217905550600060016000600354815260200190815260200160002060040160006101000a81548160ff0219169083600181111562000431576200043062001c6a565b5b021790555083600160006003548152602001908152602001600020600101908051906020019062000464929190620016e9565b50826001600060035481526020019081526020016000206002018190555081600160006003548152602001908152602001600020600301819055507fcb9061982f2a0ca7ce09c1c19c8f10cb3fd8b2c34c924179a1f38842fd55b968600354828460016000600354815260200190815260200160002060040160009054906101000a900460ff1660018111156200050057620004ff62001c6a565b5b60405162000512949392919062001f07565b60405180910390a1600360008154809291906200052f9062001f83565b919050555050505050565b620005446200160f565b73ffffffffffffffffffffffffffffffffffffffff1662000564620013ee565b73ffffffffffffffffffffffffffffffffffffffff1614620005bd576040517f08c379a0000000000000000000000000000000000000000000000000000000008152600401620005b49062001e5f565b60405180910390fd5b60016002811115620005d457620005d362001c6a565b5b600260008473ffffffffffffffffffffffffffffffffffffffff1673ffffffffffffffffffffffffffffffffffffffff168152602001908152602001600020600201600083815260200190815260200160002060009054906101000a900460ff1660028111156200064a576200064962001c6a565b5b146200068d576040517f08c379a0000000000000000000000000000000000000000000000000000000008152600401620006849062002047565b60405180910390fd5b60028060008473ffffffffffffffffffffffffffffffffffffffff1673ffffffffffffffffffffffffffffffffffffffff168152602001908152602001600020600201600083815260200190815260200160002060006101000a81548160ff0219169083600281111562000706576200070562001c6a565b5b02179055507fcb9061982f2a0ca7ce09c1c19c8f10cb3fd8b2c34c924179a1f38842fd55b968836001600086815260200190815260200160002060000160009054906101000a900473ffffffffffffffffffffffffffffffffffffffff1660016000878152602001908152602001600020600301546001600088815260200190815260200160002060040160009054906101000a900460ff166001811115620007b457620007b362001c6a565b5b604051620007c6949392919062001f07565b60405180910390a17f235280cce55153589b2310decf136eaaed1d4c47c6bf922abc8fd73dc1083038838383600260008773ffffffffffffffffffffffffffffffffffffffff1673ffffffffffffffffffffffffffffffffffffffff1681526020019081526020016000206002016000600260008973ffffffffffffffffffffffffffffffffffffffff1673ffffffffffffffffffffffffffffffffffffffff16815260200190815260200160002060010154815260200190815260200160002060009054906101000a900460ff166002811115620008aa57620008a962001c6a565b5b600260008873ffffffffffffffffffffffffffffffffffffffff1673ffffffffffffffffffffffffffffffffffffffff1681526020019081526020016000206000016000600260008a73ffffffffffffffffffffffffffffffffffffffff1673ffffffffffffffffffffffffffffffffffffffff168152602001908152602001600020600101548152602001908152602001600020546040516200095395949392919062002069565b60405180910390a1505050565b6200096a6200160f565b73ffffffffffffffffffffffffffffffffffffffff166200098a620013ee565b73ffffffffffffffffffffffffffffffffffffffff1614620009e3576040517f08c379a0000000000000000000000000000000000000000000000000000000008152600401620009da9062001e5f565b60405180910390fd5b620009ef600062001617565b565b60006001600085815260200190815260200160002060000160009054906101000a900473ffffffffffffffffffffffffffffffffffffffff1690503373ffffffffffffffffffffffffffffffffffffffff168173ffffffffffffffffffffffffffffffffffffffff161462000a9d576040517f08c379a000000000000000000000000000000000000000000000000000000000815260040162000a94906200213c565b60405180910390fd5b348173ffffffffffffffffffffffffffffffffffffffff16633c8da5886040518163ffffffff1660e01b815260040160206040518083038186803b15801562000ae557600080fd5b505afa15801562000afa573d6000803e3d6000fd5b505050506040513d601f19601f8201168201806040525081019062000b20919062002175565b1462000b63576040517f08c379a000000000000000000000000000000000000000000000000000000000815260040162000b5a90620021f7565b60405180910390fd5b8260016000868152602001908152602001600020600301541015801562000ba0575060006001600086815260200190815260200160002060030154115b62000be2576040517f08c379a000000000000000000000000000000000000000000000000000000000815260040162000bd9906200228f565b60405180910390fd5b60018081111562000bf85762000bf762001c6a565b5b6001600086815260200190815260200160002060040160009054906101000a900460ff16600181111562000c315762000c3062001c6a565b5b141562000c75576040517f08c379a000000000000000000000000000000000000000000000000000000000815260040162000c6c906200234d565b60405180910390fd5b6001600260008473ffffffffffffffffffffffffffffffffffffffff1673ffffffffffffffffffffffffffffffffffffffff1681526020019081526020016000206002016000600260008673ffffffffffffffffffffffffffffffffffffffff1673ffffffffffffffffffffffffffffffffffffffff16815260200190815260200160002060010154815260200190815260200160002060006101000a81548160ff0219169083600281111562000d315762000d3062001c6a565b5b02179055508260016000868152602001908152602001600020600301600082825462000d5e91906200236f565b9250508190555082600260008473ffffffffffffffffffffffffffffffffffffffff1673ffffffffffffffffffffffffffffffffffffffff1681526020019081526020016000206000016000600260008673ffffffffffffffffffffffffffffffffffffffff1673ffffffffffffffffffffffffffffffffffffffff168152602001908152602001600020600101548152602001908152602001600020819055507f235280cce55153589b2310decf136eaaed1d4c47c6bf922abc8fd73dc10830388483600260008673ffffffffffffffffffffffffffffffffffffffff1673ffffffffffffffffffffffffffffffffffffffff16815260200190815260200160002060010154600260008773ffffffffffffffffffffffffffffffffffffffff1673ffffffffffffffffffffffffffffffffffffffff1681526020019081526020016000206002016000600260008973ffffffffffffffffffffffffffffffffffffffff1673ffffffffffffffffffffffffffffffffffffffff16815260200190815260200160002060010154815260200190815260200160002060009054906101000a900460ff16600281111562000f1d5762000f1c62001c6a565b5b8760405162000f3195949392919062002069565b60405180910390a17fcb9061982f2a0ca7ce09c1c19c8f10cb3fd8b2c34c924179a1f38842fd55b968846001600087815260200190815260200160002060000160009054906101000a900473ffffffffffffffffffffffffffffffffffffffff1660016000888152602001908152602001600020600301546001600089815260200190815260200160002060040160009054906101000a900460ff16600181111562000fe25762000fe162001c6a565b5b60405162000ff4949392919062001f07565b60405180910390a1600260008373ffffffffffffffffffffffffffffffffffffffff1673ffffffffffffffffffffffffffffffffffffffff1681526020019081526020016000206001016000815480929190620010519062001f83565b9190505550600060016000868152602001908152602001600020600301541415620010bb57600060016000600354815260200190815260200160002060040160006101000a81548160ff02191690836001811115620010b557620010b462001c6a565b5b02179055505b50505050565b620010cb6200160f565b73ffffffffffffffffffffffffffffffffffffffff16620010eb620013ee565b73ffffffffffffffffffffffffffffffffffffffff161462001144576040517f08c379a00000000000000000000000000000000000000000000000000000000081526004016200113b9062001e5f565b60405180910390fd5b81600160008381526020019081526020016000206003018190555060006001600083815260200190815260200160002060000160009054906101000a900473ffffffffffffffffffffffffffffffffffffffff1673ffffffffffffffffffffffffffffffffffffffff1683604051602401620011c1919062001d80565b6040516020818303038152906040527f9cf78ba9000000000000000000000000000000000000000000000000000000007bffffffffffffffffffffffffffffffffffffffffffffffffffffffff19166020820180517bffffffffffffffffffffffffffffffffffffffffffffffffffffffff83818316178352505050506040516200124d9190620023f7565b6000604051808303816000865af19150503d80600081146200128c576040519150601f19603f3d011682016040523d82523d6000602084013e62001291565b606091505b5050905080620012d8576040517f08c379a0000000000000000000000000000000000000000000000000000000008152600401620012cf9062002486565b60405180910390fd5b505050565b60016020528060005260406000206000915090508060000160009054906101000a900473ffffffffffffffffffffffffffffffffffffffff16908060010180546200132890620024d7565b80601f01602080910402602001604051908101604052809291908181526020018280546200135690620024d7565b8015620013a75780601f106200137b57610100808354040283529160200191620013a7565b820191906000526020600020905b8154815290600101906020018083116200138957829003601f168201915b5050505050908060020154908060030154908060040160009054906101000a900460ff16905085565b60026020528060005260406000206000915090508060010154905081565b60008060009054906101000a900473ffffffffffffffffffffffffffffffffffffffff16905090565b606060008060016000858152602001908152602001600020600101600160008681526020019081526020016000206002015460016000878152602001908152602001600020600301548280546200146e90620024d7565b80601f01602080910402602001604051908101604052809291908181526020018280546200149c90620024d7565b8015620014ed5780601f10620014c157610100808354040283529160200191620014ed565b820191906000526020600020905b815481529060010190602001808311620014cf57829003601f168201915b505050505092509250925092509193909250565b6000600354905090565b620015156200160f565b73ffffffffffffffffffffffffffffffffffffffff1662001535620013ee565b73ffffffffffffffffffffffffffffffffffffffff16146200158e576040517f08c379a0000000000000000000000000000000000000000000000000000000008152600401620015859062001e5f565b60405180910390fd5b600073ffffffffffffffffffffffffffffffffffffffff168173ffffffffffffffffffffffffffffffffffffffff16141562001601576040517f08c379a0000000000000000000000000000000000000000000000000000000008152600401620015f89062002583565b60405180910390fd5b6200160c8162001617565b50565b600033905090565b60008060009054906101000a900473ffffffffffffffffffffffffffffffffffffffff169050816000806101000a81548173ffffffffffffffffffffffffffffffffffffffff021916908373ffffffffffffffffffffffffffffffffffffffff1602179055508173ffffffffffffffffffffffffffffffffffffffff168173ffffffffffffffffffffffffffffffffffffffff167f8be0079c531659141344cd1fd0a4f28419497f9722a3daafe3b4186f6b6457e060405160405180910390a35050565b610c4c80620025a683390190565b828054620016f790620024d7565b90600052602060002090601f0160209004810192826200171b576000855562001767565b82601f106200173657805160ff191683800117855562001767565b8280016001018555821562001767579182015b828111156200176657825182559160200191906001019062001749565b5b5090506200177691906200177a565b5090565b5b80821115620017955760008160009055506001016200177b565b5090565b6000604051905090565b600080fd5b600080fd5b600080fd5b600080fd5b6000601f19601f8301169050919050565b7f4e487b7100000000000000000000000000000000000000000000000000000000600052604160045260246000fd5b6200180282620017b7565b810181811067ffffffffffffffff82111715620018245762001823620017c8565b5b80604052505050565b60006200183962001799565b9050620018478282620017f7565b919050565b600067ffffffffffffffff8211156200186a5762001869620017c8565b5b6200187582620017b7565b9050602081019050919050565b82818337600083830152505050565b6000620018a8620018a2846200184c565b6200182d565b905082815260208101848484011115620018c757620018c6620017b2565b5b620018d484828562001882565b509392505050565b600082601f830112620018f457620018f3620017ad565b5b81356200190684826020860162001891565b91505092915050565b6000819050919050565b62001924816200190f565b81146200193057600080fd5b50565b600081359050620019448162001919565b92915050565b600080600060608486031215620019665762001965620017a3565b5b600084013567ffffffffffffffff811115620019875762001986620017a8565b5b6200199586828701620018dc565b9350506020620019a88682870162001933565b9250506040620019bb8682870162001933565b9150509250925092565b600073ffffffffffffffffffffffffffffffffffffffff82169050919050565b6000620019f282620019c5565b9050919050565b62001a0481620019e5565b811462001a1057600080fd5b50565b60008135905062001a2481620019f9565b92915050565b60008060006060848603121562001a465762001a45620017a3565b5b600062001a568682870162001933565b935050602062001a698682870162001a13565b925050604062001a7c8682870162001933565b9150509250925092565b60008060006060848603121562001aa25762001aa1620017a3565b5b600062001ab28682870162001933565b935050602062001ac58682870162001933565b925050604062001ad88682870162001a13565b9150509250925092565b6000806040838503121562001afc5762001afb620017a3565b5b600062001b0c8582860162001933565b925050602062001b1f8582860162001933565b9150509250929050565b60006020828403121562001b425762001b41620017a3565b5b600062001b528482850162001933565b91505092915050565b6000819050919050565b600062001b8662001b8062001b7a84620019c5565b62001b5b565b620019c5565b9050919050565b600062001b9a8262001b65565b9050919050565b600062001bae8262001b8d565b9050919050565b62001bc08162001ba1565b82525050565b600081519050919050565b600082825260208201905092915050565b60005b8381101562001c0257808201518184015260208101905062001be5565b8381111562001c12576000848401525b50505050565b600062001c258262001bc6565b62001c31818562001bd1565b935062001c4381856020860162001be2565b62001c4e81620017b7565b840191505092915050565b62001c64816200190f565b82525050565b7f4e487b7100000000000000000000000000000000000000000000000000000000600052602160045260246000fd5b6002811062001cad5762001cac62001c6a565b5b50565b600081905062001cc08262001c99565b919050565b600062001cd28262001cb0565b9050919050565b62001ce48162001cc5565b82525050565b600060a08201905062001d01600083018862001bb5565b818103602083015262001d15818762001c18565b905062001d26604083018662001c59565b62001d35606083018562001c59565b62001d44608083018462001cd9565b9695505050505050565b60006020828403121562001d675762001d66620017a3565b5b600062001d778482850162001a13565b91505092915050565b600060208201905062001d97600083018462001c59565b92915050565b62001da881620019e5565b82525050565b600060208201905062001dc5600083018462001d9d565b92915050565b6000606082019050818103600083015262001de7818662001c18565b905062001df8602083018562001c59565b62001e07604083018462001c59565b949350505050565b7f4f776e61626c653a2063616c6c6572206973206e6f7420746865206f776e6572600082015250565b600062001e4760208362001bd1565b915062001e548262001e0f565b602082019050919050565b6000602082019050818103600083015262001e7a8162001e38565b9050919050565b600062001e8e8262001b65565b9050919050565b600062001ea28262001e81565b9050919050565b62001eb48162001e95565b82525050565b600060808201905062001ed1600083018762001ea9565b62001ee0602083018662001c59565b62001eef604083018562001c59565b62001efe606083018462001c59565b95945050505050565b600060808201905062001f1e600083018762001c59565b62001f2d602083018662001d9d565b62001f3c604083018562001c59565b62001f4b606083018462001c59565b95945050505050565b7f4e487b7100000000000000000000000000000000000000000000000000000000600052601160045260246000fd5b600062001f90826200190f565b91507fffffffffffffffffffffffffffffffffffffffffffffffffffffffffffffffff82141562001fc65762001fc562001f54565b5b600182019050919050565b7f4974656d206973206675727468657220696e2074686520737570706c7920636860008201527f61696e0000000000000000000000000000000000000000000000000000000000602082015250565b60006200202f60238362001bd1565b91506200203c8262001fd1565b604082019050919050565b60006020820190508181036000830152620020628162002020565b9050919050565b600060a08201905062002080600083018862001c59565b6200208f602083018762001d9d565b6200209e604083018662001c59565b620020ad606083018562001c59565b620020bc608083018462001c59565b9695505050505050565b7f4f6e6c79206974656d732061726520616c6c6f77656420746f2075706461746560008201527f207468656d73656c766573000000000000000000000000000000000000000000602082015250565b600062002124602b8362001bd1565b91506200213182620020c6565b604082019050919050565b60006020820190508181036000830152620021578162002115565b9050919050565b6000815190506200216f8162001919565b92915050565b6000602082840312156200218e576200218d620017a3565b5b60006200219e848285016200215e565b91505092915050565b7f4e6f742066756c6c792070616964207965740000000000000000000000000000600082015250565b6000620021df60128362001bd1565b9150620021ec82620021a7565b602082019050919050565b600060208201905081810360008301526200221281620021d0565b9050919050565b7f546865207175616e7469747920796f752068617665206f72646572656420657860008201527f63656564732074686520617661696c61626c65207175616e7469747900000000602082015250565b600062002277603c8362001bd1565b9150620022848262002219565b604082019050919050565b60006020820190508181036000830152620022aa8162002268565b9050919050565b7f54686973206974656d20697320736f6c64206f75742c20706c6561736520636f60008201527f6e7461637420757320746f2066696e64206f7574207768656e206e657720737460208201527f6f636b2077696c6c206172726976650000000000000000000000000000000000604082015250565b600062002335604f8362001bd1565b91506200234282620022b1565b606082019050919050565b60006020820190508181036000830152620023688162002326565b9050919050565b60006200237c826200190f565b915062002389836200190f565b9250828210156200239f576200239e62001f54565b5b828203905092915050565b600081519050919050565b600081905092915050565b6000620023cd82620023aa565b620023d98185620023b5565b9350620023eb81856020860162001be2565b80840191505092915050565b6000620024058284620023c0565b915081905092915050565b7f50726f64756374207175616e7469747920757064617465206661696c65642c2060008201527f706c656173652074727920616761696e00000000000000000000000000000000602082015250565b60006200246e60308362001bd1565b91506200247b8262002410565b604082019050919050565b60006020820190508181036000830152620024a1816200245f565b9050919050565b7f4e487b7100000000000000000000000000000000000000000000000000000000600052602260045260246000fd5b60006002820490506001821680620024f057607f821691505b60208210811415620025075762002506620024a8565b5b50919050565b7f4f776e61626c653a206e6577206f776e657220697320746865207a65726f206160008201527f6464726573730000000000000000000000000000000000000000000000000000602082015250565b60006200256b60268362001bd1565b915062002578826200250d565b604082019050919050565b600060208201905081810360008301526200259e816200255c565b905091905056fe60806040523480156200001157600080fd5b5060405162000c4c38038062000c4c833981810160405281019062000037919062000150565b826000819055508160028190555083600460006101000a81548173ffffffffffffffffffffffffffffffffffffffff021916908373ffffffffffffffffffffffffffffffffffffffff1602179055508060038190555050505050620001c2565b600080fd5b600073ffffffffffffffffffffffffffffffffffffffff82169050919050565b6000620000c9826200009c565b9050919050565b6000620000dd82620000bc565b9050919050565b620000ef81620000d0565b8114620000fb57600080fd5b50565b6000815190506200010f81620000e4565b92915050565b6000819050919050565b6200012a8162000115565b81146200013657600080fd5b50565b6000815190506200014a816200011f565b92915050565b600080600080608085870312156200016d576200016c62000097565b5b60006200017d87828801620000fe565b9450506020620001908782880162000139565b9350506040620001a38782880162000139565b9250506060620001b68782880162000139565b91505092959194509250565b610a7a80620001d26000396000f3fe60806040526004361061004e5760003560e01c806317fc45e2146102ed5780632986c0e5146103185780633c8da5881461034357806383d12eef1461036e5780639cf78ba914610399576102de565b366102de576000543414610097576040517f08c379a000000000000000000000000000000000000000000000000000000000815260040161008e906104f7565b60405180910390fd5b600080546001546100a89190610550565b146100e8576040517f08c379a00000000000000000000000000000000000000000000000000000000081526004016100df906105f3565b60405180910390fd5b6000600354141561012e576040517f08c379a000000000000000000000000000000000000000000000000000000000815260040161012590610685565b60405180910390fd5b346001600082825461014091906106d4565b9250508190555060005434610155919061072a565b6005819055506005546003600082825461016f919061075b565b925050819055506000600460009054906101000a900473ffffffffffffffffffffffffffffffffffffffff1673ffffffffffffffffffffffffffffffffffffffff1634600254600554336040516024016101cb939291906107df565b6040516020818303038152906040527fee6bbb6c000000000000000000000000000000000000000000000000000000007bffffffffffffffffffffffffffffffffffffffffffffffffffffffff19166020820180517bffffffffffffffffffffffffffffffffffffffffffffffffffffffff83818316178352505050506040516102559190610890565b60006040518083038185875af1925050503d8060008114610292576040519150601f19603f3d011682016040523d82523d6000602084013e610297565b606091505b50509050806102db576040517f08c379a00000000000000000000000000000000000000000000000000000000081526004016102d290610919565b60405180910390fd5b50005b3480156102ea57600080fd5b50005b3480156102f957600080fd5b506103026103c2565b60405161030f9190610939565b60405180910390f35b34801561032457600080fd5b5061032d6103c8565b60405161033a9190610939565b60405180910390f35b34801561034f57600080fd5b506103586103ce565b6040516103659190610939565b60405180910390f35b34801561037a57600080fd5b506103836103d4565b6040516103909190610939565b60405180910390f35b3480156103a557600080fd5b506103c060048036038101906103bb9190610985565b6103da565b005b60035481565b60025481565b60005481565b60015481565b3373ffffffffffffffffffffffffffffffffffffffff16600460009054906101000a900473ffffffffffffffffffffffffffffffffffffffff1673ffffffffffffffffffffffffffffffffffffffff161461046a576040517f08c379a000000000000000000000000000000000000000000000000000000000815260040161046190610a24565b60405180910390fd5b8060038190555050565b600082825260208201905092915050565b7f536f7272792c207061727469616c207061796d656e747320617265206e6f742060008201527f737570706f727465640000000000000000000000000000000000000000000000602082015250565b60006104e1602983610474565b91506104ec82610485565b604082019050919050565b60006020820190508181036000830152610510816104d4565b9050919050565b6000819050919050565b7f4e487b7100000000000000000000000000000000000000000000000000000000600052601260045260246000fd5b600061055b82610517565b915061056683610517565b92508261057657610575610521565b5b828206905092915050565b7f54686973206974656d2068617320616c7265616479206265656e20706169642060008201527f666f722100000000000000000000000000000000000000000000000000000000602082015250565b60006105dd602483610474565b91506105e882610581565b604082019050919050565b6000602082019050818103600083015261060c816105d0565b9050919050565b7f536f7272792c2074686973206974656d2069732074656d706f726172696c792060008201527f736f6c64206f7574000000000000000000000000000000000000000000000000602082015250565b600061066f602883610474565b915061067a82610613565b604082019050919050565b6000602082019050818103600083015261069e81610662565b9050919050565b7f4e487b7100000000000000000000000000000000000000000000000000000000600052601160045260246000fd5b60006106df82610517565b91506106ea83610517565b9250827fffffffffffffffffffffffffffffffffffffffffffffffffffffffffffffffff0382111561071f5761071e6106a5565b5b828201905092915050565b600061073582610517565b915061074083610517565b9250826107505761074f610521565b5b828204905092915050565b600061076682610517565b915061077183610517565b925082821015610784576107836106a5565b5b828203905092915050565b61079881610517565b82525050565b600073ffffffffffffffffffffffffffffffffffffffff82169050919050565b60006107c98261079e565b9050919050565b6107d9816107be565b82525050565b60006060820190506107f4600083018661078f565b610801602083018561078f565b61080e60408301846107d0565b949350505050565b600081519050919050565b600081905092915050565b60005b8381101561084a57808201518184015260208101905061082f565b83811115610859576000848401525b50505050565b600061086a82610816565b6108748185610821565b935061088481856020860161082c565b80840191505092915050565b600061089c828461085f565b915081905092915050565b7f5061796d656e742070726f63657373696e67206661696c65642c20706c65617360008201527f6520636f6e7461637420746865206f776e657200000000000000000000000000602082015250565b6000610903603383610474565b915061090e826108a7565b604082019050919050565b60006020820190508181036000830152610932816108f6565b9050919050565b600060208201905061094e600083018461078f565b92915050565b600080fd5b61096281610517565b811461096d57600080fd5b50565b60008135905061097f81610959565b92915050565b60006020828403121561099b5761099a610954565b5b60006109a984828501610970565b91505092915050565b7f4f6e6c7920746865206d617374657220636f6e74726163742063616e2075706460008201527f617465206974656d207175616e74697479000000000000000000000000000000602082015250565b6000610a0e603183610474565b9150610a19826109b2565b604082019050919050565b60006020820190508181036000830152610a3d81610a01565b905091905056fea264697066735822122096508373d2ca578f26217eb75e26142a793574a200b9a5486061270a5798a8aa64736f6c63430008090033a26469706673582212206675a11671bcc4075c618d9c31ca7ef1d8316feb05e83a5a094233ab50c7565664736f6c63430008090033",
  "immutableReferences": {},
  "source": "pragma solidity 0.8.9;\r\n\r\nimport \"./ProductSale.sol\";\r\nimport \"@openzeppelin/contracts/access/Ownable.sol\";\r\n\r\n//For this contract Item refers to a single good sold,\r\n//whilst product refers to the catagory of good- in which there may be multiple individual items.\r\ncontract ItemManager is Ownable {\r\n\r\n    struct S_Product {\r\n        ProductSale _product;\r\n        //ItemManager.SupplyChainSteps _step;\r\n        string _identifier;\r\n        uint _priceInWei;\r\n        uint _quantity;\r\n        ItemManager.ProductSteps _productStep;\r\n    }\r\n\r\n    struct Item_Payments {\r\n        mapping(uint => uint) _quantity;\r\n        uint _addressIndex;\r\n        mapping(uint => ItemManager.ItemSteps) _itemStep;\r\n    }\r\n\r\n    mapping(uint => S_Product) public products;\r\n    mapping(address => Item_Payments) public paymentAuth;\r\n    uint index;\r\n\r\n//ItemSteps tracks items, of which there may be many in a product category.\r\n//i.e. Apples (the product) of which there are 100 individual items being tracked\r\n    enum ItemSteps {Unpaid, Paid, Delivered} //removed created- allowing a quantity >1 for each item.\r\n//ProductSteps tracks the products- Products are created with a number of items for sale, once those items are bought the product is SoldOut\r\n    enum ProductSteps {Created, SoldOut}\r\n\r\n    event ProductStep(uint _productIndex, address _address, uint qty, uint _step); //uint _step removed\r\n    event ItemStep(uint _productIndex, address _buyerAddress, uint _addressIndex, uint qtyBought, uint _itemStep);\r\n\r\n    function createItem(string memory _identifier, uint _priceInWei, uint _quantity) public onlyOwner {\r\n        ProductSale product = new ProductSale(this, _priceInWei, index, _quantity);\r\n        products[index]._product = product;\r\n        products[index]._productStep = ProductSteps.Created;\r\n        products[index]._identifier = _identifier;\r\n        products[index]._priceInWei = _priceInWei;\r\n        products[index]._quantity = _quantity;\r\n        emit ProductStep(index, address(product), _quantity, uint(products[index]._productStep));\r\n        index++;\r\n    }\r\n\r\n    function triggerPayment(uint _productIndex, uint qty, address buyer) public payable {\r\n        ProductSale product = products[_productIndex]._product;\r\n        require(address(product) == msg.sender, \"Only items are allowed to update themselves\");\r\n        require(product.priceInWei() == msg.value, \"Not fully paid yet\");\r\n        require(products[_productIndex]._quantity >= qty && products[_productIndex]._quantity > 0, \"The quantity you have ordered exceeds the available quantity\");\r\n        require(products[_productIndex]._productStep != ProductSteps.SoldOut, \"This item is sold out, please contact us to find out when new stock will arrive\");\r\n        paymentAuth[buyer]._itemStep[paymentAuth[buyer]._addressIndex] = ItemSteps.Paid;\r\n        products[_productIndex]._quantity -= qty;\r\n        paymentAuth[buyer]._quantity[paymentAuth[buyer]._addressIndex] = qty;\r\n        emit ItemStep(_productIndex, buyer, paymentAuth[buyer]._addressIndex, uint(paymentAuth[buyer]._itemStep[paymentAuth[buyer]._addressIndex]), qty); //removed: uint(items[_index]._step)\r\n        emit ProductStep(_productIndex, address(products[_productIndex]._product), products[_productIndex]._quantity, uint(products[_productIndex]._productStep));\r\n        paymentAuth[buyer]._addressIndex++;\r\n        if (products[_productIndex]._quantity == 0){\r\n            products[index]._productStep = ProductSteps.Created;\r\n        }\r\n    }\r\n\r\n    function triggerDelivery(uint _productIndex, address buyer, uint address_index) public onlyOwner {\r\n        require(paymentAuth[buyer]._itemStep[address_index] == ItemSteps.Paid, \"Item is further in the supply chain\");\r\n        paymentAuth[buyer]._itemStep[address_index] = ItemSteps.Delivered;\r\n        emit ProductStep(_productIndex, address(products[_productIndex]._product), products[_productIndex]._quantity, uint(products[_productIndex]._productStep));\r\n        emit ItemStep(_productIndex, buyer, address_index, uint(paymentAuth[buyer]._itemStep[paymentAuth[buyer]._addressIndex]), paymentAuth[buyer]._quantity[paymentAuth[buyer]._addressIndex]); //removed: uint(items[_index]._step)\r\n    }\r\n\r\n    function updateQuantity(uint newQuantity, uint itemIndex) public onlyOwner {\r\n        products[itemIndex]._quantity = newQuantity;\r\n        (bool success, ) = address(products[itemIndex]._product).call(abi.encodeWithSignature(\"updateQty(uint256)\", newQuantity));\r\n        require(success, \"Product quantity update failed, please try again\");\r\n    }\r\n\r\n    function getIndexCount() public view returns(uint) {\r\n        return(index);\r\n    }\r\n\r\n    function productData(uint _index) public view returns(string memory, uint, uint) {\r\n        return(products[_index]._identifier, products[_index]._priceInWei, products[_index]._quantity);\r\n    }\r\n\r\n}",
  "sourcePath": "C:\\Users\\nicba\\SupplyChain\\contracts\\ItemManager.sol",
  "compiler": {
    "name": "solc",
    "version": "0.8.9+commit.e5eed63a.Emscripten.clang"
  },
  "schemaVersion": "3.4.6",
  "updatedAt": "2022-04-11T20:30:26.020Z",
  "networkType": "ethereum",
  "devdoc": {
    "kind": "dev",
    "methods": {
      "owner()": {
        "details": "Returns the address of the current owner."
      },
      "renounceOwnership()": {
        "details": "Leaves the contract without owner. It will not be possible to call `onlyOwner` functions anymore. Can only be called by the current owner. NOTE: Renouncing ownership will leave the contract without an owner, thereby removing any functionality that is only available to the owner."
      },
      "transferOwnership(address)": {
        "details": "Transfers ownership of the contract to a new account (`newOwner`). Can only be called by the current owner."
      }
    },
    "version": 1
  },
  "userdoc": {
    "kind": "user",
    "methods": {},
    "version": 1
  }
}