{
  "contractName": "ItemManager",
  "abi": [
    {
      "anonymous": false,
      "inputs": [
        {
          "indexed": false,
          "internalType": "uint256",
          "name": "_productIndex",
          "type": "uint256"
        },
        {
          "indexed": false,
          "internalType": "address",
          "name": "_buyerAddress",
          "type": "address"
        },
        {
          "indexed": false,
          "internalType": "uint256",
          "name": "_addressIndex",
          "type": "uint256"
        },
        {
          "indexed": false,
          "internalType": "uint256",
          "name": "qtyBought",
          "type": "uint256"
        },
        {
          "indexed": false,
          "internalType": "uint256",
          "name": "_itemStep",
          "type": "uint256"
        }
      ],
      "name": "ItemStep",
      "type": "event"
    },
    {
      "anonymous": false,
      "inputs": [
        {
          "indexed": true,
          "internalType": "address",
          "name": "previousOwner",
          "type": "address"
        },
        {
          "indexed": true,
          "internalType": "address",
          "name": "newOwner",
          "type": "address"
        }
      ],
      "name": "OwnershipTransferred",
      "type": "event"
    },
    {
      "anonymous": false,
      "inputs": [
        {
          "indexed": false,
          "internalType": "uint256",
          "name": "_productIndex",
          "type": "uint256"
        },
        {
          "indexed": false,
          "internalType": "address",
          "name": "_address",
          "type": "address"
        },
        {
          "indexed": false,
          "internalType": "uint256",
          "name": "qty",
          "type": "uint256"
        },
        {
          "indexed": false,
          "internalType": "uint256",
          "name": "_step",
          "type": "uint256"
        }
      ],
      "name": "ProductStep",
      "type": "event"
    },
    {
      "inputs": [],
      "name": "owner",
      "outputs": [
        {
          "internalType": "address",
          "name": "",
          "type": "address"
        }
      ],
      "stateMutability": "view",
      "type": "function",
      "constant": true
    },
    {
      "inputs": [
        {
          "internalType": "address",
          "name": "",
          "type": "address"
        }
      ],
      "name": "paymentAuth",
      "outputs": [
        {
          "internalType": "uint256",
          "name": "_addressIndex",
          "type": "uint256"
        }
      ],
      "stateMutability": "view",
      "type": "function",
      "constant": true
    },
    {
      "inputs": [
        {
          "internalType": "uint256",
          "name": "",
          "type": "uint256"
        }
      ],
      "name": "products",
      "outputs": [
        {
          "internalType": "contract ProductSale",
          "name": "_product",
          "type": "address"
        },
        {
          "internalType": "string",
          "name": "_identifier",
          "type": "string"
        },
        {
          "internalType": "uint256",
          "name": "_priceInWei",
          "type": "uint256"
        },
        {
          "internalType": "uint256",
          "name": "_quantity",
          "type": "uint256"
        },
        {
          "internalType": "enum ItemManager.ProductSteps",
          "name": "_productStep",
          "type": "uint8"
        }
      ],
      "stateMutability": "view",
      "type": "function",
      "constant": true
    },
    {
      "inputs": [],
      "name": "renounceOwnership",
      "outputs": [],
      "stateMutability": "nonpayable",
      "type": "function"
    },
    {
      "inputs": [
        {
          "internalType": "address",
          "name": "newOwner",
          "type": "address"
        }
      ],
      "name": "transferOwnership",
      "outputs": [],
      "stateMutability": "nonpayable",
      "type": "function"
    },
    {
      "inputs": [
        {
          "internalType": "string",
          "name": "_identifier",
          "type": "string"
        },
        {
          "internalType": "uint256",
          "name": "_priceInWei",
          "type": "uint256"
        },
        {
          "internalType": "uint256",
          "name": "_quantity",
          "type": "uint256"
        }
      ],
      "name": "createItem",
      "outputs": [],
      "stateMutability": "nonpayable",
      "type": "function"
    },
    {
      "inputs": [
        {
          "internalType": "uint256",
          "name": "_productIndex",
          "type": "uint256"
        },
        {
          "internalType": "uint256",
          "name": "qty",
          "type": "uint256"
        },
        {
          "internalType": "address",
          "name": "buyer",
          "type": "address"
        }
      ],
      "name": "triggerPayment",
      "outputs": [],
      "stateMutability": "payable",
      "type": "function",
      "payable": true
    },
    {
      "inputs": [
        {
          "internalType": "uint256",
          "name": "_productIndex",
          "type": "uint256"
        },
        {
          "internalType": "address",
          "name": "buyer",
          "type": "address"
        },
        {
          "internalType": "uint256",
          "name": "address_index",
          "type": "uint256"
        }
      ],
      "name": "triggerDelivery",
      "outputs": [],
      "stateMutability": "nonpayable",
      "type": "function"
    },
    {
      "inputs": [
        {
          "internalType": "uint256",
          "name": "newQuantity",
          "type": "uint256"
        },
        {
          "internalType": "uint256",
          "name": "itemIndex",
          "type": "uint256"
        },
        {
          "internalType": "uint256",
          "name": "cost",
          "type": "uint256"
        }
      ],
      "name": "updateQuantity",
      "outputs": [],
      "stateMutability": "nonpayable",
      "type": "function"
    },
    {
      "inputs": [],
      "name": "getIndexCount",
      "outputs": [
        {
          "internalType": "uint256",
          "name": "",
          "type": "uint256"
        }
      ],
      "stateMutability": "view",
      "type": "function",
      "constant": true
    },
    {
      "inputs": [
        {
          "internalType": "uint256",
          "name": "_index",
          "type": "uint256"
        }
      ],
      "name": "productData",
      "outputs": [
        {
          "internalType": "string",
          "name": "",
          "type": "string"
        },
        {
          "internalType": "uint256",
          "name": "",
          "type": "uint256"
        },
        {
          "internalType": "uint256",
          "name": "",
          "type": "uint256"
        }
      ],
      "stateMutability": "view",
      "type": "function",
      "constant": true
    }
  ],
  "bytecode": "0x60806040523480156200001157600080fd5b5062000032620000266200003860201b60201c565b6200004060201b60201c565b62000104565b600033905090565b60008060009054906101000a900473ffffffffffffffffffffffffffffffffffffffff169050816000806101000a81548173ffffffffffffffffffffffffffffffffffffffff021916908373ffffffffffffffffffffffffffffffffffffffff1602179055508173ffffffffffffffffffffffffffffffffffffffff168173ffffffffffffffffffffffffffffffffffffffff167f8be0079c531659141344cd1fd0a4f28419497f9722a3daafe3b4186f6b6457e060405160405180910390a35050565b61333080620001146000396000f3fe608060405260043610620000aa5760003560e01c80637ace8038116200006d5780637ace8038146200018d5780638da5cb5b14620001d15780639f5ce9101462000201578063c49ca9471462000247578063ec2443701462000275578063f2fde38b14620002a557620000aa565b8063108155bc14620000af5780633c3e36d614620000dd578063715018a6146200010b57806374ff68b614620001255780637acc0b201462000145575b600080fd5b348015620000bc57600080fd5b50620000db6004803603810190620000d59190620019a6565b620002d3565b005b348015620000ea57600080fd5b5062000109600480360381019062000103919062001a86565b6200053a565b005b3480156200011857600080fd5b506200012362000960565b005b6200014360048036038101906200013d919062001ae2565b620009f1565b005b3480156200015257600080fd5b506200017160048036038101906200016b919062001b3e565b620010c1565b6040516200018495949392919062001cff565b60405180910390f35b3480156200019a57600080fd5b50620001b96004803603810190620001b3919062001d63565b620011b4565b604051620001c8919062001d95565b60405180910390f35b348015620001de57600080fd5b50620001e9620011d2565b604051620001f8919062001dc3565b60405180910390f35b3480156200020e57600080fd5b506200022d600480360381019062000227919062001b3e565b620011fb565b6040516200023e9392919062001de0565b60405180910390f35b3480156200025457600080fd5b506200027360048036038101906200026d919062001e24565b620012e5565b005b3480156200028257600080fd5b506200028d6200155d565b6040516200029c919062001d95565b60405180910390f35b348015620002b257600080fd5b50620002d16004803603810190620002cb919062001d63565b62001567565b005b620002dd6200166b565b73ffffffffffffffffffffffffffffffffffffffff16620002fd620011d2565b73ffffffffffffffffffffffffffffffffffffffff161462000356576040517f08c379a00000000000000000000000000000000000000000000000000000000081526004016200034d9062001ed0565b60405180910390fd5b60003083600354846040516200036c9062001737565b6200037b949392919062001f2b565b604051809103906000f08015801562000398573d6000803e3d6000fd5b5090508060016000600354815260200190815260200160002060000160006101000a81548173ffffffffffffffffffffffffffffffffffffffff021916908373ffffffffffffffffffffffffffffffffffffffff160217905550600060016000600354815260200190815260200160002060040160006101000a81548160ff0219169083600181111562000431576200043062001c7f565b5b02179055508360016000600354815260200190815260200160002060010190805190602001906200046492919062001745565b50826001600060035481526020019081526020016000206002018190555081600160006003548152602001908152602001600020600301819055507fcb9061982f2a0ca7ce09c1c19c8f10cb3fd8b2c34c924179a1f38842fd55b968600354828460016000600354815260200190815260200160002060040160009054906101000a900460ff1660018111156200050057620004ff62001c7f565b5b60405162000512949392919062001f78565b60405180910390a1600360008154809291906200052f9062001ff4565b919050555050505050565b620005446200166b565b73ffffffffffffffffffffffffffffffffffffffff1662000564620011d2565b73ffffffffffffffffffffffffffffffffffffffff1614620005bd576040517f08c379a0000000000000000000000000000000000000000000000000000000008152600401620005b49062001ed0565b60405180910390fd5b60016002811115620005d457620005d362001c7f565b5b600260008473ffffffffffffffffffffffffffffffffffffffff1673ffffffffffffffffffffffffffffffffffffffff168152602001908152602001600020600201600083815260200190815260200160002060009054906101000a900460ff1660028111156200064a576200064962001c7f565b5b146200068d576040517f08c379a00000000000000000000000000000000000000000000000000000000081526004016200068490620020b8565b60405180910390fd5b60028060008473ffffffffffffffffffffffffffffffffffffffff1673ffffffffffffffffffffffffffffffffffffffff168152602001908152602001600020600201600083815260200190815260200160002060006101000a81548160ff0219169083600281111562000706576200070562001c7f565b5b02179055507fcb9061982f2a0ca7ce09c1c19c8f10cb3fd8b2c34c924179a1f38842fd55b968836001600086815260200190815260200160002060000160009054906101000a900473ffffffffffffffffffffffffffffffffffffffff1660016000878152602001908152602001600020600301546001600088815260200190815260200160002060040160009054906101000a900460ff166001811115620007b457620007b362001c7f565b5b604051620007c6949392919062001f78565b60405180910390a17f235280cce55153589b2310decf136eaaed1d4c47c6bf922abc8fd73dc1083038838383600260008773ffffffffffffffffffffffffffffffffffffffff1673ffffffffffffffffffffffffffffffffffffffff1681526020019081526020016000206002016000600260008973ffffffffffffffffffffffffffffffffffffffff1673ffffffffffffffffffffffffffffffffffffffff16815260200190815260200160002060010154815260200190815260200160002060009054906101000a900460ff166002811115620008aa57620008a962001c7f565b5b600260008873ffffffffffffffffffffffffffffffffffffffff1673ffffffffffffffffffffffffffffffffffffffff1681526020019081526020016000206000016000600260008a73ffffffffffffffffffffffffffffffffffffffff1673ffffffffffffffffffffffffffffffffffffffff1681526020019081526020016000206001015481526020019081526020016000205460405162000953959493929190620020da565b60405180910390a1505050565b6200096a6200166b565b73ffffffffffffffffffffffffffffffffffffffff166200098a620011d2565b73ffffffffffffffffffffffffffffffffffffffff1614620009e3576040517f08c379a0000000000000000000000000000000000000000000000000000000008152600401620009da9062001ed0565b60405180910390fd5b620009ef600062001673565b565b60006001600085815260200190815260200160002060000160009054906101000a900473ffffffffffffffffffffffffffffffffffffffff1690503373ffffffffffffffffffffffffffffffffffffffff168173ffffffffffffffffffffffffffffffffffffffff161462000a9d576040517f08c379a000000000000000000000000000000000000000000000000000000000815260040162000a9490620021ad565b60405180910390fd5b348173ffffffffffffffffffffffffffffffffffffffff16633c8da5886040518163ffffffff1660e01b815260040160206040518083038186803b15801562000ae557600080fd5b505afa15801562000afa573d6000803e3d6000fd5b505050506040513d601f19601f8201168201806040525081019062000b209190620021e6565b1462000b63576040517f08c379a000000000000000000000000000000000000000000000000000000000815260040162000b5a9062002268565b60405180910390fd5b8260016000868152602001908152602001600020600301541015801562000ba0575060006001600086815260200190815260200160002060030154115b62000be2576040517f08c379a000000000000000000000000000000000000000000000000000000000815260040162000bd99062002300565b60405180910390fd5b60018081111562000bf85762000bf762001c7f565b5b6001600086815260200190815260200160002060040160009054906101000a900460ff16600181111562000c315762000c3062001c7f565b5b141562000c75576040517f08c379a000000000000000000000000000000000000000000000000000000000815260040162000c6c90620023be565b60405180910390fd5b6001600260008473ffffffffffffffffffffffffffffffffffffffff1673ffffffffffffffffffffffffffffffffffffffff1681526020019081526020016000206002016000600260008673ffffffffffffffffffffffffffffffffffffffff1673ffffffffffffffffffffffffffffffffffffffff16815260200190815260200160002060010154815260200190815260200160002060006101000a81548160ff0219169083600281111562000d315762000d3062001c7f565b5b02179055508260016000868152602001908152602001600020600301600082825462000d5e9190620023e0565b9250508190555082600260008473ffffffffffffffffffffffffffffffffffffffff1673ffffffffffffffffffffffffffffffffffffffff1681526020019081526020016000206000016000600260008673ffffffffffffffffffffffffffffffffffffffff1673ffffffffffffffffffffffffffffffffffffffff168152602001908152602001600020600101548152602001908152602001600020819055507f235280cce55153589b2310decf136eaaed1d4c47c6bf922abc8fd73dc10830388483600260008673ffffffffffffffffffffffffffffffffffffffff1673ffffffffffffffffffffffffffffffffffffffff16815260200190815260200160002060010154600260008773ffffffffffffffffffffffffffffffffffffffff1673ffffffffffffffffffffffffffffffffffffffff1681526020019081526020016000206002016000600260008973ffffffffffffffffffffffffffffffffffffffff1673ffffffffffffffffffffffffffffffffffffffff16815260200190815260200160002060010154815260200190815260200160002060009054906101000a900460ff16600281111562000f1d5762000f1c62001c7f565b5b8760405162000f31959493929190620020da565b60405180910390a17fcb9061982f2a0ca7ce09c1c19c8f10cb3fd8b2c34c924179a1f38842fd55b968846001600087815260200190815260200160002060000160009054906101000a900473ffffffffffffffffffffffffffffffffffffffff1660016000888152602001908152602001600020600301546001600089815260200190815260200160002060040160009054906101000a900460ff16600181111562000fe25762000fe162001c7f565b5b60405162000ff4949392919062001f78565b60405180910390a1600260008373ffffffffffffffffffffffffffffffffffffffff1673ffffffffffffffffffffffffffffffffffffffff1681526020019081526020016000206001016000815480929190620010519062001ff4565b9190505550600060016000868152602001908152602001600020600301541415620010bb57600060016000600354815260200190815260200160002060040160006101000a81548160ff02191690836001811115620010b557620010b462001c7f565b5b02179055505b50505050565b60016020528060005260406000206000915090508060000160009054906101000a900473ffffffffffffffffffffffffffffffffffffffff16908060010180546200110c906200244a565b80601f01602080910402602001604051908101604052809291908181526020018280546200113a906200244a565b80156200118b5780601f106200115f576101008083540402835291602001916200118b565b820191906000526020600020905b8154815290600101906020018083116200116d57829003601f168201915b5050505050908060020154908060030154908060040160009054906101000a900460ff16905085565b60026020528060005260406000206000915090508060010154905081565b60008060009054906101000a900473ffffffffffffffffffffffffffffffffffffffff16905090565b6060600080600160008581526020019081526020016000206001016001600086815260200190815260200160002060020154600160008781526020019081526020016000206003015482805462001252906200244a565b80601f016020809104026020016040519081016040528092919081815260200182805462001280906200244a565b8015620012d15780601f10620012a557610100808354040283529160200191620012d1565b820191906000526020600020905b815481529060010190602001808311620012b357829003601f168201915b505050505092509250925092509193909250565b620012ef6200166b565b73ffffffffffffffffffffffffffffffffffffffff166200130f620011d2565b73ffffffffffffffffffffffffffffffffffffffff161462001368576040517f08c379a00000000000000000000000000000000000000000000000000000000081526004016200135f9062001ed0565b60405180910390fd5b60016000838152602001908152602001600020600201548114620013c3576040517f08c379a0000000000000000000000000000000000000000000000000000000008152600401620013ba90620024f6565b60405180910390fd5b82600160008481526020019081526020016000206003018190555060006001600084815260200190815260200160002060000160009054906101000a900473ffffffffffffffffffffffffffffffffffffffff1673ffffffffffffffffffffffffffffffffffffffff168460405160240162001440919062001d95565b6040516020818303038152906040527f9cf78ba9000000000000000000000000000000000000000000000000000000007bffffffffffffffffffffffffffffffffffffffffffffffffffffffff19166020820180517bffffffffffffffffffffffffffffffffffffffffffffffffffffffff8381831617835250505050604051620014cc919062002565565b6000604051808303816000865af19150503d80600081146200150b576040519150601f19603f3d011682016040523d82523d6000602084013e62001510565b606091505b505090508062001557576040517f08c379a00000000000000000000000000000000000000000000000000000000081526004016200154e90620025f4565b60405180910390fd5b50505050565b6000600354905090565b620015716200166b565b73ffffffffffffffffffffffffffffffffffffffff1662001591620011d2565b73ffffffffffffffffffffffffffffffffffffffff1614620015ea576040517f08c379a0000000000000000000000000000000000000000000000000000000008152600401620015e19062001ed0565b60405180910390fd5b600073ffffffffffffffffffffffffffffffffffffffff168173ffffffffffffffffffffffffffffffffffffffff1614156200165d576040517f08c379a000000000000000000000000000000000000000000000000000000000815260040162001654906200268c565b60405180910390fd5b620016688162001673565b50565b600033905090565b60008060009054906101000a900473ffffffffffffffffffffffffffffffffffffffff169050816000806101000a81548173ffffffffffffffffffffffffffffffffffffffff021916908373ffffffffffffffffffffffffffffffffffffffff1602179055508173ffffffffffffffffffffffffffffffffffffffff168173ffffffffffffffffffffffffffffffffffffffff167f8be0079c531659141344cd1fd0a4f28419497f9722a3daafe3b4186f6b6457e060405160405180910390a35050565b610c4c80620026af83390190565b82805462001753906200244a565b90600052602060002090601f016020900481019282620017775760008555620017c3565b82601f106200179257805160ff1916838001178555620017c3565b82800160010185558215620017c3579182015b82811115620017c2578251825591602001919060010190620017a5565b5b509050620017d29190620017d6565b5090565b5b80821115620017f1576000816000905550600101620017d7565b5090565b6000604051905090565b600080fd5b600080fd5b600080fd5b600080fd5b6000601f19601f8301169050919050565b7f4e487b7100000000000000000000000000000000000000000000000000000000600052604160045260246000fd5b6200185e8262001813565b810181811067ffffffffffffffff8211171562001880576200187f62001824565b5b80604052505050565b600062001895620017f5565b9050620018a3828262001853565b919050565b600067ffffffffffffffff821115620018c657620018c562001824565b5b620018d18262001813565b9050602081019050919050565b82818337600083830152505050565b600062001904620018fe84620018a8565b62001889565b9050828152602081018484840111156200192357620019226200180e565b5b62001930848285620018de565b509392505050565b600082601f83011262001950576200194f62001809565b5b813562001962848260208601620018ed565b91505092915050565b6000819050919050565b62001980816200196b565b81146200198c57600080fd5b50565b600081359050620019a08162001975565b92915050565b600080600060608486031215620019c257620019c1620017ff565b5b600084013567ffffffffffffffff811115620019e357620019e262001804565b5b620019f18682870162001938565b935050602062001a04868287016200198f565b925050604062001a17868287016200198f565b9150509250925092565b600073ffffffffffffffffffffffffffffffffffffffff82169050919050565b600062001a4e8262001a21565b9050919050565b62001a608162001a41565b811462001a6c57600080fd5b50565b60008135905062001a808162001a55565b92915050565b60008060006060848603121562001aa25762001aa1620017ff565b5b600062001ab2868287016200198f565b935050602062001ac58682870162001a6f565b925050604062001ad8868287016200198f565b9150509250925092565b60008060006060848603121562001afe5762001afd620017ff565b5b600062001b0e868287016200198f565b935050602062001b21868287016200198f565b925050604062001b348682870162001a6f565b9150509250925092565b60006020828403121562001b575762001b56620017ff565b5b600062001b67848285016200198f565b91505092915050565b6000819050919050565b600062001b9b62001b9562001b8f8462001a21565b62001b70565b62001a21565b9050919050565b600062001baf8262001b7a565b9050919050565b600062001bc38262001ba2565b9050919050565b62001bd58162001bb6565b82525050565b600081519050919050565b600082825260208201905092915050565b60005b8381101562001c1757808201518184015260208101905062001bfa565b8381111562001c27576000848401525b50505050565b600062001c3a8262001bdb565b62001c46818562001be6565b935062001c5881856020860162001bf7565b62001c638162001813565b840191505092915050565b62001c79816200196b565b82525050565b7f4e487b7100000000000000000000000000000000000000000000000000000000600052602160045260246000fd5b6002811062001cc25762001cc162001c7f565b5b50565b600081905062001cd58262001cae565b919050565b600062001ce78262001cc5565b9050919050565b62001cf98162001cda565b82525050565b600060a08201905062001d16600083018862001bca565b818103602083015262001d2a818762001c2d565b905062001d3b604083018662001c6e565b62001d4a606083018562001c6e565b62001d59608083018462001cee565b9695505050505050565b60006020828403121562001d7c5762001d7b620017ff565b5b600062001d8c8482850162001a6f565b91505092915050565b600060208201905062001dac600083018462001c6e565b92915050565b62001dbd8162001a41565b82525050565b600060208201905062001dda600083018462001db2565b92915050565b6000606082019050818103600083015262001dfc818662001c2d565b905062001e0d602083018562001c6e565b62001e1c604083018462001c6e565b949350505050565b60008060006060848603121562001e405762001e3f620017ff565b5b600062001e50868287016200198f565b935050602062001e63868287016200198f565b925050604062001e76868287016200198f565b9150509250925092565b7f4f776e61626c653a2063616c6c6572206973206e6f7420746865206f776e6572600082015250565b600062001eb860208362001be6565b915062001ec58262001e80565b602082019050919050565b6000602082019050818103600083015262001eeb8162001ea9565b9050919050565b600062001eff8262001b7a565b9050919050565b600062001f138262001ef2565b9050919050565b62001f258162001f06565b82525050565b600060808201905062001f42600083018762001f1a565b62001f51602083018662001c6e565b62001f60604083018562001c6e565b62001f6f606083018462001c6e565b95945050505050565b600060808201905062001f8f600083018762001c6e565b62001f9e602083018662001db2565b62001fad604083018562001c6e565b62001fbc606083018462001c6e565b95945050505050565b7f4e487b7100000000000000000000000000000000000000000000000000000000600052601160045260246000fd5b600062002001826200196b565b91507fffffffffffffffffffffffffffffffffffffffffffffffffffffffffffffffff82141562002037576200203662001fc5565b5b600182019050919050565b7f4974656d206973206675727468657220696e2074686520737570706c7920636860008201527f61696e0000000000000000000000000000000000000000000000000000000000602082015250565b6000620020a060238362001be6565b9150620020ad8262002042565b604082019050919050565b60006020820190508181036000830152620020d38162002091565b9050919050565b600060a082019050620020f1600083018862001c6e565b62002100602083018762001db2565b6200210f604083018662001c6e565b6200211e606083018562001c6e565b6200212d608083018462001c6e565b9695505050505050565b7f4f6e6c79206974656d732061726520616c6c6f77656420746f2075706461746560008201527f207468656d73656c766573000000000000000000000000000000000000000000602082015250565b600062002195602b8362001be6565b9150620021a28262002137565b604082019050919050565b60006020820190508181036000830152620021c88162002186565b9050919050565b600081519050620021e08162001975565b92915050565b600060208284031215620021ff57620021fe620017ff565b5b60006200220f84828501620021cf565b91505092915050565b7f4e6f742066756c6c792070616964207965740000000000000000000000000000600082015250565b60006200225060128362001be6565b91506200225d8262002218565b602082019050919050565b60006020820190508181036000830152620022838162002241565b9050919050565b7f546865207175616e7469747920796f752068617665206f72646572656420657860008201527f63656564732074686520617661696c61626c65207175616e7469747900000000602082015250565b6000620022e8603c8362001be6565b9150620022f5826200228a565b604082019050919050565b600060208201905081810360008301526200231b81620022d9565b9050919050565b7f54686973206974656d20697320736f6c64206f75742c20706c6561736520636f60008201527f6e7461637420757320746f2066696e64206f7574207768656e206e657720737460208201527f6f636b2077696c6c206172726976650000000000000000000000000000000000604082015250565b6000620023a6604f8362001be6565b9150620023b38262002322565b606082019050919050565b60006020820190508181036000830152620023d98162002397565b9050919050565b6000620023ed826200196b565b9150620023fa836200196b565b92508282101562002410576200240f62001fc5565b5b828203905092915050565b7f4e487b7100000000000000000000000000000000000000000000000000000000600052602260045260246000fd5b600060028204905060018216806200246357607f821691505b602082108114156200247a57620024796200241b565b5b50919050565b7f54686520636f737420646f6573206e6f74206d6174636820746865206974656d60008201527f20696e6465782c2063616e6e6f7420757064617465207175616e746974790000602082015250565b6000620024de603e8362001be6565b9150620024eb8262002480565b604082019050919050565b600060208201905081810360008301526200251181620024cf565b9050919050565b600081519050919050565b600081905092915050565b60006200253b8262002518565b62002547818562002523565b93506200255981856020860162001bf7565b80840191505092915050565b60006200257382846200252e565b915081905092915050565b7f50726f64756374207175616e7469747920757064617465206661696c65642c2060008201527f706c656173652074727920616761696e00000000000000000000000000000000602082015250565b6000620025dc60308362001be6565b9150620025e9826200257e565b604082019050919050565b600060208201905081810360008301526200260f81620025cd565b9050919050565b7f4f776e61626c653a206e6577206f776e657220697320746865207a65726f206160008201527f6464726573730000000000000000000000000000000000000000000000000000602082015250565b60006200267460268362001be6565b9150620026818262002616565b604082019050919050565b60006020820190508181036000830152620026a78162002665565b905091905056fe60806040523480156200001157600080fd5b5060405162000c4c38038062000c4c833981810160405281019062000037919062000150565b826000819055508160028190555083600460006101000a81548173ffffffffffffffffffffffffffffffffffffffff021916908373ffffffffffffffffffffffffffffffffffffffff1602179055508060038190555050505050620001c2565b600080fd5b600073ffffffffffffffffffffffffffffffffffffffff82169050919050565b6000620000c9826200009c565b9050919050565b6000620000dd82620000bc565b9050919050565b620000ef81620000d0565b8114620000fb57600080fd5b50565b6000815190506200010f81620000e4565b92915050565b6000819050919050565b6200012a8162000115565b81146200013657600080fd5b50565b6000815190506200014a816200011f565b92915050565b600080600080608085870312156200016d576200016c62000097565b5b60006200017d87828801620000fe565b9450506020620001908782880162000139565b9350506040620001a38782880162000139565b9250506060620001b68782880162000139565b91505092959194509250565b610a7a80620001d26000396000f3fe60806040526004361061004e5760003560e01c806317fc45e2146102ed5780632986c0e5146103185780633c8da5881461034357806383d12eef1461036e5780639cf78ba914610399576102de565b366102de576000543414610097576040517f08c379a000000000000000000000000000000000000000000000000000000000815260040161008e906104f7565b60405180910390fd5b600080546001546100a89190610550565b146100e8576040517f08c379a00000000000000000000000000000000000000000000000000000000081526004016100df906105f3565b60405180910390fd5b6000600354141561012e576040517f08c379a000000000000000000000000000000000000000000000000000000000815260040161012590610685565b60405180910390fd5b346001600082825461014091906106d4565b9250508190555060005434610155919061072a565b6005819055506005546003600082825461016f919061075b565b925050819055506000600460009054906101000a900473ffffffffffffffffffffffffffffffffffffffff1673ffffffffffffffffffffffffffffffffffffffff1634600254600554336040516024016101cb939291906107df565b6040516020818303038152906040527fee6bbb6c000000000000000000000000000000000000000000000000000000007bffffffffffffffffffffffffffffffffffffffffffffffffffffffff19166020820180517bffffffffffffffffffffffffffffffffffffffffffffffffffffffff83818316178352505050506040516102559190610890565b60006040518083038185875af1925050503d8060008114610292576040519150601f19603f3d011682016040523d82523d6000602084013e610297565b606091505b50509050806102db576040517f08c379a00000000000000000000000000000000000000000000000000000000081526004016102d290610919565b60405180910390fd5b50005b3480156102ea57600080fd5b50005b3480156102f957600080fd5b506103026103c2565b60405161030f9190610939565b60405180910390f35b34801561032457600080fd5b5061032d6103c8565b60405161033a9190610939565b60405180910390f35b34801561034f57600080fd5b506103586103ce565b6040516103659190610939565b60405180910390f35b34801561037a57600080fd5b506103836103d4565b6040516103909190610939565b60405180910390f35b3480156103a557600080fd5b506103c060048036038101906103bb9190610985565b6103da565b005b60035481565b60025481565b60005481565b60015481565b3373ffffffffffffffffffffffffffffffffffffffff16600460009054906101000a900473ffffffffffffffffffffffffffffffffffffffff1673ffffffffffffffffffffffffffffffffffffffff161461046a576040517f08c379a000000000000000000000000000000000000000000000000000000000815260040161046190610a24565b60405180910390fd5b8060038190555050565b600082825260208201905092915050565b7f536f7272792c207061727469616c207061796d656e747320617265206e6f742060008201527f737570706f727465640000000000000000000000000000000000000000000000602082015250565b60006104e1602983610474565b91506104ec82610485565b604082019050919050565b60006020820190508181036000830152610510816104d4565b9050919050565b6000819050919050565b7f4e487b7100000000000000000000000000000000000000000000000000000000600052601260045260246000fd5b600061055b82610517565b915061056683610517565b92508261057657610575610521565b5b828206905092915050565b7f54686973206974656d2068617320616c7265616479206265656e20706169642060008201527f666f722100000000000000000000000000000000000000000000000000000000602082015250565b60006105dd602483610474565b91506105e882610581565b604082019050919050565b6000602082019050818103600083015261060c816105d0565b9050919050565b7f536f7272792c2074686973206974656d2069732074656d706f726172696c792060008201527f736f6c64206f7574000000000000000000000000000000000000000000000000602082015250565b600061066f602883610474565b915061067a82610613565b604082019050919050565b6000602082019050818103600083015261069e81610662565b9050919050565b7f4e487b7100000000000000000000000000000000000000000000000000000000600052601160045260246000fd5b60006106df82610517565b91506106ea83610517565b9250827fffffffffffffffffffffffffffffffffffffffffffffffffffffffffffffffff0382111561071f5761071e6106a5565b5b828201905092915050565b600061073582610517565b915061074083610517565b9250826107505761074f610521565b5b828204905092915050565b600061076682610517565b915061077183610517565b925082821015610784576107836106a5565b5b828203905092915050565b61079881610517565b82525050565b600073ffffffffffffffffffffffffffffffffffffffff82169050919050565b60006107c98261079e565b9050919050565b6107d9816107be565b82525050565b60006060820190506107f4600083018661078f565b610801602083018561078f565b61080e60408301846107d0565b949350505050565b600081519050919050565b600081905092915050565b60005b8381101561084a57808201518184015260208101905061082f565b83811115610859576000848401525b50505050565b600061086a82610816565b6108748185610821565b935061088481856020860161082c565b80840191505092915050565b600061089c828461085f565b915081905092915050565b7f5061796d656e742070726f63657373696e67206661696c65642c20706c65617360008201527f6520636f6e7461637420746865206f776e657200000000000000000000000000602082015250565b6000610903603383610474565b915061090e826108a7565b604082019050919050565b60006020820190508181036000830152610932816108f6565b9050919050565b600060208201905061094e600083018461078f565b92915050565b600080fd5b61096281610517565b811461096d57600080fd5b50565b60008135905061097f81610959565b92915050565b60006020828403121561099b5761099a610954565b5b60006109a984828501610970565b91505092915050565b7f4f6e6c7920746865206d617374657220636f6e74726163742063616e2075706460008201527f617465206974656d207175616e74697479000000000000000000000000000000602082015250565b6000610a0e603183610474565b9150610a19826109b2565b604082019050919050565b60006020820190508181036000830152610a3d81610a01565b905091905056fea264697066735822122016d741a541e47ddb380ceea7e3e1d2327b65808266f0dfb78713387ebea23dc364736f6c63430008090033a26469706673582212205d88f70f438e3efa08a1ad55032ef529d675311b502d1f7a2d13ba55ef804db664736f6c63430008090033",
  "immutableReferences": {},
  "source": "pragma solidity 0.8.9;\r\n\r\nimport \"./ProductSale.sol\";\r\nimport \"@openzeppelin/contracts/access/Ownable.sol\";\r\n\r\n//For this contract Item refers to a single good sold,\r\n//whilst product refers to the catagory of good- in which there may be multiple individual items.\r\ncontract ItemManager is Ownable {\r\n\r\n    struct S_Product {\r\n        ProductSale _product;\r\n        //ItemManager.SupplyChainSteps _step;\r\n        string _identifier;\r\n        uint _priceInWei;\r\n        uint _quantity;\r\n        ItemManager.ProductSteps _productStep;\r\n    }\r\n\r\n    struct Item_Payments {\r\n        mapping(uint => uint) _quantity;\r\n        uint _addressIndex;\r\n        mapping(uint => ItemManager.ItemSteps) _itemStep;\r\n    }\r\n\r\n    mapping(uint => S_Product) public products;\r\n    mapping(address => Item_Payments) public paymentAuth;\r\n    uint index;\r\n\r\n//ItemSteps tracks items, of which there may be many in a product category.\r\n//i.e. Apples (the product) of which there are 100 individual items being tracked\r\n    enum ItemSteps {Unpaid, Paid, Delivered} //removed created- allowing a quantity >1 for each item.\r\n//ProductSteps tracks the products- Products are created with a number of items for sale, once those items are bought the product is SoldOut\r\n    enum ProductSteps {Created, SoldOut}\r\n\r\n    event ProductStep(uint _productIndex, address _address, uint qty, uint _step); //uint _step removed\r\n    event ItemStep(uint _productIndex, address _buyerAddress, uint _addressIndex, uint qtyBought, uint _itemStep);\r\n\r\n    function createItem(string memory _identifier, uint _priceInWei, uint _quantity) public onlyOwner {\r\n        ProductSale product = new ProductSale(this, _priceInWei, index, _quantity);\r\n        products[index]._product = product;\r\n        products[index]._productStep = ProductSteps.Created;\r\n        products[index]._identifier = _identifier;\r\n        products[index]._priceInWei = _priceInWei;\r\n        products[index]._quantity = _quantity;\r\n        emit ProductStep(index, address(product), _quantity, uint(products[index]._productStep));\r\n        index++;\r\n    }\r\n\r\n    function triggerPayment(uint _productIndex, uint qty, address buyer) public payable {\r\n        ProductSale product = products[_productIndex]._product;\r\n        require(address(product) == msg.sender, \"Only items are allowed to update themselves\");\r\n        require(product.priceInWei() == msg.value, \"Not fully paid yet\");\r\n        require(products[_productIndex]._quantity >= qty && products[_productIndex]._quantity > 0, \"The quantity you have ordered exceeds the available quantity\");\r\n        require(products[_productIndex]._productStep != ProductSteps.SoldOut, \"This item is sold out, please contact us to find out when new stock will arrive\");\r\n        paymentAuth[buyer]._itemStep[paymentAuth[buyer]._addressIndex] = ItemSteps.Paid;\r\n        products[_productIndex]._quantity -= qty;\r\n        paymentAuth[buyer]._quantity[paymentAuth[buyer]._addressIndex] = qty;\r\n        emit ItemStep(_productIndex, buyer, paymentAuth[buyer]._addressIndex, uint(paymentAuth[buyer]._itemStep[paymentAuth[buyer]._addressIndex]), qty); //removed: uint(items[_index]._step)\r\n        emit ProductStep(_productIndex, address(products[_productIndex]._product), products[_productIndex]._quantity, uint(products[_productIndex]._productStep));\r\n        paymentAuth[buyer]._addressIndex++;\r\n        if (products[_productIndex]._quantity == 0){\r\n            products[index]._productStep = ProductSteps.Created;\r\n        }\r\n    }\r\n\r\n    function triggerDelivery(uint _productIndex, address buyer, uint address_index) public onlyOwner {\r\n        require(paymentAuth[buyer]._itemStep[address_index] == ItemSteps.Paid, \"Item is further in the supply chain\");\r\n        paymentAuth[buyer]._itemStep[address_index] = ItemSteps.Delivered;\r\n        emit ProductStep(_productIndex, address(products[_productIndex]._product), products[_productIndex]._quantity, uint(products[_productIndex]._productStep));\r\n        emit ItemStep(_productIndex, buyer, address_index, uint(paymentAuth[buyer]._itemStep[paymentAuth[buyer]._addressIndex]), paymentAuth[buyer]._quantity[paymentAuth[buyer]._addressIndex]); //removed: uint(items[_index]._step)\r\n    }\r\n\r\n    function updateQuantity(uint newQuantity, uint itemIndex, uint cost) public onlyOwner {\r\n        require(cost == products[itemIndex]._priceInWei, \"The cost does not match the item index, cannot update quantity\"); //Stop malicious actors from creating false supplies.\r\n        products[itemIndex]._quantity = newQuantity;\r\n        (bool success, ) = address(products[itemIndex]._product).call(abi.encodeWithSignature(\"updateQty(uint256)\", newQuantity));\r\n        require(success, \"Product quantity update failed, please try again\");\r\n    }\r\n\r\n    function getIndexCount() public view returns(uint) {\r\n        return(index);\r\n    }\r\n\r\n    function productData(uint _index) public view returns(string memory, uint, uint) {\r\n        return(products[_index]._identifier, products[_index]._priceInWei, products[_index]._quantity);\r\n    }\r\n\r\n}",
  "sourcePath": "C:\\Users\\nicba\\SupplyChain\\contracts\\ItemManager.sol",
  "compiler": {
    "name": "solc",
    "version": "0.8.9+commit.e5eed63a.Emscripten.clang"
  },
  "schemaVersion": "3.4.6",
  "updatedAt": "2022-04-11T20:16:41.026Z",
  "networkType": "ethereum",
  "devdoc": {
    "kind": "dev",
    "methods": {
      "owner()": {
        "details": "Returns the address of the current owner."
      },
      "renounceOwnership()": {
        "details": "Leaves the contract without owner. It will not be possible to call `onlyOwner` functions anymore. Can only be called by the current owner. NOTE: Renouncing ownership will leave the contract without an owner, thereby removing any functionality that is only available to the owner."
      },
      "transferOwnership(address)": {
        "details": "Transfers ownership of the contract to a new account (`newOwner`). Can only be called by the current owner."
      }
    },
    "version": 1
  },
  "userdoc": {
    "kind": "user",
    "methods": {},
    "version": 1
  }
}