{
  "contractName": "ItemManager",
  "abi": [
    {
      "anonymous": false,
      "inputs": [
        {
          "indexed": false,
          "internalType": "uint256",
          "name": "_productIndex",
          "type": "uint256"
        },
        {
          "indexed": false,
          "internalType": "address",
          "name": "_buyerAddress",
          "type": "address"
        },
        {
          "indexed": false,
          "internalType": "uint256",
          "name": "buyerIndex",
          "type": "uint256"
        },
        {
          "indexed": false,
          "internalType": "uint256",
          "name": "qtyBought",
          "type": "uint256"
        },
        {
          "indexed": false,
          "internalType": "uint256",
          "name": "_itemStep",
          "type": "uint256"
        }
      ],
      "name": "ItemStep",
      "type": "event"
    },
    {
      "anonymous": false,
      "inputs": [
        {
          "indexed": true,
          "internalType": "address",
          "name": "previousOwner",
          "type": "address"
        },
        {
          "indexed": true,
          "internalType": "address",
          "name": "newOwner",
          "type": "address"
        }
      ],
      "name": "OwnershipTransferred",
      "type": "event"
    },
    {
      "anonymous": false,
      "inputs": [
        {
          "indexed": false,
          "internalType": "uint256",
          "name": "_productIndex",
          "type": "uint256"
        },
        {
          "indexed": false,
          "internalType": "address",
          "name": "_address",
          "type": "address"
        },
        {
          "indexed": false,
          "internalType": "uint256",
          "name": "qty",
          "type": "uint256"
        }
      ],
      "name": "ProductStep",
      "type": "event"
    },
    {
      "stateMutability": "payable",
      "type": "fallback",
      "payable": true
    },
    {
      "inputs": [],
      "name": "owner",
      "outputs": [
        {
          "internalType": "address",
          "name": "",
          "type": "address"
        }
      ],
      "stateMutability": "view",
      "type": "function",
      "constant": true
    },
    {
      "inputs": [
        {
          "internalType": "address",
          "name": "",
          "type": "address"
        }
      ],
      "name": "paymentAuth",
      "outputs": [
        {
          "internalType": "uint256",
          "name": "_buyerId",
          "type": "uint256"
        },
        {
          "internalType": "uint256",
          "name": "_buyerIndex",
          "type": "uint256"
        }
      ],
      "stateMutability": "view",
      "type": "function",
      "constant": true
    },
    {
      "inputs": [
        {
          "internalType": "uint256",
          "name": "",
          "type": "uint256"
        }
      ],
      "name": "products",
      "outputs": [
        {
          "internalType": "contract ProductSale",
          "name": "_product",
          "type": "address"
        },
        {
          "internalType": "string",
          "name": "_identifier",
          "type": "string"
        },
        {
          "internalType": "uint256",
          "name": "_priceInWei",
          "type": "uint256"
        },
        {
          "internalType": "uint256",
          "name": "_quantity",
          "type": "uint256"
        },
        {
          "internalType": "bool",
          "name": "show",
          "type": "bool"
        }
      ],
      "stateMutability": "view",
      "type": "function",
      "constant": true
    },
    {
      "inputs": [],
      "name": "renounceOwnership",
      "outputs": [],
      "stateMutability": "nonpayable",
      "type": "function"
    },
    {
      "inputs": [
        {
          "internalType": "address",
          "name": "newOwner",
          "type": "address"
        }
      ],
      "name": "transferOwnership",
      "outputs": [],
      "stateMutability": "nonpayable",
      "type": "function"
    },
    {
      "inputs": [
        {
          "internalType": "string",
          "name": "_identifier",
          "type": "string"
        },
        {
          "internalType": "uint256",
          "name": "_priceInWei",
          "type": "uint256"
        },
        {
          "internalType": "uint256",
          "name": "_quantity",
          "type": "uint256"
        }
      ],
      "name": "createItem",
      "outputs": [
        {
          "internalType": "bool",
          "name": "",
          "type": "bool"
        }
      ],
      "stateMutability": "nonpayable",
      "type": "function"
    },
    {
      "inputs": [
        {
          "internalType": "uint256",
          "name": "_Ind",
          "type": "uint256"
        },
        {
          "internalType": "uint256",
          "name": "_qty",
          "type": "uint256"
        },
        {
          "internalType": "address",
          "name": "buyer",
          "type": "address"
        }
      ],
      "name": "triggerPayment",
      "outputs": [],
      "stateMutability": "payable",
      "type": "function",
      "payable": true
    },
    {
      "inputs": [
        {
          "internalType": "uint256",
          "name": "_productIndex",
          "type": "uint256"
        },
        {
          "internalType": "address",
          "name": "buyer",
          "type": "address"
        },
        {
          "internalType": "uint256",
          "name": "address_index",
          "type": "uint256"
        },
        {
          "internalType": "uint256",
          "name": "buyerIndex",
          "type": "uint256"
        }
      ],
      "name": "triggerDelivery",
      "outputs": [],
      "stateMutability": "nonpayable",
      "type": "function"
    },
    {
      "inputs": [
        {
          "internalType": "uint256",
          "name": "newQuantity",
          "type": "uint256"
        },
        {
          "internalType": "uint256",
          "name": "itemIndex",
          "type": "uint256"
        }
      ],
      "name": "updateQuantity",
      "outputs": [
        {
          "internalType": "bool",
          "name": "",
          "type": "bool"
        }
      ],
      "stateMutability": "nonpayable",
      "type": "function"
    },
    {
      "inputs": [
        {
          "internalType": "string",
          "name": "newName",
          "type": "string"
        },
        {
          "internalType": "uint256",
          "name": "itemIndex",
          "type": "uint256"
        }
      ],
      "name": "updateName",
      "outputs": [
        {
          "internalType": "bool",
          "name": "",
          "type": "bool"
        }
      ],
      "stateMutability": "nonpayable",
      "type": "function"
    },
    {
      "inputs": [
        {
          "internalType": "uint256",
          "name": "newCost",
          "type": "uint256"
        },
        {
          "internalType": "uint256",
          "name": "itemIndex",
          "type": "uint256"
        }
      ],
      "name": "updateCost",
      "outputs": [
        {
          "internalType": "bool",
          "name": "",
          "type": "bool"
        }
      ],
      "stateMutability": "nonpayable",
      "type": "function"
    },
    {
      "inputs": [],
      "name": "getIndexCount",
      "outputs": [
        {
          "internalType": "uint256",
          "name": "",
          "type": "uint256"
        }
      ],
      "stateMutability": "view",
      "type": "function",
      "constant": true
    },
    {
      "inputs": [
        {
          "internalType": "uint256",
          "name": "_ind",
          "type": "uint256"
        }
      ],
      "name": "toggleShow",
      "outputs": [
        {
          "internalType": "bool",
          "name": "",
          "type": "bool"
        }
      ],
      "stateMutability": "nonpayable",
      "type": "function"
    },
    {
      "inputs": [
        {
          "internalType": "uint256",
          "name": "_index",
          "type": "uint256"
        }
      ],
      "name": "productData",
      "outputs": [
        {
          "internalType": "string",
          "name": "",
          "type": "string"
        },
        {
          "internalType": "uint256",
          "name": "",
          "type": "uint256"
        },
        {
          "internalType": "uint256",
          "name": "",
          "type": "uint256"
        },
        {
          "internalType": "address",
          "name": "",
          "type": "address"
        },
        {
          "internalType": "bool",
          "name": "",
          "type": "bool"
        }
      ],
      "stateMutability": "view",
      "type": "function",
      "constant": true
    }
  ],
  "bytecode": "0x60806040523480156200001157600080fd5b5062000032620000266200003860201b60201c565b6200004060201b60201c565b62000104565b600033905090565b60008060009054906101000a900473ffffffffffffffffffffffffffffffffffffffff169050816000806101000a81548173ffffffffffffffffffffffffffffffffffffffff021916908373ffffffffffffffffffffffffffffffffffffffff1602179055508173ffffffffffffffffffffffffffffffffffffffff168173ffffffffffffffffffffffffffffffffffffffff167f8be0079c531659141344cd1fd0a4f28419497f9722a3daafe3b4186f6b6457e060405160405180910390a35050565b61330f80620001146000396000f3fe608060405260043610620000f75760003560e01c80638da5cb5b116200008b578063ca1fb7771162000061578063ca1fb7771462000333578063ec2443701462000377578063f2fde38b14620003a7578063f4808a8f14620003d557620000f8565b80638da5cb5b146200028d5780639f5ce91014620002bd578063b23f9dde146200030557620000f8565b806374ff68b611620000cd57806374ff68b6146200019c57806379cd492114620001bc5780637acc0b2014620002005780637ace8038146200024857620000f8565b8063108155bc14620000fa57806335314461146200013e578063715018a6146200018257620000f8565b5b005b3480156200010757600080fd5b5062000126600480360381019062000120919062001b31565b62000419565b60405162000135919062001bc9565b60405180910390f35b3480156200014b57600080fd5b506200016a600480360381019062000164919062001be6565b62000608565b60405162000179919062001bc9565b60405180910390f35b3480156200018f57600080fd5b506200019a6200082b565b005b620001ba6004803603810190620001b4919062001c92565b620008bc565b005b348015620001c957600080fd5b50620001e86004803603810190620001e2919062001be6565b62000d44565b604051620001f7919062001bc9565b60405180910390f35b3480156200020d57600080fd5b506200022c600480360381019062000226919062001cee565b62000f67565b6040516200023f95949392919062001e2f565b60405180910390f35b3480156200025557600080fd5b506200027460048036038101906200026e919062001e93565b6200105a565b6040516200028492919062001ec5565b60405180910390f35b3480156200029a57600080fd5b50620002a56200107e565b604051620002b4919062001f03565b60405180910390f35b348015620002ca57600080fd5b50620002e96004803603810190620002e3919062001cee565b620010a7565b604051620002fc95949392919062001f20565b60405180910390f35b3480156200031257600080fd5b506200033160048036038101906200032b919062001f84565b620011f5565b005b3480156200034057600080fd5b506200035f600480360381019062000359919062001ff6565b6200156a565b6040516200036e919062001bc9565b60405180910390f35b3480156200038457600080fd5b506200038f62001626565b6040516200039e91906200205c565b60405180910390f35b348015620003b457600080fd5b50620003d36004803603810190620003cd919062001e93565b62001630565b005b348015620003e257600080fd5b50620004016004803603810190620003fb919062001cee565b62001734565b60405162000410919062001bc9565b60405180910390f35b600062000425620017f6565b73ffffffffffffffffffffffffffffffffffffffff16620004456200107e565b73ffffffffffffffffffffffffffffffffffffffff16146200049e576040517f08c379a00000000000000000000000000000000000000000000000000000000081526004016200049590620020c9565b60405180910390fd5b6000308460035485604051620004b490620018c2565b620004c3949392919062002110565b604051809103906000f080158015620004e0573d6000803e3d6000fd5b5090508060016000600354815260200190815260200160002060000160006101000a81548173ffffffffffffffffffffffffffffffffffffffff021916908373ffffffffffffffffffffffffffffffffffffffff16021790555084600160006003548152602001908152602001600020600101908051906020019062000568929190620018d0565b50836001600060035481526020019081526020016000206002018190555082600160006003548152602001908152602001600020600301819055507f42bf350929f0b549e4d17490f0093004ee503c65f9b3764ca4a431425d3729a36003548285604051620005da939291906200215d565b60405180910390a160036000815480929190620005f790620021c9565b919050555060019150509392505050565b600062000614620017f6565b73ffffffffffffffffffffffffffffffffffffffff16620006346200107e565b73ffffffffffffffffffffffffffffffffffffffff16146200068d576040517f08c379a00000000000000000000000000000000000000000000000000000000081526004016200068490620020c9565b60405180910390fd5b82600160008481526020019081526020016000206002018190555060006001600084815260200190815260200160002060000160009054906101000a900473ffffffffffffffffffffffffffffffffffffffff1673ffffffffffffffffffffffffffffffffffffffff16846040516024016200070a91906200205c565b6040516020818303038152906040527f7da71756000000000000000000000000000000000000000000000000000000007bffffffffffffffffffffffffffffffffffffffffffffffffffffffff19166020820180517bffffffffffffffffffffffffffffffffffffffffffffffffffffffff838183161783525050505060405162000796919062002264565b6000604051808303816000865af19150503d8060008114620007d5576040519150601f19603f3d011682016040523d82523d6000602084013e620007da565b606091505b505090508062000821576040517f08c379a00000000000000000000000000000000000000000000000000000000081526004016200081890620022f3565b60405180910390fd5b8091505092915050565b62000835620017f6565b73ffffffffffffffffffffffffffffffffffffffff16620008556200107e565b73ffffffffffffffffffffffffffffffffffffffff1614620008ae576040517f08c379a0000000000000000000000000000000000000000000000000000000008152600401620008a590620020c9565b60405180910390fd5b620008ba6000620017fe565b565b60006001600085815260200190815260200160002060000160009054906101000a900473ffffffffffffffffffffffffffffffffffffffff1690503373ffffffffffffffffffffffffffffffffffffffff168173ffffffffffffffffffffffffffffffffffffffff161462000968576040517f08c379a00000000000000000000000000000000000000000000000000000000081526004016200095f906200238b565b60405180910390fd5b8260016000868152602001908152602001600020600301541015620009c4576040517f08c379a0000000000000000000000000000000000000000000000000000000008152600401620009bb9062002423565b60405180910390fd5b6001600260008473ffffffffffffffffffffffffffffffffffffffff1673ffffffffffffffffffffffffffffffffffffffff1681526020019081526020016000206000016000600260008673ffffffffffffffffffffffffffffffffffffffff1673ffffffffffffffffffffffffffffffffffffffff16815260200190815260200160002060020154815260200190815260200160002060010160006101000a81548160ff0219169083600281111562000a835762000a8262002445565b5b02179055508260016000868152602001908152602001600020600301600082825462000ab0919062002474565b9250508190555082600260008473ffffffffffffffffffffffffffffffffffffffff1673ffffffffffffffffffffffffffffffffffffffff1681526020019081526020016000206000016000600260008673ffffffffffffffffffffffffffffffffffffffff1673ffffffffffffffffffffffffffffffffffffffff168152602001908152602001600020600201548152602001908152602001600020600001819055507f235280cce55153589b2310decf136eaaed1d4c47c6bf922abc8fd73dc10830388483600260008673ffffffffffffffffffffffffffffffffffffffff1673ffffffffffffffffffffffffffffffffffffffff1681526020019081526020016000206002015486600260008873ffffffffffffffffffffffffffffffffffffffff1673ffffffffffffffffffffffffffffffffffffffff1681526020019081526020016000206000016000600260008a73ffffffffffffffffffffffffffffffffffffffff1673ffffffffffffffffffffffffffffffffffffffff16815260200190815260200160002060020154815260200190815260200160002060010160009054906101000a900460ff16600281111562000c765762000c7562002445565b5b60405162000c89959493929190620024af565b60405180910390a17f42bf350929f0b549e4d17490f0093004ee503c65f9b3764ca4a431425d3729a38482600160008881526020019081526020016000206003015460405162000cdc939291906200215d565b60405180910390a1600260008373ffffffffffffffffffffffffffffffffffffffff1673ffffffffffffffffffffffffffffffffffffffff168152602001908152602001600020600201600081548092919062000d3990620021c9565b919050555050505050565b600062000d50620017f6565b73ffffffffffffffffffffffffffffffffffffffff1662000d706200107e565b73ffffffffffffffffffffffffffffffffffffffff161462000dc9576040517f08c379a000000000000000000000000000000000000000000000000000000000815260040162000dc090620020c9565b60405180910390fd5b82600160008481526020019081526020016000206003018190555060006001600084815260200190815260200160002060000160009054906101000a900473ffffffffffffffffffffffffffffffffffffffff1673ffffffffffffffffffffffffffffffffffffffff168460405160240162000e4691906200205c565b6040516020818303038152906040527f685c4e68000000000000000000000000000000000000000000000000000000007bffffffffffffffffffffffffffffffffffffffffffffffffffffffff19166020820180517bffffffffffffffffffffffffffffffffffffffffffffffffffffffff838183161783525050505060405162000ed2919062002264565b6000604051808303816000865af19150503d806000811462000f11576040519150601f19603f3d011682016040523d82523d6000602084013e62000f16565b606091505b505090508062000f5d576040517f08c379a000000000000000000000000000000000000000000000000000000000815260040162000f5490620022f3565b60405180910390fd5b8091505092915050565b60016020528060005260406000206000915090508060000160009054906101000a900473ffffffffffffffffffffffffffffffffffffffff169080600101805462000fb2906200253b565b80601f016020809104026020016040519081016040528092919081815260200182805462000fe0906200253b565b8015620010315780601f10620010055761010080835404028352916020019162001031565b820191906000526020600020905b8154815290600101906020018083116200101357829003601f168201915b5050505050908060020154908060030154908060040160009054906101000a900460ff16905085565b60026020528060005260406000206000915090508060010154908060020154905082565b60008060009054906101000a900473ffffffffffffffffffffffffffffffffffffffff16905090565b60606000806000806001600087815260200190815260200160002060010160016000888152602001908152602001600020600201546001600089815260200190815260200160002060030154600160008a815260200190815260200160002060000160009054906101000a900473ffffffffffffffffffffffffffffffffffffffff16600160008b815260200190815260200160002060040160009054906101000a900460ff168480546200115c906200253b565b80601f01602080910402602001604051908101604052809291908181526020018280546200118a906200253b565b8015620011db5780601f10620011af57610100808354040283529160200191620011db565b820191906000526020600020905b815481529060010190602001808311620011bd57829003601f168201915b505050505094509450945094509450945091939590929450565b620011ff620017f6565b73ffffffffffffffffffffffffffffffffffffffff166200121f6200107e565b73ffffffffffffffffffffffffffffffffffffffff161462001278576040517f08c379a00000000000000000000000000000000000000000000000000000000081526004016200126f90620020c9565b60405180910390fd5b600160028111156200128f576200128e62002445565b5b600260008573ffffffffffffffffffffffffffffffffffffffff1673ffffffffffffffffffffffffffffffffffffffff168152602001908152602001600020600001600083815260200190815260200160002060010160009054906101000a900460ff16600281111562001308576200130762002445565b5b146200134b576040517f08c379a00000000000000000000000000000000000000000000000000000000081526004016200134290620025e7565b60405180910390fd5b60028060008573ffffffffffffffffffffffffffffffffffffffff1673ffffffffffffffffffffffffffffffffffffffff168152602001908152602001600020600001600083815260200190815260200160002060010160006101000a81548160ff02191690836002811115620013c757620013c662002445565b5b02179055507f42bf350929f0b549e4d17490f0093004ee503c65f9b3764ca4a431425d3729a3846001600087815260200190815260200160002060000160009054906101000a900473ffffffffffffffffffffffffffffffffffffffff1660016000888152602001908152602001600020600301546040516200144d939291906200215d565b60405180910390a17f235280cce55153589b2310decf136eaaed1d4c47c6bf922abc8fd73dc1083038848484600260008873ffffffffffffffffffffffffffffffffffffffff1673ffffffffffffffffffffffffffffffffffffffff168152602001908152602001600020600001600086815260200190815260200160002060000154600260008973ffffffffffffffffffffffffffffffffffffffff1673ffffffffffffffffffffffffffffffffffffffff168152602001908152602001600020600001600087815260200190815260200160002060010160009054906101000a900460ff16600281111562001549576200154862002445565b5b6040516200155c959493929190620024af565b60405180910390a150505050565b600062001576620017f6565b73ffffffffffffffffffffffffffffffffffffffff16620015966200107e565b73ffffffffffffffffffffffffffffffffffffffff1614620015ef576040517f08c379a0000000000000000000000000000000000000000000000000000000008152600401620015e690620020c9565b60405180910390fd5b826001600084815260200190815260200160002060010190805190602001906200161b929190620018d0565b506001905092915050565b6000600354905090565b6200163a620017f6565b73ffffffffffffffffffffffffffffffffffffffff166200165a6200107e565b73ffffffffffffffffffffffffffffffffffffffff1614620016b3576040517f08c379a0000000000000000000000000000000000000000000000000000000008152600401620016aa90620020c9565b60405180910390fd5b600073ffffffffffffffffffffffffffffffffffffffff168173ffffffffffffffffffffffffffffffffffffffff16141562001726576040517f08c379a00000000000000000000000000000000000000000000000000000000081526004016200171d906200267f565b60405180910390fd5b6200173181620017fe565b50565b6000600115156001600084815260200190815260200160002060040160009054906101000a900460ff16151514156200179c5760006001600084815260200190815260200160002060040160006101000a81548160ff021916908315150217905550620017cb565b600180600084815260200190815260200160002060040160006101000a81548160ff0219169083151502179055505b6001600083815260200190815260200160002060040160009054906101000a900460ff169050919050565b600033905090565b60008060009054906101000a900473ffffffffffffffffffffffffffffffffffffffff169050816000806101000a81548173ffffffffffffffffffffffffffffffffffffffff021916908373ffffffffffffffffffffffffffffffffffffffff1602179055508173ffffffffffffffffffffffffffffffffffffffff168173ffffffffffffffffffffffffffffffffffffffff167f8be0079c531659141344cd1fd0a4f28419497f9722a3daafe3b4186f6b6457e060405160405180910390a35050565b610c3880620026a283390190565b828054620018de906200253b565b90600052602060002090601f0160209004810192826200190257600085556200194e565b82601f106200191d57805160ff19168380011785556200194e565b828001600101855582156200194e579182015b828111156200194d57825182559160200191906001019062001930565b5b5090506200195d919062001961565b5090565b5b808211156200197c57600081600090555060010162001962565b5090565b6000604051905090565b600080fd5b600080fd5b600080fd5b600080fd5b6000601f19601f8301169050919050565b7f4e487b7100000000000000000000000000000000000000000000000000000000600052604160045260246000fd5b620019e9826200199e565b810181811067ffffffffffffffff8211171562001a0b5762001a0a620019af565b5b80604052505050565b600062001a2062001980565b905062001a2e8282620019de565b919050565b600067ffffffffffffffff82111562001a515762001a50620019af565b5b62001a5c826200199e565b9050602081019050919050565b82818337600083830152505050565b600062001a8f62001a898462001a33565b62001a14565b90508281526020810184848401111562001aae5762001aad62001999565b5b62001abb84828562001a69565b509392505050565b600082601f83011262001adb5762001ada62001994565b5b813562001aed84826020860162001a78565b91505092915050565b6000819050919050565b62001b0b8162001af6565b811462001b1757600080fd5b50565b60008135905062001b2b8162001b00565b92915050565b60008060006060848603121562001b4d5762001b4c6200198a565b5b600084013567ffffffffffffffff81111562001b6e5762001b6d6200198f565b5b62001b7c8682870162001ac3565b935050602062001b8f8682870162001b1a565b925050604062001ba28682870162001b1a565b9150509250925092565b60008115159050919050565b62001bc38162001bac565b82525050565b600060208201905062001be0600083018462001bb8565b92915050565b6000806040838503121562001c005762001bff6200198a565b5b600062001c108582860162001b1a565b925050602062001c238582860162001b1a565b9150509250929050565b600073ffffffffffffffffffffffffffffffffffffffff82169050919050565b600062001c5a8262001c2d565b9050919050565b62001c6c8162001c4d565b811462001c7857600080fd5b50565b60008135905062001c8c8162001c61565b92915050565b60008060006060848603121562001cae5762001cad6200198a565b5b600062001cbe8682870162001b1a565b935050602062001cd18682870162001b1a565b925050604062001ce48682870162001c7b565b9150509250925092565b60006020828403121562001d075762001d066200198a565b5b600062001d178482850162001b1a565b91505092915050565b6000819050919050565b600062001d4b62001d4562001d3f8462001c2d565b62001d20565b62001c2d565b9050919050565b600062001d5f8262001d2a565b9050919050565b600062001d738262001d52565b9050919050565b62001d858162001d66565b82525050565b600081519050919050565b600082825260208201905092915050565b60005b8381101562001dc757808201518184015260208101905062001daa565b8381111562001dd7576000848401525b50505050565b600062001dea8262001d8b565b62001df6818562001d96565b935062001e0881856020860162001da7565b62001e13816200199e565b840191505092915050565b62001e298162001af6565b82525050565b600060a08201905062001e46600083018862001d7a565b818103602083015262001e5a818762001ddd565b905062001e6b604083018662001e1e565b62001e7a606083018562001e1e565b62001e89608083018462001bb8565b9695505050505050565b60006020828403121562001eac5762001eab6200198a565b5b600062001ebc8482850162001c7b565b91505092915050565b600060408201905062001edc600083018562001e1e565b62001eeb602083018462001e1e565b9392505050565b62001efd8162001c4d565b82525050565b600060208201905062001f1a600083018462001ef2565b92915050565b600060a082019050818103600083015262001f3c818862001ddd565b905062001f4d602083018762001e1e565b62001f5c604083018662001e1e565b62001f6b606083018562001ef2565b62001f7a608083018462001bb8565b9695505050505050565b6000806000806080858703121562001fa15762001fa06200198a565b5b600062001fb18782880162001b1a565b945050602062001fc48782880162001c7b565b935050604062001fd78782880162001b1a565b925050606062001fea8782880162001b1a565b91505092959194509250565b6000806040838503121562002010576200200f6200198a565b5b600083013567ffffffffffffffff8111156200203157620020306200198f565b5b6200203f8582860162001ac3565b9250506020620020528582860162001b1a565b9150509250929050565b600060208201905062002073600083018462001e1e565b92915050565b7f4f776e61626c653a2063616c6c6572206973206e6f7420746865206f776e6572600082015250565b6000620020b160208362001d96565b9150620020be8262002079565b602082019050919050565b60006020820190508181036000830152620020e481620020a2565b9050919050565b6000620020f88262001d52565b9050919050565b6200210a81620020eb565b82525050565b6000608082019050620021276000830187620020ff565b62002136602083018662001e1e565b62002145604083018562001e1e565b62002154606083018462001e1e565b95945050505050565b600060608201905062002174600083018662001e1e565b62002183602083018562001ef2565b62002192604083018462001e1e565b949350505050565b7f4e487b7100000000000000000000000000000000000000000000000000000000600052601160045260246000fd5b6000620021d68262001af6565b91507fffffffffffffffffffffffffffffffffffffffffffffffffffffffffffffffff8214156200220c576200220b6200219a565b5b600182019050919050565b600081519050919050565b600081905092915050565b60006200223a8262002217565b62002246818562002222565b93506200225881856020860162001da7565b80840191505092915050565b60006200227282846200222d565b915081905092915050565b7f50726f64756374207175616e7469747920757064617465206661696c65642c2060008201527f706c656173652074727920616761696e00000000000000000000000000000000602082015250565b6000620022db60308362001d96565b9150620022e8826200227d565b604082019050919050565b600060208201905081810360008301526200230e81620022cc565b9050919050565b7f4f6e6c79206974656d732061726520616c6c6f77656420746f2075706461746560008201527f207468656d73656c766573000000000000000000000000000000000000000000602082015250565b600062002373602b8362001d96565b9150620023808262002315565b604082019050919050565b60006020820190508181036000830152620023a68162002364565b9050919050565b7f546865207175616e7469747920796f752068617665206f72646572656420657860008201527f63656564732074686520617661696c61626c65207175616e7469747900000000602082015250565b60006200240b603c8362001d96565b91506200241882620023ad565b604082019050919050565b600060208201905081810360008301526200243e81620023fc565b9050919050565b7f4e487b7100000000000000000000000000000000000000000000000000000000600052602160045260246000fd5b6000620024818262001af6565b91506200248e8362001af6565b925082821015620024a457620024a36200219a565b5b828203905092915050565b600060a082019050620024c6600083018862001e1e565b620024d5602083018762001ef2565b620024e4604083018662001e1e565b620024f3606083018562001e1e565b62002502608083018462001e1e565b9695505050505050565b7f4e487b7100000000000000000000000000000000000000000000000000000000600052602260045260246000fd5b600060028204905060018216806200255457607f821691505b602082108114156200256b576200256a6200250c565b5b50919050565b7f4974656d206973206675727468657220696e2074686520737570706c7920636860008201527f61696e0000000000000000000000000000000000000000000000000000000000602082015250565b6000620025cf60238362001d96565b9150620025dc8262002571565b604082019050919050565b600060208201905081810360008301526200260281620025c0565b9050919050565b7f4f776e61626c653a206e6577206f776e657220697320746865207a65726f206160008201527f6464726573730000000000000000000000000000000000000000000000000000602082015250565b60006200266760268362001d96565b9150620026748262002609565b604082019050919050565b600060208201905081810360008301526200269a8162002658565b905091905056fe60806040523480156200001157600080fd5b5060405162000c3838038062000c38833981810160405281019062000037919062000150565b826000819055508160028190555083600460006101000a81548173ffffffffffffffffffffffffffffffffffffffff021916908373ffffffffffffffffffffffffffffffffffffffff1602179055508060038190555050505050620001c2565b600080fd5b600073ffffffffffffffffffffffffffffffffffffffff82169050919050565b6000620000c9826200009c565b9050919050565b6000620000dd82620000bc565b9050919050565b620000ef81620000d0565b8114620000fb57600080fd5b50565b6000815190506200010f81620000e4565b92915050565b6000819050919050565b6200012a8162000115565b81146200013657600080fd5b50565b6000815190506200014a816200011f565b92915050565b600080600080608085870312156200016d576200016c62000097565b5b60006200017d87828801620000fe565b9450506020620001908782880162000139565b9350506040620001a38782880162000139565b9250506060620001b68782880162000139565b91505092959194509250565b610a6680620001d26000396000f3fe6080604052600436106100595760003560e01c806317fc45e2146102a85780632986c0e5146102d35780633c8da588146102fe578063685c4e68146103295780637da717561461035257806383d12eef1461037b576102a6565b366102a6576000805460015461006f919061052b565b146100af576040517f08c379a00000000000000000000000000000000000000000000000000000000081526004016100a6906105df565b60405180910390fd5b34600160008282546100c1919061062e565b92505081905550600054346100d69190610684565b6005819055506005546003541015610123576040517f08c379a000000000000000000000000000000000000000000000000000000000815260040161011a90610727565b60405180910390fd5b600554600360008282546101379190610747565b925050819055506000600460009054906101000a900473ffffffffffffffffffffffffffffffffffffffff1673ffffffffffffffffffffffffffffffffffffffff163460025460055433604051602401610193939291906107cb565b6040516020818303038152906040527f74ff68b6000000000000000000000000000000000000000000000000000000007bffffffffffffffffffffffffffffffffffffffffffffffffffffffff19166020820180517bffffffffffffffffffffffffffffffffffffffffffffffffffffffff838183161783525050505060405161021d919061087c565b60006040518083038185875af1925050503d806000811461025a576040519150601f19603f3d011682016040523d82523d6000602084013e61025f565b606091505b50509050806102a3576040517f08c379a000000000000000000000000000000000000000000000000000000000815260040161029a90610905565b60405180910390fd5b50005b005b3480156102b457600080fd5b506102bd6103a6565b6040516102ca9190610925565b60405180910390f35b3480156102df57600080fd5b506102e86103ac565b6040516102f59190610925565b60405180910390f35b34801561030a57600080fd5b506103136103b2565b6040516103209190610925565b60405180910390f35b34801561033557600080fd5b50610350600480360381019061034b9190610971565b6103b8565b005b34801561035e57600080fd5b5061037960048036038101906103749190610971565b610452565b005b34801561038757600080fd5b506103906104ec565b60405161039d9190610925565b60405180910390f35b60035481565b60025481565b60005481565b3373ffffffffffffffffffffffffffffffffffffffff16600460009054906101000a900473ffffffffffffffffffffffffffffffffffffffff1673ffffffffffffffffffffffffffffffffffffffff1614610448576040517f08c379a000000000000000000000000000000000000000000000000000000000815260040161043f90610a10565b60405180910390fd5b8060038190555050565b3373ffffffffffffffffffffffffffffffffffffffff16600460009054906101000a900473ffffffffffffffffffffffffffffffffffffffff1673ffffffffffffffffffffffffffffffffffffffff16146104e2576040517f08c379a00000000000000000000000000000000000000000000000000000000081526004016104d990610a10565b60405180910390fd5b8060008190555050565b60015481565b6000819050919050565b7f4e487b7100000000000000000000000000000000000000000000000000000000600052601260045260246000fd5b6000610536826104f2565b9150610541836104f2565b925082610551576105506104fc565b5b828206905092915050565b600082825260208201905092915050565b7f536f7272792c207061727469616c207061796d656e747320617265206e6f742060008201527f6163636570746564210000000000000000000000000000000000000000000000602082015250565b60006105c960298361055c565b91506105d48261056d565b604082019050919050565b600060208201905081810360008301526105f8816105bc565b9050919050565b7f4e487b7100000000000000000000000000000000000000000000000000000000600052601160045260246000fd5b6000610639826104f2565b9150610644836104f2565b9250827fffffffffffffffffffffffffffffffffffffffffffffffffffffffffffffffff03821115610679576106786105ff565b5b828201905092915050565b600061068f826104f2565b915061069a836104f2565b9250826106aa576106a96104fc565b5b828204905092915050565b7f536f7272792c207468657265206973206e6f7420656e6f7567682073746f636b60008201527f20746f2066756c66696c6c2074686973206f7264657200000000000000000000602082015250565b600061071160368361055c565b915061071c826106b5565b604082019050919050565b6000602082019050818103600083015261074081610704565b9050919050565b6000610752826104f2565b915061075d836104f2565b9250828210156107705761076f6105ff565b5b828203905092915050565b610784816104f2565b82525050565b600073ffffffffffffffffffffffffffffffffffffffff82169050919050565b60006107b58261078a565b9050919050565b6107c5816107aa565b82525050565b60006060820190506107e0600083018661077b565b6107ed602083018561077b565b6107fa60408301846107bc565b949350505050565b600081519050919050565b600081905092915050565b60005b8381101561083657808201518184015260208101905061081b565b83811115610845576000848401525b50505050565b600061085682610802565b610860818561080d565b9350610870818560208601610818565b80840191505092915050565b6000610888828461084b565b915081905092915050565b7f5061796d656e742070726f63657373696e67206661696c65642c20706c65617360008201527f6520636f6e7461637420746865206f776e657200000000000000000000000000602082015250565b60006108ef60338361055c565b91506108fa82610893565b604082019050919050565b6000602082019050818103600083015261091e816108e2565b9050919050565b600060208201905061093a600083018461077b565b92915050565b600080fd5b61094e816104f2565b811461095957600080fd5b50565b60008135905061096b81610945565b92915050565b60006020828403121561098757610986610940565b5b60006109958482850161095c565b91505092915050565b7f4f6e6c7920746865204974656d4d616e6167657220636f6e747261637420636160008201527f6e20757064617465206974656d207175616e7469747900000000000000000000602082015250565b60006109fa60368361055c565b9150610a058261099e565b604082019050919050565b60006020820190508181036000830152610a29816109ed565b905091905056fea26469706673582212202e2554d45675e76714e44b2bcb40ebd36260d864cb429037d516ebc05c45939d64736f6c63430008090033a2646970667358221220432277c43be5cba8f3ada6be0be1cc8714ae6fe36ef1d585f24a3136e83651b564736f6c63430008090033",
  "immutableReferences": {},
  "source": "pragma solidity 0.8.9;\r\n\r\nimport \"./ProductSale.sol\";\r\nimport \"@openzeppelin/contracts/access/Ownable.sol\";\r\n\r\n//For this contract Item refers to a single good sold,\r\n//whilst product refers to the catagory of good- in which there may be multiple individual items.\r\ncontract ItemManager is Ownable {\r\n\r\n    struct S_Product {\r\n        ProductSale _product;\r\n        //ItemManager.SupplyChainSteps _step;\r\n        string _identifier;\r\n        uint _priceInWei;\r\n        uint _quantity;\r\n        bool show;\r\n        //ItemManager.ProductSteps _productStep;\r\n    }\r\n\r\n    struct Buyer_Log {\r\n        mapping(uint => Item_Payments) _transaction;\r\n        uint _buyerId; //\r\n        uint _buyerIndex; //since one customer can have multiple transactions (for the same or different products), buyerIndex catalogs these transactions.\r\n                          //This increases with each transaction and acts as the input for _transaction mapping.\r\n    }\r\n\r\n    struct Item_Payments {\r\n        uint _quantity;\r\n        ItemManager.ItemSteps _itemStep;\r\n    }\r\n\r\n    mapping(uint => S_Product) public products;\r\n    mapping(address => Buyer_Log) public paymentAuth;\r\n    uint index;\r\n    \r\n\r\n//ItemSteps tracks items, of which there may be many in a product category.\r\n//i.e. Apples (the product) of which there are 100 individual items being tracked\r\n    enum ItemSteps {Unpaid, Paid, Delivered} //removed created- allowing a quantity >1 for each item.\r\n\r\n//ProductSteps tracks the products- Products are created with a number of items for sale, once those items are bought the product is SoldOut\r\n    //enum ProductSteps {Created, SoldOut}\r\n\r\n    event ProductStep(uint _productIndex, address _address, uint qty); //uint _step removed\r\n    event ItemStep(uint _productIndex, address _buyerAddress, uint buyerIndex, uint qtyBought, uint _itemStep);\r\n\r\n    function createItem(string memory _identifier, uint _priceInWei, uint _quantity) public onlyOwner returns(bool){\r\n        ProductSale product = new ProductSale(this, _priceInWei, index, _quantity);\r\n        products[index]._product = product;\r\n        products[index]._identifier = _identifier;\r\n        products[index]._priceInWei = _priceInWei;\r\n        products[index]._quantity = _quantity;\r\n        emit ProductStep(index, address(product), _quantity);\r\n        index++;\r\n        return(true);\r\n    }\r\n\r\n    function triggerPayment(uint _Ind, uint _qty, address buyer) public payable {\r\n        ProductSale product = products[_Ind]._product;\r\n        require(address(product) == msg.sender, \"Only items are allowed to update themselves\");\r\n        require(products[_Ind]._quantity >= _qty, \"The quantity you have ordered exceeds the available quantity\");\r\n        paymentAuth[buyer]._transaction[paymentAuth[buyer]._buyerIndex]._itemStep = ItemSteps.Paid;\r\n        products[_Ind]._quantity -= _qty;\r\n        paymentAuth[buyer]._transaction[paymentAuth[buyer]._buyerIndex]._quantity = _qty;\r\n        emit ItemStep(_Ind, buyer, paymentAuth[buyer]._buyerIndex, _qty, uint( paymentAuth[buyer]._transaction[paymentAuth[buyer]._buyerIndex]._itemStep)); //removed: uint(items[_index]._step)\r\n        emit ProductStep(_Ind, address(product),uint(products[_Ind]._quantity));\r\n        paymentAuth[buyer]._buyerIndex++;\r\n    }\r\n\r\n    function triggerDelivery(uint _productIndex, address buyer, uint address_index, uint buyerIndex) public onlyOwner {\r\n        require(paymentAuth[buyer]._transaction[buyerIndex]._itemStep == ItemSteps.Paid, \"Item is further in the supply chain\");\r\n        paymentAuth[buyer]._transaction[buyerIndex]._itemStep = ItemSteps.Delivered;\r\n        emit ProductStep(_productIndex, address(products[_productIndex]._product), products[_productIndex]._quantity);\r\n        emit ItemStep(_productIndex, buyer, address_index, paymentAuth[buyer]._transaction[buyerIndex]._quantity, uint(paymentAuth[buyer]._transaction[buyerIndex]._itemStep)); //removed: uint(items[_index]._step)\r\n    }\r\n\r\n    function updateQuantity(uint newQuantity, uint itemIndex) public onlyOwner returns(bool) {\r\n        products[itemIndex]._quantity = newQuantity;\r\n        (bool success, ) = address(products[itemIndex]._product).call(abi.encodeWithSignature(\"update_Qty(uint256)\",newQuantity));\r\n        require(success, \"Product quantity update failed, please try again\");\r\n        return(success);\r\n    }\r\n\r\n    function updateName(string memory newName, uint itemIndex) public onlyOwner returns(bool) {\r\n        products[itemIndex]._identifier = newName;\r\n        return(true);\r\n    }\r\n\r\n    function updateCost(uint newCost, uint itemIndex) public onlyOwner returns(bool) {\r\n        products[itemIndex]._priceInWei = newCost;\r\n        (bool success, ) = address(products[itemIndex]._product).call(abi.encodeWithSignature(\"update_Cost(uint256)\",newCost));\r\n        require(success, \"Product quantity update failed, please try again\");\r\n        return(success);\r\n    }\r\n\r\n    function getIndexCount() public view returns(uint) {\r\n        return(index);\r\n    }\r\n\r\n    function toggleShow (uint _ind) public returns(bool) {\r\n        if(products[_ind].show == true) {\r\n           products[_ind].show = false;\r\n        }\r\n        else {\r\n            products[_ind].show = true;\r\n        }\r\n        return(products[_ind].show);\r\n    }\r\n\r\n    function productData(uint _index) public view returns(string memory, uint, uint, address, bool) {\r\n        return(products[_index]._identifier, products[_index]._priceInWei, products[_index]._quantity, address(products[_index]._product), products[_index].show);\r\n    }\r\n\r\n     fallback () external payable {\r\n\r\n     }\r\n\r\n}",
  "sourcePath": "C:\\Users\\nicba\\SupplyChain\\contracts\\ItemManager.sol",
  "compiler": {
    "name": "solc",
    "version": "0.8.9+commit.e5eed63a.Emscripten.clang"
  },
  "schemaVersion": "3.4.6",
  "updatedAt": "2022-04-18T01:52:38.972Z",
  "networkType": "ethereum",
  "devdoc": {
    "kind": "dev",
    "methods": {
      "owner()": {
        "details": "Returns the address of the current owner."
      },
      "renounceOwnership()": {
        "details": "Leaves the contract without owner. It will not be possible to call `onlyOwner` functions anymore. Can only be called by the current owner. NOTE: Renouncing ownership will leave the contract without an owner, thereby removing any functionality that is only available to the owner."
      },
      "transferOwnership(address)": {
        "details": "Transfers ownership of the contract to a new account (`newOwner`). Can only be called by the current owner."
      }
    },
    "version": 1
  },
  "userdoc": {
    "kind": "user",
    "methods": {},
    "version": 1
  }
}