{
  "contractName": "ProductSale",
  "abi": [
    {
      "inputs": [
        {
          "internalType": "contract ItemManager",
          "name": "_parentContract",
          "type": "address"
        },
        {
          "internalType": "uint256",
          "name": "_priceInWei",
          "type": "uint256"
        },
        {
          "internalType": "uint256",
          "name": "_index",
          "type": "uint256"
        },
        {
          "internalType": "uint256",
          "name": "_quantity",
          "type": "uint256"
        }
      ],
      "stateMutability": "nonpayable",
      "type": "constructor"
    },
    {
      "stateMutability": "nonpayable",
      "type": "fallback"
    },
    {
      "inputs": [],
      "name": "index",
      "outputs": [
        {
          "internalType": "uint256",
          "name": "",
          "type": "uint256"
        }
      ],
      "stateMutability": "view",
      "type": "function"
    },
    {
      "inputs": [],
      "name": "paidWei",
      "outputs": [
        {
          "internalType": "uint256",
          "name": "",
          "type": "uint256"
        }
      ],
      "stateMutability": "view",
      "type": "function"
    },
    {
      "inputs": [],
      "name": "priceInWei",
      "outputs": [
        {
          "internalType": "uint256",
          "name": "",
          "type": "uint256"
        }
      ],
      "stateMutability": "view",
      "type": "function"
    },
    {
      "inputs": [],
      "name": "quantity",
      "outputs": [
        {
          "internalType": "uint256",
          "name": "",
          "type": "uint256"
        }
      ],
      "stateMutability": "view",
      "type": "function"
    },
    {
      "stateMutability": "payable",
      "type": "receive"
    },
    {
      "inputs": [
        {
          "internalType": "uint256",
          "name": "newQty",
          "type": "uint256"
        }
      ],
      "name": "updateQty",
      "outputs": [],
      "stateMutability": "nonpayable",
      "type": "function"
    }
  ],
  "bytecode": "0x60806040523480156200001157600080fd5b5060405162000c4c38038062000c4c833981810160405281019062000037919062000150565b826000819055508160028190555083600460006101000a81548173ffffffffffffffffffffffffffffffffffffffff021916908373ffffffffffffffffffffffffffffffffffffffff1602179055508060038190555050505050620001c2565b600080fd5b600073ffffffffffffffffffffffffffffffffffffffff82169050919050565b6000620000c9826200009c565b9050919050565b6000620000dd82620000bc565b9050919050565b620000ef81620000d0565b8114620000fb57600080fd5b50565b6000815190506200010f81620000e4565b92915050565b6000819050919050565b6200012a8162000115565b81146200013657600080fd5b50565b6000815190506200014a816200011f565b92915050565b600080600080608085870312156200016d576200016c62000097565b5b60006200017d87828801620000fe565b9450506020620001908782880162000139565b9350506040620001a38782880162000139565b9250506060620001b68782880162000139565b91505092959194509250565b610a7a80620001d26000396000f3fe60806040526004361061004e5760003560e01c806317fc45e2146102ed5780632986c0e5146103185780633c8da5881461034357806383d12eef1461036e5780639cf78ba914610399576102de565b366102de576000543414610097576040517f08c379a000000000000000000000000000000000000000000000000000000000815260040161008e906104f7565b60405180910390fd5b600080546001546100a89190610550565b146100e8576040517f08c379a00000000000000000000000000000000000000000000000000000000081526004016100df906105f3565b60405180910390fd5b6000600354141561012e576040517f08c379a000000000000000000000000000000000000000000000000000000000815260040161012590610685565b60405180910390fd5b346001600082825461014091906106d4565b9250508190555060005434610155919061072a565b6005819055506005546003600082825461016f919061075b565b925050819055506000600460009054906101000a900473ffffffffffffffffffffffffffffffffffffffff1673ffffffffffffffffffffffffffffffffffffffff1634600254600554336040516024016101cb939291906107df565b6040516020818303038152906040527fee6bbb6c000000000000000000000000000000000000000000000000000000007bffffffffffffffffffffffffffffffffffffffffffffffffffffffff19166020820180517bffffffffffffffffffffffffffffffffffffffffffffffffffffffff83818316178352505050506040516102559190610890565b60006040518083038185875af1925050503d8060008114610292576040519150601f19603f3d011682016040523d82523d6000602084013e610297565b606091505b50509050806102db576040517f08c379a00000000000000000000000000000000000000000000000000000000081526004016102d290610919565b60405180910390fd5b50005b3480156102ea57600080fd5b50005b3480156102f957600080fd5b506103026103c2565b60405161030f9190610939565b60405180910390f35b34801561032457600080fd5b5061032d6103c8565b60405161033a9190610939565b60405180910390f35b34801561034f57600080fd5b506103586103ce565b6040516103659190610939565b60405180910390f35b34801561037a57600080fd5b506103836103d4565b6040516103909190610939565b60405180910390f35b3480156103a557600080fd5b506103c060048036038101906103bb9190610985565b6103da565b005b60035481565b60025481565b60005481565b60015481565b3373ffffffffffffffffffffffffffffffffffffffff16600460009054906101000a900473ffffffffffffffffffffffffffffffffffffffff1673ffffffffffffffffffffffffffffffffffffffff161461046a576040517f08c379a000000000000000000000000000000000000000000000000000000000815260040161046190610a24565b60405180910390fd5b8060038190555050565b600082825260208201905092915050565b7f536f7272792c207061727469616c207061796d656e747320617265206e6f742060008201527f737570706f727465640000000000000000000000000000000000000000000000602082015250565b60006104e1602983610474565b91506104ec82610485565b604082019050919050565b60006020820190508181036000830152610510816104d4565b9050919050565b6000819050919050565b7f4e487b7100000000000000000000000000000000000000000000000000000000600052601260045260246000fd5b600061055b82610517565b915061056683610517565b92508261057657610575610521565b5b828206905092915050565b7f54686973206974656d2068617320616c7265616479206265656e20706169642060008201527f666f722100000000000000000000000000000000000000000000000000000000602082015250565b60006105dd602483610474565b91506105e882610581565b604082019050919050565b6000602082019050818103600083015261060c816105d0565b9050919050565b7f536f7272792c2074686973206974656d2069732074656d706f726172696c792060008201527f736f6c64206f7574000000000000000000000000000000000000000000000000602082015250565b600061066f602883610474565b915061067a82610613565b604082019050919050565b6000602082019050818103600083015261069e81610662565b9050919050565b7f4e487b7100000000000000000000000000000000000000000000000000000000600052601160045260246000fd5b60006106df82610517565b91506106ea83610517565b9250827fffffffffffffffffffffffffffffffffffffffffffffffffffffffffffffffff0382111561071f5761071e6106a5565b5b828201905092915050565b600061073582610517565b915061074083610517565b9250826107505761074f610521565b5b828204905092915050565b600061076682610517565b915061077183610517565b925082821015610784576107836106a5565b5b828203905092915050565b61079881610517565b82525050565b600073ffffffffffffffffffffffffffffffffffffffff82169050919050565b60006107c98261079e565b9050919050565b6107d9816107be565b82525050565b60006060820190506107f4600083018661078f565b610801602083018561078f565b61080e60408301846107d0565b949350505050565b600081519050919050565b600081905092915050565b60005b8381101561084a57808201518184015260208101905061082f565b83811115610859576000848401525b50505050565b600061086a82610816565b6108748185610821565b935061088481856020860161082c565b80840191505092915050565b600061089c828461085f565b915081905092915050565b7f5061796d656e742070726f63657373696e67206661696c65642c20706c65617360008201527f6520636f6e7461637420746865206f776e657200000000000000000000000000602082015250565b6000610903603383610474565b915061090e826108a7565b604082019050919050565b60006020820190508181036000830152610932816108f6565b9050919050565b600060208201905061094e600083018461078f565b92915050565b600080fd5b61096281610517565b811461096d57600080fd5b50565b60008135905061097f81610959565b92915050565b60006020828403121561099b5761099a610954565b5b60006109a984828501610970565b91505092915050565b7f4f6e6c7920746865206d617374657220636f6e74726163742063616e2075706460008201527f617465206974656d207175616e74697479000000000000000000000000000000602082015250565b6000610a0e603183610474565b9150610a19826109b2565b604082019050919050565b60006020820190508181036000830152610a3d81610a01565b905091905056fea264697066735822122002552cb7cb7e24733dafe44ab110889991d7d948d2d52e3094cae0d0a25aacff64736f6c63430008090033",
  "immutableReferences": {},
  "source": "pragma solidity 0.8.9;\r\n\r\nimport \"./ItemManager.sol\";\r\n\r\ncontract ProductSale {\r\n    uint public priceInWei;\r\n    uint public paidWei;\r\n    uint public index;\r\n    uint public quantity;\r\n\r\n    ItemManager parentContract;\r\n\r\n    constructor(ItemManager _parentContract, uint _priceInWei, uint _index, uint _quantity) {\r\n        priceInWei = _priceInWei;\r\n        index = _index;\r\n        parentContract = _parentContract;\r\n        quantity = _quantity;\r\n    }\r\n\r\n    uint numberPaid;\r\n    //uint qty = _quantity;\r\n\r\n    receive() external payable {\r\n        require(msg.value == priceInWei, \"Sorry, partial payments are not supported\");\r\n        require(paidWei % priceInWei == 0, \"This item has already been paid for!\");\r\n        require(quantity != 0, \"Sorry, this item is temporarily sold out\");\r\n        paidWei += msg.value;\r\n        numberPaid = msg.value/priceInWei;\r\n        quantity -= numberPaid;\r\n        (bool success, ) = address(parentContract).call{value:msg.value}(abi.encodeWithSignature(\"triggerPayment(uint256, uint256, address)\", index, numberPaid, msg.sender));\r\n        require(success, \"Payment processing failed, please contact the owner\");\r\n    }\r\n\r\n    function updateQty(uint newQty) public {\r\n        require(address(parentContract) == msg.sender, \"Only the master contract can update item quantity\");\r\n        quantity = newQty;\r\n    }\r\n\r\n    fallback () external {\r\n\r\n    }\r\n}",
  "sourcePath": "C:\\Users\\nicba\\SupplyChain\\contracts\\ProductSale.sol",
  "compiler": {
    "name": "solc",
    "version": "0.8.9+commit.e5eed63a.Emscripten.clang"
  },
  "schemaVersion": "3.4.6",
  "updatedAt": "2022-04-11T20:44:35.277Z",
  "devdoc": {
    "kind": "dev",
    "methods": {},
    "version": 1
  },
  "userdoc": {
    "kind": "user",
    "methods": {},
    "version": 1
  }
}