{
  "contractName": "product",
  "abi": [
    {
      "inputs": [
        {
          "internalType": "contract ItemManager",
          "name": "_parentContract",
          "type": "address"
        },
        {
          "internalType": "uint256",
          "name": "_priceInWei",
          "type": "uint256"
        },
        {
          "internalType": "uint256",
          "name": "_index",
          "type": "uint256"
        },
        {
          "internalType": "uint256",
          "name": "_quantity",
          "type": "uint256"
        }
      ],
      "stateMutability": "nonpayable",
      "type": "constructor"
    },
    {
      "stateMutability": "nonpayable",
      "type": "fallback"
    },
    {
      "inputs": [],
      "name": "index",
      "outputs": [
        {
          "internalType": "uint256",
          "name": "",
          "type": "uint256"
        }
      ],
      "stateMutability": "view",
      "type": "function"
    },
    {
      "inputs": [],
      "name": "paidWei",
      "outputs": [
        {
          "internalType": "uint256",
          "name": "",
          "type": "uint256"
        }
      ],
      "stateMutability": "view",
      "type": "function"
    },
    {
      "inputs": [],
      "name": "priceInWei",
      "outputs": [
        {
          "internalType": "uint256",
          "name": "",
          "type": "uint256"
        }
      ],
      "stateMutability": "view",
      "type": "function"
    },
    {
      "inputs": [],
      "name": "quantity",
      "outputs": [
        {
          "internalType": "uint256",
          "name": "",
          "type": "uint256"
        }
      ],
      "stateMutability": "view",
      "type": "function"
    },
    {
      "stateMutability": "payable",
      "type": "receive"
    }
  ],
  "bytecode": "0x60806040526003546006553480156200001757600080fd5b5060405162000a9438038062000a9483398181016040528101906200003d919062000156565b826000819055508160028190555083600460006101000a81548173ffffffffffffffffffffffffffffffffffffffff021916908373ffffffffffffffffffffffffffffffffffffffff1602179055508060038190555050505050620001c8565b600080fd5b600073ffffffffffffffffffffffffffffffffffffffff82169050919050565b6000620000cf82620000a2565b9050919050565b6000620000e382620000c2565b9050919050565b620000f581620000d6565b81146200010157600080fd5b50565b6000815190506200011581620000ea565b92915050565b6000819050919050565b62000130816200011b565b81146200013c57600080fd5b50565b600081519050620001508162000125565b92915050565b600080600080608085870312156200017357620001726200009d565b5b6000620001838782880162000104565b945050602062000196878288016200013f565b9350506040620001a9878288016200013f565b9250506060620001bc878288016200013f565b91505092959194509250565b6108bc80620001d86000396000f3fe6080604052600436106100435760003560e01c806317fc45e2146102e25780632986c0e51461030d5780633c8da5881461033857806383d12eef14610363576102d3565b366102d357600054341461008c576040517f08c379a000000000000000000000000000000000000000000000000000000000815260040161008390610429565b60405180910390fd5b6000805460015461009d9190610482565b146100dd576040517f08c379a00000000000000000000000000000000000000000000000000000000081526004016100d490610525565b60405180910390fd5b60006006541415610123576040517f08c379a000000000000000000000000000000000000000000000000000000000815260040161011a906105b7565b60405180910390fd5b34600160008282546101359190610606565b925050819055506000543461014a919061065c565b60058190555060055460066000828254610164919061068d565b925050819055506000600460009054906101000a900473ffffffffffffffffffffffffffffffffffffffff1673ffffffffffffffffffffffffffffffffffffffff1634600254600554336040516024016101c093929190610711565b6040516020818303038152906040527fee6bbb6c000000000000000000000000000000000000000000000000000000007bffffffffffffffffffffffffffffffffffffffffffffffffffffffff19166020820180517bffffffffffffffffffffffffffffffffffffffffffffffffffffffff838183161783525050505060405161024a91906107c2565b60006040518083038185875af1925050503d8060008114610287576040519150601f19603f3d011682016040523d82523d6000602084013e61028c565b606091505b50509050806102d0576040517f08c379a00000000000000000000000000000000000000000000000000000000081526004016102c79061084b565b60405180910390fd5b50005b3480156102df57600080fd5b50005b3480156102ee57600080fd5b506102f761038e565b604051610304919061086b565b60405180910390f35b34801561031957600080fd5b50610322610394565b60405161032f919061086b565b60405180910390f35b34801561034457600080fd5b5061034d61039a565b60405161035a919061086b565b60405180910390f35b34801561036f57600080fd5b506103786103a0565b604051610385919061086b565b60405180910390f35b60035481565b60025481565b60005481565b60015481565b600082825260208201905092915050565b7f536f7272792c207061727469616c207061796d656e747320617265206e6f742060008201527f737570706f727465640000000000000000000000000000000000000000000000602082015250565b60006104136029836103a6565b915061041e826103b7565b604082019050919050565b6000602082019050818103600083015261044281610406565b9050919050565b6000819050919050565b7f4e487b7100000000000000000000000000000000000000000000000000000000600052601260045260246000fd5b600061048d82610449565b915061049883610449565b9250826104a8576104a7610453565b5b828206905092915050565b7f54686973206974656d2068617320616c7265616479206265656e20706169642060008201527f666f722100000000000000000000000000000000000000000000000000000000602082015250565b600061050f6024836103a6565b915061051a826104b3565b604082019050919050565b6000602082019050818103600083015261053e81610502565b9050919050565b7f536f7272792c2074686973206974656d2069732074656d706f726172696c792060008201527f736f6c64206f7574000000000000000000000000000000000000000000000000602082015250565b60006105a16028836103a6565b91506105ac82610545565b604082019050919050565b600060208201905081810360008301526105d081610594565b9050919050565b7f4e487b7100000000000000000000000000000000000000000000000000000000600052601160045260246000fd5b600061061182610449565b915061061c83610449565b9250827fffffffffffffffffffffffffffffffffffffffffffffffffffffffffffffffff03821115610651576106506105d7565b5b828201905092915050565b600061066782610449565b915061067283610449565b92508261068257610681610453565b5b828204905092915050565b600061069882610449565b91506106a383610449565b9250828210156106b6576106b56105d7565b5b828203905092915050565b6106ca81610449565b82525050565b600073ffffffffffffffffffffffffffffffffffffffff82169050919050565b60006106fb826106d0565b9050919050565b61070b816106f0565b82525050565b600060608201905061072660008301866106c1565b61073360208301856106c1565b6107406040830184610702565b949350505050565b600081519050919050565b600081905092915050565b60005b8381101561077c578082015181840152602081019050610761565b8381111561078b576000848401525b50505050565b600061079c82610748565b6107a68185610753565b93506107b681856020860161075e565b80840191505092915050565b60006107ce8284610791565b915081905092915050565b7f50796d656e742070726f63657373696e67206661696c65642c20706c6561736560008201527f20636f6e7461637420746865206f776e65720000000000000000000000000000602082015250565b60006108356032836103a6565b9150610840826107d9565b604082019050919050565b6000602082019050818103600083015261086481610828565b9050919050565b600060208201905061088060008301846106c1565b9291505056fea26469706673582212208ca4cd94e3e67bb360157c817187e584fb7abafb86a70d3ff9abb7fc419c2b2964736f6c63430008090033",
  "immutableReferences": {},
  "source": "pragma solidity 0.8.9;\r\n\r\nimport \"./ItemManager.sol\";\r\n\r\n\r\ncontract product {\r\n    uint public priceInWei;\r\n    uint public paidWei;\r\n    uint public index;\r\n    uint public quantity;\r\n\r\n    ItemManager parentContract;\r\n\r\n    constructor(ItemManager _parentContract, uint _priceInWei, uint _index, uint _quantity) {\r\n        priceInWei = _priceInWei;\r\n        index = _index;\r\n        parentContract = _parentContract;\r\n        quantity = _quantity;\r\n    }\r\n\r\n    uint numberPaid;\r\n    uint qty = quantity;\r\n\r\n    receive() external payable {\r\n        require(msg.value == priceInWei, \"Sorry, partial payments are not supported\");\r\n        require(paidWei % priceInWei == 0, \"This item has already been paid for!\");\r\n        require(qty != 0, \"Sorry, this item is temporarily sold out\");\r\n        paidWei += msg.value;\r\n        numberPaid = msg.value/priceInWei;\r\n        qty -= numberPaid;\r\n        (bool success, ) = address(parentContract).call{value:msg.value}(abi.encodeWithSignature(\"triggerPayment(uint256, uint256, address)\", index, numberPaid, msg.sender));\r\n        require(success, \"Pyment processing failed, please contact the owner\");\r\n    }\r\n\r\n    fallback () external {\r\n\r\n    }\r\n\r\n}",
  "sourcePath": "C:\\Users\\nicba\\boxTest\\contracts\\product.sol",
  "compiler": {
    "name": "solc",
    "version": "0.8.9+commit.e5eed63a.Emscripten.clang"
  },
  "schemaVersion": "3.4.6",
  "updatedAt": "2022-04-07T00:23:48.776Z",
  "devdoc": {
    "kind": "dev",
    "methods": {},
    "version": 1
  },
  "userdoc": {
    "kind": "user",
    "methods": {},
    "version": 1
  }
}