{
  "contractName": "ProductSale",
  "abi": [
    {
      "inputs": [
        {
          "internalType": "contract ItemManager",
          "name": "_parentContract",
          "type": "address"
        },
        {
          "internalType": "uint256",
          "name": "_priceInWei",
          "type": "uint256"
        },
        {
          "internalType": "uint256",
          "name": "_index",
          "type": "uint256"
        },
        {
          "internalType": "uint256",
          "name": "_quantity",
          "type": "uint256"
        }
      ],
      "stateMutability": "nonpayable",
      "type": "constructor"
    },
    {
      "anonymous": false,
      "inputs": [
        {
          "indexed": false,
          "internalType": "uint256",
          "name": "num",
          "type": "uint256"
        },
        {
          "indexed": false,
          "internalType": "uint256",
          "name": "qty",
          "type": "uint256"
        },
        {
          "indexed": false,
          "internalType": "address",
          "name": "ctrct",
          "type": "address"
        }
      ],
      "name": "test",
      "type": "event"
    },
    {
      "stateMutability": "payable",
      "type": "fallback"
    },
    {
      "inputs": [],
      "name": "index",
      "outputs": [
        {
          "internalType": "uint256",
          "name": "",
          "type": "uint256"
        }
      ],
      "stateMutability": "view",
      "type": "function"
    },
    {
      "inputs": [],
      "name": "paidWei",
      "outputs": [
        {
          "internalType": "uint256",
          "name": "",
          "type": "uint256"
        }
      ],
      "stateMutability": "view",
      "type": "function"
    },
    {
      "inputs": [],
      "name": "priceInWei",
      "outputs": [
        {
          "internalType": "uint256",
          "name": "",
          "type": "uint256"
        }
      ],
      "stateMutability": "view",
      "type": "function"
    },
    {
      "inputs": [],
      "name": "quantity",
      "outputs": [
        {
          "internalType": "uint256",
          "name": "",
          "type": "uint256"
        }
      ],
      "stateMutability": "view",
      "type": "function"
    },
    {
      "stateMutability": "payable",
      "type": "receive"
    },
    {
      "inputs": [
        {
          "internalType": "uint256",
          "name": "newQty",
          "type": "uint256"
        }
      ],
      "name": "update_Qty",
      "outputs": [],
      "stateMutability": "nonpayable",
      "type": "function"
    },
    {
      "inputs": [
        {
          "internalType": "uint256",
          "name": "newCost",
          "type": "uint256"
        }
      ],
      "name": "update_Cost",
      "outputs": [],
      "stateMutability": "nonpayable",
      "type": "function"
    }
  ],
  "bytecode": "0x60806040523480156200001157600080fd5b5060405162000c3838038062000c38833981810160405281019062000037919062000150565b826000819055508160028190555083600460006101000a81548173ffffffffffffffffffffffffffffffffffffffff021916908373ffffffffffffffffffffffffffffffffffffffff1602179055508060038190555050505050620001c2565b600080fd5b600073ffffffffffffffffffffffffffffffffffffffff82169050919050565b6000620000c9826200009c565b9050919050565b6000620000dd82620000bc565b9050919050565b620000ef81620000d0565b8114620000fb57600080fd5b50565b6000815190506200010f81620000e4565b92915050565b6000819050919050565b6200012a8162000115565b81146200013657600080fd5b50565b6000815190506200014a816200011f565b92915050565b600080600080608085870312156200016d576200016c62000097565b5b60006200017d87828801620000fe565b9450506020620001908782880162000139565b9350506040620001a38782880162000139565b9250506060620001b68782880162000139565b91505092959194509250565b610a6680620001d26000396000f3fe6080604052600436106100595760003560e01c806317fc45e2146102a85780632986c0e5146102d35780633c8da588146102fe578063685c4e68146103295780637da717561461035257806383d12eef1461037b576102a6565b366102a6576000805460015461006f919061052b565b146100af576040517f08c379a00000000000000000000000000000000000000000000000000000000081526004016100a6906105df565b60405180910390fd5b34600160008282546100c1919061062e565b92505081905550600054346100d69190610684565b6005819055506005546003541015610123576040517f08c379a000000000000000000000000000000000000000000000000000000000815260040161011a90610727565b60405180910390fd5b600554600360008282546101379190610747565b925050819055506000600460009054906101000a900473ffffffffffffffffffffffffffffffffffffffff1673ffffffffffffffffffffffffffffffffffffffff163460025460055433604051602401610193939291906107cb565b6040516020818303038152906040527f74ff68b6000000000000000000000000000000000000000000000000000000007bffffffffffffffffffffffffffffffffffffffffffffffffffffffff19166020820180517bffffffffffffffffffffffffffffffffffffffffffffffffffffffff838183161783525050505060405161021d919061087c565b60006040518083038185875af1925050503d806000811461025a576040519150601f19603f3d011682016040523d82523d6000602084013e61025f565b606091505b50509050806102a3576040517f08c379a000000000000000000000000000000000000000000000000000000000815260040161029a90610905565b60405180910390fd5b50005b005b3480156102b457600080fd5b506102bd6103a6565b6040516102ca9190610925565b60405180910390f35b3480156102df57600080fd5b506102e86103ac565b6040516102f59190610925565b60405180910390f35b34801561030a57600080fd5b506103136103b2565b6040516103209190610925565b60405180910390f35b34801561033557600080fd5b50610350600480360381019061034b9190610971565b6103b8565b005b34801561035e57600080fd5b5061037960048036038101906103749190610971565b610452565b005b34801561038757600080fd5b506103906104ec565b60405161039d9190610925565b60405180910390f35b60035481565b60025481565b60005481565b3373ffffffffffffffffffffffffffffffffffffffff16600460009054906101000a900473ffffffffffffffffffffffffffffffffffffffff1673ffffffffffffffffffffffffffffffffffffffff1614610448576040517f08c379a000000000000000000000000000000000000000000000000000000000815260040161043f90610a10565b60405180910390fd5b8060038190555050565b3373ffffffffffffffffffffffffffffffffffffffff16600460009054906101000a900473ffffffffffffffffffffffffffffffffffffffff1673ffffffffffffffffffffffffffffffffffffffff16146104e2576040517f08c379a00000000000000000000000000000000000000000000000000000000081526004016104d990610a10565b60405180910390fd5b8060008190555050565b60015481565b6000819050919050565b7f4e487b7100000000000000000000000000000000000000000000000000000000600052601260045260246000fd5b6000610536826104f2565b9150610541836104f2565b925082610551576105506104fc565b5b828206905092915050565b600082825260208201905092915050565b7f536f7272792c207061727469616c207061796d656e747320617265206e6f742060008201527f6163636570746564210000000000000000000000000000000000000000000000602082015250565b60006105c960298361055c565b91506105d48261056d565b604082019050919050565b600060208201905081810360008301526105f8816105bc565b9050919050565b7f4e487b7100000000000000000000000000000000000000000000000000000000600052601160045260246000fd5b6000610639826104f2565b9150610644836104f2565b9250827fffffffffffffffffffffffffffffffffffffffffffffffffffffffffffffffff03821115610679576106786105ff565b5b828201905092915050565b600061068f826104f2565b915061069a836104f2565b9250826106aa576106a96104fc565b5b828204905092915050565b7f536f7272792c207468657265206973206e6f7420656e6f7567682073746f636b60008201527f20746f2066756c66696c6c2074686973206f7264657200000000000000000000602082015250565b600061071160368361055c565b915061071c826106b5565b604082019050919050565b6000602082019050818103600083015261074081610704565b9050919050565b6000610752826104f2565b915061075d836104f2565b9250828210156107705761076f6105ff565b5b828203905092915050565b610784816104f2565b82525050565b600073ffffffffffffffffffffffffffffffffffffffff82169050919050565b60006107b58261078a565b9050919050565b6107c5816107aa565b82525050565b60006060820190506107e0600083018661077b565b6107ed602083018561077b565b6107fa60408301846107bc565b949350505050565b600081519050919050565b600081905092915050565b60005b8381101561083657808201518184015260208101905061081b565b83811115610845576000848401525b50505050565b600061085682610802565b610860818561080d565b9350610870818560208601610818565b80840191505092915050565b6000610888828461084b565b915081905092915050565b7f5061796d656e742070726f63657373696e67206661696c65642c20706c65617360008201527f6520636f6e7461637420746865206f776e657200000000000000000000000000602082015250565b60006108ef60338361055c565b91506108fa82610893565b604082019050919050565b6000602082019050818103600083015261091e816108e2565b9050919050565b600060208201905061093a600083018461077b565b92915050565b600080fd5b61094e816104f2565b811461095957600080fd5b50565b60008135905061096b81610945565b92915050565b60006020828403121561098757610986610940565b5b60006109958482850161095c565b91505092915050565b7f4f6e6c7920746865204974656d4d616e6167657220636f6e747261637420636160008201527f6e20757064617465206974656d207175616e7469747900000000000000000000602082015250565b60006109fa60368361055c565b9150610a058261099e565b604082019050919050565b60006020820190508181036000830152610a29816109ed565b905091905056fea2646970667358221220d72ccbd20e5e8c2f86041d6e4a34224846d79628e15bc5bd6772b915422721a264736f6c63430008090033",
  "immutableReferences": {},
  "source": "pragma solidity 0.8.9;\r\n\r\nimport \"./ItemManager.sol\";\r\n\r\ncontract ProductSale {\r\n    uint public priceInWei;\r\n    uint public paidWei;\r\n    uint public index;\r\n    uint public quantity;\r\n\r\n    ItemManager parentContract;\r\n\r\n    constructor(ItemManager _parentContract, uint _priceInWei, uint _index, uint _quantity) {\r\n        priceInWei = _priceInWei;\r\n        index = _index;\r\n        parentContract = _parentContract;\r\n        quantity = _quantity;\r\n    }\r\n\r\n    uint numberPaid;\r\n    event test(uint num, uint qty, address ctrct);\r\n\r\n    receive() external payable {\r\n        ////require(msg.value == priceInWei, \"Sorry, partial payments are not supported\");\r\n        require(paidWei % priceInWei == 0, \"Sorry, partial payments are not accepted!\");\r\n       \r\n        paidWei += msg.value;\r\n        numberPaid = msg.value/priceInWei;\r\n        require(quantity >= numberPaid, \"Sorry, there is not enough stock to fulfill this order\");\r\n        quantity -= numberPaid;\r\n         \r\n        (bool success, ) = address(parentContract).call{value:msg.value}(abi.encodeWithSignature(\"triggerPayment(uint256,uint256,address)\", index, numberPaid, msg.sender));\r\n        require(success, \"Payment processing failed, please contact the owner\");\r\n    }\r\n\r\n    function update_Qty(uint newQty) public {\r\n        require(address(parentContract) == msg.sender, \"Only the ItemManager contract can update item quantity\");\r\n        quantity = newQty;\r\n    }\r\n\r\n    function update_Cost(uint newCost) public {\r\n        require(address(parentContract) == msg.sender, \"Only the ItemManager contract can update item quantity\");\r\n        priceInWei = newCost;\r\n    }\r\n\r\n     fallback () external payable {\r\n\r\n     }\r\n}",
  "sourcePath": "C:\\Users\\nicba\\SupplyChain\\contracts\\ProductSale.sol",
  "compiler": {
    "name": "solc",
    "version": "0.8.9+commit.e5eed63a.Emscripten.clang"
  },
  "schemaVersion": "3.4.6",
  "updatedAt": "2022-04-17T19:43:09.493Z",
  "devdoc": {
    "kind": "dev",
    "methods": {},
    "version": 1
  },
  "userdoc": {
    "kind": "user",
    "methods": {},
    "version": 1
  }
}